:020000040800F2
:1000000000800120B5050008190B0008270B000827
:100010002D0B0008330B0008390B0008000000000E
:100020000000000000000000000000003F0B00087E
:100030004D0B0008000000005B0B0008690B000876
:100040000506000805060008050600080506000864
:10005000050600080506000805060008750B0008DF
:100060000506000805060008050600080506000844
:100070000506000805060008050600080506000834
:100080000506000805060008050600080506000824
:100090000506000805060008050600080506000814
:1000A0000506000805060008050600080506000804
:1000B00005060008050600080506000805060008F4
:1000C00005060008050600080506000805060008E4
:1000D00005060008050600080506000805060008D4
:1000E000830B000805060008050600080506000841
:1000F00005060008050600080506000800000000C7
:1001000005060008050600080506000805060008A3
:100110000506000805060008050600080506000893
:100120000506000805060008050600080506000883
:100130000506000805060008050600080506000873
:100140000506000805060008050600080506000863
:100150000506000805060008050600080506000853
:100160000506000805060008050600080506000843
:100170000506000805060008000000000506000846
:100180000506000805060008050600080506000823
:100190000506000805060008000000000000000039
:1001A0000000000000000000050600080506000829
:0C01B0000506000805060008050600080A
:1001C00010B5054C237833B9044B13B10448AFF391
:1001D00000800123237010BD840000200000000077
:1001E0006C78000808B5034B1BB103490348AFF313
:1001F000008008BD00000000880000206C78000826
:10020000034613F8012B002AFBD1181A0138704756
:1002100001F0FF01102A2BDB10F0070F08D010F8B7
:10022000013B013A8B422DD010F0070F42B3F6D1BB
:10023000F0B441EA012141EA014122F007047FF0D4
:1002400000070023F0E80256083C85EA010586EA2B
:10025000010685FA47F5A3FA87F586FA47F6A5FA67
:1002600087F68EB9EED1F0BC01F0FF0102F0070273
:1002700032B110F8013B013A83EA010313B1F8D11E
:100280000020704701387047002D06BF35460338FF
:10029000073815F0010F07D1013015F4807F02BF38
:1002A000013015F4C03F0130F0BC0138704700BF89
:1002B00053B94AB9002908BF00281CBF4FF0FF31CD
:1002C0004FF0FF3000F074B9ADF1080C6DE904CEC9
:1002D00000F006F8DDF804E0DDE9022304B0704721
:1002E0002DE9F047089D04468E46002B4DD18A42E9
:1002F000944669D9B2FA82F252B101FA02F3C2F11C
:10030000200120FA01F10CFA02FC41EA030E9440AC
:100310004FEA1C48210CBEFBF8F61FFA8CF708FBCD
:1003200016E341EA034306FB07F199420AD91CEBA5
:10033000030306F1FF3080F01F81994240F21C81D7
:10034000023E63445B1AA4B2B3FBF8F008FB10331F
:1003500044EA034400FB07F7A7420AD91CEB040454
:1003600000F1FF3380F00A81A74240F20781644424
:10037000023840EA0640E41B00261DB1D4400023A9
:10038000C5E900433146BDE8F0878B4209D9002D0D
:1003900000F0EF800026C5E9000130463146BDE897
:1003A000F087B3FA83F6002E4AD18B4202D3824201
:1003B00000F2F980841A61EB030301209E46002DB0
:1003C000E0D0C5E9004EDDE702B9FFDEB2FA82F205
:1003D000002A40F09280A1EB0C014FEA1C471FFA63
:1003E0008CFE0126200CB1FBF7F307FB131140EA4A
:1003F00001410EFB03F0884208D91CEB010103F117
:10040000FF3802D2884200F2CB804346091AA4B2D8
:10041000B1FBF7F007FB101144EA01440EFB00FEAC
:10042000A64508D91CEB040400F1FF3102D2A64511
:1004300000F2BB800846A4EB0E0440EA03409CE7B0
:10044000C6F12007B34022FA07FC4CEA030C20FA5D
:1004500007F401FA06F31C43F9404FEA1C4900FA7D
:1004600006F3B1FBF9F8200C1FFA8CFE09FB1811FA
:1004700040EA014108FB0EF0884202FA06F20BD96D
:100480001CEB010108F1FF3A80F08880884240F2BD
:100490008580A8F102086144091AA4B2B1FBF9F001
:1004A00009FB101144EA014100FB0EFE8E4508D9FC
:1004B0001CEB010100F1FF346CD28E456AD9023881
:1004C000614440EA0840A0FB0294A1EB0E01A14266
:1004D000C846A64656D353D05DB1B3EB080261EBD4
:1004E0000E0101FA07F722FA06F3F1401F43C5E9AE
:1004F000007100263146BDE8F087C2F12003D840E4
:100500000CFA02FC21FA03F3914001434FEA1C4725
:100510001FFA8CFEB3FBF7F007FB10360B0C43EA17
:10052000064300FB0EF69E4204FA02F408D91CEBC7
:10053000030300F1FF382FD29E422DD902386344C5
:100540009B1B89B2B3FBF7F607FB163341EA034165
:1005500006FB0EF38B4208D91CEB010106F1FF38B4
:1005600016D28B4214D9023E6144C91A46EA0046AB
:1005700038E72E46284605E70646E3E61846F8E63D
:100580004B45A9D2B9EB020864EB0C0E0138A3E786
:100590004646EAE7204694E74046D1E7D0467BE767
:1005A000023B614432E7304609E76444023842E7DF
:1005B000704700BFDFF834D000F09AFB002103E061
:1005C0000B4B5B58435004310A480B4B42189A427C
:1005D000F6D30A4A02E0002342F8043B084B9A4251
:1005E000F9D305F01DFE00F00FF8FEE700800120B2
:1005F000F08100080000002084000020840000201A
:10060000C0140020FEE7000080B500AF02F08AF8B9
:1006100000F01CFA002001F0BDFF264B264A1A60AC
:10062000244B4FF4E1325A60224B00229A60214B56
:100630000022DA601F4B00221A611E4B0C225A6105
:100640001C4B00229A611B4B0022DA61194B0022DD
:100650001A62184B00229A621649002001F0F6FF38
:10066000164805F095FF00F033F80346002B02D042
:10067000134805F08DFF00F069F80346002B02D007
:10068000104805F085FF00F0BFF80346002B05D0A9
:100690000D4805F07DFF00F014FA05E00B4805F069
:1006A00077FF002001F0BCFF4FF47A7002F0B6F83B
:1006B000FAE700BF1C1400200038014084780008CD
:1006C000AC780008D0780008F078000810790008AD
:1006D000B0B586B004AF01F043FE0346002B23D132
:1006E000164805F055FF3B46184601F087FE0346C5
:1006F000002B13D13B7818467B781C46BB781D46EF
:10070000FB783A7979790291019200932B4622463F
:1007100001460B4805F0B6FE00230AE0094805F043
:1007200037FF4FF0FF3304E0074805F031FF4FF08B
:10073000FF3318460837BD46B0BD00BF3C790008FE
:100740005879000888790008AC78000880B584B032
:1007500002AF00237B602449244805F093FE36E075
:1007600003222349204801F027FE0346002B21D114
:10077000204805F00DFF4FF4FA6002F04FF83B46B9
:10078000184601F051FE0346002B0DD13B78194667
:100790007B781A46BB781846FB78009303461648C8
:1007A00005F070FE00231AE0144805F0F1FE4FF04A
:1007B000FF3314E07B6801331946114805F062FEEF
:1007C0007B6801337B604FF47A7002F027F87B6816
:1007D000022BC5DD0B4805F0DBFE4FF0FF3318465A
:1007E0000837BD4680BD00BFA8790008B079000871
:1007F000D4790008E0790008007A00081C7A000823
:100800003C7A00086C7A000880B588B002AF0023FB
:10081000FB800023BB80714805F0BAFE704B1B784B
:1008200019466F4B5B781A466D4B9B7818466C4B9C
:10083000DB78009303466B4805F024FE50216A489C
:1008400005F020FE69496A4805F01CFE694805F07C
:100850009FFE0023019350230093614B664A0021C1
:10086000002001F0FDFD0346FB73FB7B002B07D04E
:10087000FB7B1946614805F005FE4FF0FF33A9E008
:100880005F4805F085FE5F4805F082FE574A5E49E5
:100890005E4805F095FE5D48FFF7B2FC03469AB24C
:1008A0003B1D42F2107100915849002001F02EFECC
:1008B0000346FB73FB7B002B0AD0FB7B1946544895
:1008C00005F0E0FD002001F005FE4FF0FF3381E070
:1008D000BB8819464F4805F0D5FD4F4805F058FE36
:1008E0004FF47A7001F09AFF4C4805F051FE002356
:1008F0007B6100233B610323BB6048E04FF400624F
:100900000021474805F0D6FC0023FB80BB1D41F2C7
:100910008832009240F2FF724149002001F018FE37
:100920000346FB733B69591CFA7BFB883D4805F085
:10093000A9FDFB7B002B12D1FB88002B0FD03A487E
:1009400005F026FE3649394805F09CFD384805F08B
:100950001FFEFB881A467B6913447B611BE0FB7B0F
:10096000052B06D13B6901331946324805F08AFD53
:1009700006E03B690133FA7B19462F4805F082FDFA
:100980003B6901333B614FF4FA7001F047FF3A696C
:10099000BB689A42B2DB7969284805F073FD2848A4
:1009A00005F0F6FD002001F095FD0346FB73FB7B8F
:1009B000002B05D0FB7B1946224805F063FD02E0C1
:1009C000214805F0E5FD7B69002B01DD002301E0F6
:1009D0004FF0FF3318461837BD4680BD9C7A00089B
:1009E00000000020C07A0008DC7A0008E87A0008DD
:1009F000EC7A0008F87A0008147B0008207B0008D5
:100A0000587B00087C7B00089C7B0008A00000202D
:100A1000E87B0008147C0008347C0008547C000843
:100A2000A00200206C7C00089C7C0008B47C0008BC
:100A3000B87C0008CC7C0008F07C0008187D000819
:100A4000387D0008547D00087C7D000880B596B094
:100A500000AF10233B600123BB6160233B62002396
:100A6000FB610223BB620123FB6201233B6328235A
:100A70007B6302233B640723BB630423FB633B4686
:100A8000184602F015FA0346002B01D000F019F8C1
:100A90000F237B640323BB640023FB6400233B65BB
:100AA00000237B6507F144030421184602F026FE6B
:100AB0000346002B01D000F004F800BF5837BD46B4
:100AC00080BD80B500AF002001F094FD4FF47A7036
:100AD00001F0A4FEFAE7000080B582B000AF7860B4
:100AE000391D4FF6FF730122034804F092FE7B6824
:100AF00018460837BD4680BD1C14002080B582B062
:100B000000AF0346FB80FB88022B01D101F018FCEB
:100B100000BF0837BD4680BD80B400AF00BFBD46F2
:100B20005DF8047B704780B400AFFEE780B400AF8F
:100B3000FEE780B400AFFEE780B400AFFEE780B40C
:100B400000AF00BFBD465DF8047B704780B400AFC6
:100B500000BFBD465DF8047B704780B400AF00BFA6
:100B6000BD465DF8047B704780B500AF01F036FEEE
:100B700000BF80BD80B500AF022002F061F900BF68
:100B800080BD80B500AF4FF4005002F059F900BFAE
:100B900080BD80B400AF01231846BD465DF8047BDC
:100BA000704780B582B000AF7860396005F032FBE5
:100BB000034616221A604FF0FF3318460837BD4629
:100BC00080BD80B582B000AF78604FF0FF317868AB
:100BD000FFF7E7FFFEE780B584B000AFF860B960CB
:100BE0007A60AFF300800346DAB2BB681A70012363
:100BF00018461037BD4680BD80B586B000AFF8609E
:100C0000B9607A6000237B6109E0BB685A1CBA6056
:100C10001B781846FFF760FF7B6901337B617A69B7
:100C20007B689A42F1DB7B6818461837BD4680BD69
:100C300080B483B000AF78604FF0FF3318460C37B4
:100C4000BD465DF8047B704780B483B000AF786028
:100C500039603B684FF400525A60002318460C3745
:100C6000BD465DF8047B704780B483B000AF786008
:100C7000012318460C37BD465DF8047B704780B4ED
:100C800085B000AFF860B9607A6000231846143769
:100C9000BD465DF8047B704780B584B000AF7860D6
:100CA000114B1B68002B02D10F4B104A1A600E4BE0
:100CB0001B68FB600C4B1A687B6813446A469342BE
:100CC00007D905F0A7FA03460C221A604FF0FF334C
:100CD00006E0054B1A687B681344034A1360FB68FF
:100CE00018461037BD4680BDA00A0020C014002061
:100CF00080B400AF174BD3F88830164A43F4700322
:100D0000C2F88830144B1B68134A43F00103136088
:100D1000114B00229A60104B1B680F4A23F0A85316
:100D200023F4102313600C4B4FF48052DA600A4B0B
:100D30001B68094A23F480231360074B00229A6141
:100D4000044B4FF000629A6000BFBD465DF8047B23
:100D5000704700BF00ED00E00010024080B483B097
:100D600000AF0346FB71FB792F2B06D9FB79392B9A
:100D700003D8FB79303BDBB214E0FB79602B06D95A
:100D8000FB79662B03D8FB79573BDBB20AE0FB7992
:100D9000402B06D9FB79462B03D8FB79373BDBB2D6
:100DA00000E0002318460C37BD465DF8047B704711
:100DB00080B584B000AF786039600023FB60002309
:100DC000FB7212E0FB681B01FB607B681B78184616
:100DD000FFF7C4FF03461A46FB681344FB607B68B9
:100DE00001337B60FB7A0133FB727B681B782F2B0E
:100DF00003D97B681B78392BE4D97B681B78602B7F
:100E000003D97B681B78662BDCD97B681B78402B69
:100E100003D97B681B78462BD4D93B68002B02D0C2
:100E20003B68FA7A1A70FB6818461037BD4680BDD9
:100E300080B485B000AF786039600023FB73002375
:100E4000BB730023BB607B681B782D2B19D101235A
:100E5000FB737B6801337B60BB7B0133BB7310E0AA
:100E6000BA6813469B0013445B001A467B681B78E4
:100E7000303B1344BB607B6801337B60BB7B013339
:100E8000BB737B681B782F2B03D97B681B78392BAE
:100E9000E6D93B68002B02D03B68BA7B1A70FB7B1B
:100EA000002B02D0BB685B4200E0BB6818461437D9
:100EB000BD465DF8047B704780B584B000AF7860B4
:100EC00039600023FB7319E00123BB737B681B7837
:100ED0003A2B0ED007F10E0319467868FFF768FF2A
:100EE0000146FB7B5A1CFA731A463B681344CAB28C
:100EF0001A70BB7B1A467B6813447B607B681B7847
:100F0000002BE1D100BF00BF1037BD4680BD80B5CA
:100F100084B000AF786039600023FB7319E00123CF
:100F2000BB737B681B782E2B0ED007F10E0319467E
:100F30007868FFF77DFF0146FB7B5A1CFA731A465F
:100F40003B681344CAB21A70BB7B1A467B681344D1
:100F50007B607B681B78002BE1D100BF00BF10379E
:100F6000BD4680BD80B584B000AF78603960002395
:100F7000FB723B6802333449184605F06BFBF8609E
:100F80005AE0FB7A5A1CFA72062B4FD801A252F88B
:100F900023F000BFB10F0008BF0F0008CF0F0008FB
:100FA000DF0F0008EF0F0008FF0F00081310000804
:100FB0007B682022F968184605F022FB37E07B6841
:100FC00020331822F968184605F01AFB2FE07B68D9
:100FD00038331022F968184605F012FB27E07B68C9
:100FE00048331022F968184605F00AFB1FE07B68B9
:100FF00058331022F968184605F002FB17E000216B
:10100000F868FFF715FF03461A467B68C3F8882087
:101010000DE00E49F86805F01DFBF8607B68683349
:101020002022F968184605F0EBFA00E000BF0649F7
:10103000002005F00FFBF860FB68002BA1D100BF7A
:1010400000BF1037BD4680BDC47D0008C87D0008C4
:1010500080B584B000AF786039600023FB737B6893
:1010600002335249184605F0F5FAB86095E0FB7B6B
:101070005A1CFA730B2B7FD801A252F823F000BF41
:10108000B1100008BF100008CF100008E3100008DE
:10109000F71000080B1100081911000827110008AB
:1010A00035110008431100085111000865110008AE
:1010B0003B682122B968184605F0A2FA5DE03B685A
:1010C00021332122B968184605F09AFA55E000212B
:1010D000B868FFF7ADFE0346DAB23B6883F84220FA
:1010E0004BE00021B868FFF7A3FE0346DAB23B6885
:1010F00083F8432041E00021B868FFF799FE0346DA
:10110000DAB23B6883F8472037E03B68483319463A
:10111000B868FFF7FCFE30E03B684C331946B8680E
:10112000FFF7F5FE29E03B6850331946B868FFF732
:10113000EEFE22E03B6854331946B868FFF7E7FE3D
:101140001BE03B6858331946B868FFF7E0FE14E02F
:101150000021B868FFF76CFE0346DAB23B6883F8FB
:1011600044200AE00021B868FFF762FE0346DAB2C5
:101170003B6883F8462000E000BF0C49002005F0E2
:1011800069FAB860BB68002B07D0BB68013B1B78CD
:101190002C2B02D1FB7B0133FB73BB68002B7FF44C
:1011A00066AF00BF00BF1037BD4680BDC47D0008DC
:1011B00080B483B000AF786039607B6802331B78FD
:1011C000312B0CBF01230023DBB21A463B681A7097
:1011D00000BF0C37BD465DF8047B704790B587B003
:1011E00000AFF860B9607A6000233B610023FB82A6
:1011F000FB68D3F82041B868FFF702F8034699B2BC
:10120000FB68D3F8F8381A46B868A04703463B6134
:101210003B69002B3EDDFB68D3F82431FA68D2F835
:10122000F8284FF4FA61786898470346FB82B7F9CB
:101230001630002B27DDB7F91630B3F5FA6F22DC34
:10124000B7F91630B3F5FA6F05D1B7F916309BB27E
:10125000013B9BB2FB82B7F916307A681344002237
:101260001A700F49786805F0DEF90346002B01D0AB
:10127000002310E00B49786805F0D5F90346002BF0
:1012800001D0052307E0B7F9163013F1040F01D19F
:10129000062300E0042318461C37BD4690BD00BF5E
:1012A000D87D0008E47D000880B586B000AFF86006
:1012B000B9607A607B800023FB820023BB8200231D
:1012C0007B82B868FEF79CFF03467B827B8A03F033
:1012D0000103002B01D0022353E0FB68D3F8203137
:1012E000FA68D2F8F828798AB868984703463B82AA
:1012F0003A8A7B8A9A4243D1FB68D3F82031FA6854
:10130000D2F8F8287988786898470346FB82B7F9BD
:1013100016207B889A4231D1FB68D3F82431FA68D1
:10132000D2F8F8280021386A98470346BB82B7F9FB
:101330001430002B19DDB7F914303A6A1344002237
:101340001A701249386A05F06EF90346002B01D075
:10135000002316E00E49386A05F065F90346002BB4
:1013600001D005230DE002230BE0B7F9143013F18F
:10137000040F01D1062304E0022302E0022300E06F
:10138000042318461837BD4680BD00BFD87D00082D
:10139000E47D000890B587B000AFF860B9607A606E
:1013A0007B80FB6803F594733B61FB68D3F82041B5
:1013B000B868FEF725FF034699B2FB68D3F8F83802
:1013C0001A46B868A0470346002B6FDDFB68D3F8C8
:1013D0002431FA68D2F8F828002138699847034682
:1013E0007B617B6913F1040F01D106235FE03B6948
:1013F0001B780D2B04D13B6901331B780A2B01D0DC
:10140000042354E07B69023B7B613B6902333B610F
:101410007B69072B4AD902E07B69013B7B617B69D1
:10142000002B06D07B69013B3A6913441B78152BCE
:10143000F2D07B693A69134400221A707B69083B39
:101440003A6913441C49184605F0EDF80346002B91
:1014500016D07B699BB2083B9AB2BB6A1A80BB6A02
:101460001B887A889A4202D2BB6A7A881A80BB6A41
:101470001B881A463969786804F00EFF002316E0CD
:101480007B69043B3A69134404220C49184604F072
:10149000F3FE0346002B04D1BB6A00221A80052309
:1014A00005E0BB6A00221A80052300E004231846E9
:1014B0001C37BD4690BD00BFD87D0008EC7D0008FC
:1014C00080B584B000AF78600223FB737B6847F27D
:1014D0003052C3F8F8287B68D3F8143100209847BD
:1014E0000346002B13D17B6803F594731A460A490F
:1014F0007868FFF773FE0346FB73FB7B002B06D176
:101500007B6803F5947319467868FFF72BFDFB7B26
:1015100018461037BD4680BDF47D000880B485B004
:1015200000AFF860B9607A603B60FB68002B0BD0BD
:10153000BB68002B08D07B68002B05D0BB69002B53
:1015400002D0FB69002B01D1022314E0FB68BA68CA
:10155000C3F81421FB687A68C3F81821FB68BA69DC
:10156000C3F82021FB68FA69C3F82421FB683A68B4
:10157000C3F81C21002318461437BD465DF8047BD0
:101580007047000080B586B000AFF860B9607A603F
:10159000FB70BB68002B02D07B68002B02D10223BA
:1015A000FB7562E0FB6803F59473BA68314918462D
:1015B00005F006F8FB6803F59471FB6803F5947376
:1015C0001A46F868FFF70AFE0346FB75FB7D002B01
:1015D0004BD1FB6803F594737A682749184604F0E9
:1015E000EFFFFB6803F59471FB6803F594731A46EB
:1015F000F868FFF7F3FD0346FB75FB7D002B34D144
:10160000FB68FA7883F88C20FB6803F59473FA780A
:101610001A49184604F0D4FFFB6803F59471FB687F
:1016200003F594731A46F868FFF7D8FD0346FB7577
:10163000FB7D002B19D1FB6803F594731049184604
:1016400004F0BEFFFB6803F59471FB6803F5947327
:101650001A46F868FFF7C2FD0346FB75FB7D002BB9
:1016600003D1FB68012283F8D220FB7D184618378E
:10167000BD4680BD0C7E0008147E00081C7E00085C
:10168000247E000880B584B000AF78607B6803F5E5
:1016900094731149184604F093FF7B6803F5947125
:1016A0007B6803F594731A467868FFF797FD034645
:1016B000FB73FB7B002B08D17B6803F594727B687E
:1016C000D23319461046FFF773FD7B6893F8D2308A
:1016D00018461037BD4680BD287E000880B584B00E
:1016E00000AF78607B6803F594731049184604F0E6
:1016F00067FF7B6803F594717B6803F594731A4662
:101700007868FFF76BFD0346FB73FB7B002B08D16A
:101710007B6803F594727B688D3319461046FFF79A
:1017200097FCFB7B18461037BD4680BD307E000815
:1017300080B584B000AF786039607B6803F594733E
:101740001249184604F03CFF7B6803F594717B68EE
:1017500003F594731A467868FFF740FD0346FB7360
:10176000FB7B002B0CD17B6803F594730233084993
:10177000184604F06FFFB8603968B868FFF79CFB43
:10178000FB7B18461037BD4680BD00BF807E000839
:10179000847E000890B587B002AF7860396000237E
:1017A000FB733B681B78002B03D03B681B78032B33
:1017B00005D13B689B88002B01D10223DDE07B68CB
:1017C00003F594703B689B781A466E4904F0F8FE66
:1017D0007B6803F594717B6803F594731A46786807
:1017E000FFF7FCFC0346FB73FB7B002B14D17B68EB
:1017F00003F594703B681B781A46634904F0E0FED9
:101800007B6803F594717B6803F594731A467868D6
:10181000FFF7E4FC0346FB73FB7B002B14D17B68D2
:1018200003F594703B68DB881A46584904F0C8FEFB
:101830007B6803F594717B6803F594731A467868A6
:10184000FFF7CCFC0346FB73FB7B002B1CD13B68F2
:101850001B78002B03D03B681B78032B14D17B68CB
:1018600003F594703B689B881A46494904F0A8FE2A
:101870007B6803F594717B6803F594731A46786866
:10188000FFF7ACFC0346FB73FB7B002B28D13B68C6
:101890001B78002B03D03B681B78032B20D17B687F
:1018A00003F594703B681B7A19463B685B7A1C46CB
:1018B0003B689B7A1A463B68DB7A01930092234689
:1018C0000A46344904F07CFE7B6803F594717B681A
:1018D00003F594731A467868FFF780FC0346FB73A0
:1018E000FB7B002B18D13B681B78032B14D17B6842
:1018F00003F594703B685B781A46274904F060FE54
:101900007B6803F594717B6803F594731A467868D5
:10191000FFF764FC0346FB73FB7B002B16D13B688F
:101920001B78032B12D17B6803F594731B4918466F
:1019300004F046FE7B6803F594717B6803F59473AD
:101940001A467868FFF74AFC0346FB73FB7B002BC3
:1019500012D17B6803F594731149184604F030FEE8
:101960007B6803F594717B6803F594731A46786875
:10197000FFF734FC0346FB73FB7B18461437BD4668
:1019800090BD00BFE87E0008F07E0008F87E0008E9
:10199000007F0008087F0008187F0008207F0008EB
:1019A000287F000880B584B000AF786039607B681C
:1019B00003F594703B689B781A46154904F000FEC5
:1019C0007B6803F594717B6803F594731A46786815
:1019D000FFF704FC0346FB73FB7B002B12D17B68F3
:1019E00003F594730B49184604F0EAFD7B6803F590
:1019F00094717B6803F594731A467868FFF7EEFBE1
:101A00000346FB73FB7B18461037BD4680BD00BF05
:101A1000E87E0008307F000880B588B002AFF8602B
:101A20007A601A460B46FB7213463B810223FB7415
:101A30007B6A002B02D101237B6101E07B6A7B6121
:101A40003B89B3F5966F02D34FF496633B813B6AB3
:101A50003A891A80FB6803F59473FA7A2D4918467F
:101A600004F0AEFDFB6803F59471FB6803F5947315
:101A70001A46F868FFF7B2FB0346FB74FB7C002BA9
:101A80003CD1FB6803F594737A692349184604F046
:101A900097FDFB6803F59471FB6803F594731A4690
:101AA000F868FFF79BFB0346FB74FB7C002B25D1FA
:101AB000FB6803F594733A891849184604F080FDD1
:101AC000FB6803F59471FB6803F594733A890093FE
:101AD00013467A68F868FFF7E7FB0346FB74FB7C64
:101AE000002B0BD1FB6803F594730D49184604F0E5
:101AF0009AFD0346002B01D00223FB74FB7C022BD2
:101B000002D13B6A00221A80FB7C18461837BD467A
:101B100080BD00BFE87E0008CC7F0008D47F0008AD
:101B2000E07F000880B588B002AFF8607A601A469E
:101B30000B46FB7213463B810223FB747B6A002B2E
:101B400002D101237B6101E07B6A7B613B89B3F5B4
:101B5000966F62D8FB6803F59473FA7A3149184698
:101B600004F02EFDFB6803F59471FB6803F5947394
:101B70001A46F868FFF732FB0346FB74FB7C002B28
:101B800046D1FB6803F594733A892749184604F057
:101B900017FDFB6803F59471FB6803F594731A460F
:101BA000F868FFF71BFB0346FB74FB7C002B2BD173
:101BB000FB6803F594737A691C49184604F000FD2C
:101BC000FB6803F59471FB6803F594731A46F86893
:101BD000FFF704FB0346FB74FB7C002B1DD1FB6865
:101BE00003F594731249184604F0EAFCFB6803F508
:101BF00094713A893B6A009313467A68F868FFF754
:101C0000C9FB0346FB7408E03B6A00221A8004E02B
:101C1000084B1B680133074A1360FB7C18461837D2
:101C2000BD4680BDE87E0008E87F0008F07F000820
:101C3000F87F0008A40A002080B58CB000AF78605F
:101C4000564B9B6D554A43F400439365534B9B6D34
:101C500003F40043BB61BB69504BDB6C4F4A43F05C
:101C60000203D3644D4BDB6C03F002037B617B69A1
:101C70004A4BDB6C494A43F00403D364474BDB6CAB
:101C800003F004033B613B69444BDB6C434A43F084
:101C90001003D364414BDB6C03F01003FB60FB6863
:101CA00000224FF400513E4801F098F84FF40053E1
:101CB000FB6101233B6200237B620023BB6207F1CF
:101CC0001C031946364800F0DFFE0223FB61354B4A
:101CD0003B6200237B620023BB6207F11C031946B1
:101CE000314800F0D1FE4FF48073FB6101233B6269
:101CF00000237B620023BB620023FB6207F11C030D
:101D00001946294800F0C0FE01220121264801F0B1
:101D100065F80123FB6101233B6200237B62012301
:101D2000BB6207F11C0319461F4800F0ADFE4FF4DB
:101D30008063FB6102233B6200237B620123BB6261
:101D40000623FB6207F11C031946184800F09CFEAD
:101D50004FF48053FB6102233B6200237B6201232B
:101D6000BB620623FB6207F11C0319460F4800F013
:101D70008BFE4FF40063FB6102233B6201237B6215
:101D80000123BB620623FB6207F11C0319460748C7
:101D900000F07AFE00BF3037BD4680BD0010024023
:101DA000000400480000111000100048000800481E
:101DB00080B584B000AF0346FB800023FB73FB8833
:101DC000002B45D1274B284A1A602648FFF734FFDD
:101DD000244B4FF482725A60224B00229A60214BAE
:101DE0004FF47062DA601F4B00221A611D4B002213
:101DF0005A611C4B4FF400729A611A4B1022DA613F
:101E0000184B00221A62174B00225A62154B00220F
:101E10009A62144B0022DA62124801F021FF034655
:101E2000002B02D04FF0FF3318E0002200210720E2
:101E300000F0F3FD072000F00CFE0022002133200B
:101E400000F0EBFD332000F004FE0A2000F0FEF964
:101E500000F00CF80346FB7397F90F301846103763
:101E6000BD4680BDA80A0020003C004080B584B07B
:101E700000AF00F0C7FCB8600023FB7300224FF4F2
:101E80008071304800F0AAFF0A2000F0C7FC012250
:101E90004FF480712B4800F0A1FF4FF4FA7000F06E
:101EA000BDFC00220121274800F098FF0F2000F020
:101EB000CDF920E0FB7B3A46D1184FF6FF730122A3
:101EC000214801F0D5FF0346FB71FB7B0233FB7316
:101ED00000F098FC0246BB68D31AB3F5803F02D2EB
:101EE000FB79002B07D001220121164800F076FF74
:101EF0004FF0FF3321E00221124800F057FF034664
:101F0000012BD7D0012201210E4800F067FF3B785A
:101F1000152B0ED17B78152B0BD1BB780D2B08D14F
:101F2000FB780A2B05D13B793E2B02D17B79202B04
:101F300002D04FF0FF3300E0002318461037BD46B3
:101F400080BD00BF00100048A80A002080B500AF87
:101F5000024801F051FF0023184680BDA80A002066
:101F600080B584B000AF786000F04CFC0346FB60A5
:101F70000AE000F047FC0246FB68D21A7B689A42EE
:101F800002D94FF0FF3307E00221054800F00EFFB1
:101F90000346012BEDD1002318461037BD4680BD06
:101FA0000010004880B584B000AF786000F02AFCD3
:101FB0000346FB600AE000F025FC0246FB68D21AEB
:101FC0007B689A4202D94FF0FF3304E0044B1B6850
:101FD000012BF0D0002318461037BD4680BD00BF4E
:101FE000140B002080B584B000AF786000F00AFCCC
:101FF0000346FB600AE000F005FC0246FB68D21ACB
:102000007B689A4202D94FF0FF3304E0044B1B680F
:10201000012BF0D0002318461037BD4680BD00BF0D
:102020000C0B002080B584B000AF786000F0EAFBB4
:102030000346FB600AE000F0E5FB0246FB68D21AAB
:102040007B689A4202D94FF0FF3304E0044B1B68CF
:10205000012BF0D0002318461037BD4680BD00BFCD
:10206000100B002080B586B000AFF8600B467A6098
:102070007B810023FB8201220121344800F0AEFE67
:10208000032000F0E3F87B681846FFF78BFF034658
:10209000002B02DA6FF0020354E0002201212B48EA
:1020A00000F09CFE0F2000F0D1F83DE0B7F91620BB
:1020B0007B899A4202DB7B89002B3CD1244B012295
:1020C0001A6007F1140301221946224802F032FC7B
:1020D0000346002B07D0012201211C4800F07EFEA0
:1020E0004FF0FF332EE07B681846FFF77BFF3A7D09
:1020F000FB681A70FB6801337A7D1A70FB8A023321
:102100009BB2FB82FB680233FB60B7F91630B3F574
:10211000FA6F09DB012201210C4800F05FFEFFF796
:10212000A5FE6FF003030DE00221084800F03EFE1B
:102130000346012BBAD001220121044800F04EFED3
:10214000B7F9163018461837BD4680BD0010004854
:102150000C0B0020A80A002080B586B000AFF86004
:102160000B467A607B817B681846FFF7F9FE0346D1
:10217000002B02DA4FF0FF334FE02A4B01221A60A6
:1021800000220121284800F029FE0F2000F05EF80F
:102190007B89012B19D9254B01221A607B895B08A9
:1021A0009BB21A46F968224802F022FB0346002B34
:1021B00007D0012201211C4800F010FE4FF0FF3330
:1021C0002BE07B681846FFF72DFF7B8903F00103A6
:1021D000002B20D07B89013BFA6813441B783B75A8
:1021E0000A237B75114B01221A6007F114030122A7
:1021F00019460F4802F0FCFA0346002B07D00122D3
:102200000121094800F0EAFD4FF0FF3305E07B684B
:102210001846FFF707FFB7F90A3018461837BD46CA
:1022200080BD00BF140B002000100048100B0020E0
:10223000A80A002080B582B000AF7860786800F00E
:10224000EDFA00BF0837BD4680BD000080B586B0FE
:1022500000AF78600023BB6000237B61204B1B68CC
:10226000002B22D11F4B1B681F4AA2FB03239B0993
:102270003B610023FB603B69BB6000F0C3FAF86080
:1022800002E0BB68013BBB60BB68002BF9D100F0EA
:10229000B9FA0246FB68D31A114A1360104B1B6847
:1022A000002B02D10E4B01221A600E4B1B680F4A05
:1022B000A2FB03239A0C0A4B1B68B2FBF3F37B616E
:1022C0007B687A6902FB03F3BB6002E0BB68013BF9
:1022D000BB60BB68002BF9D100BF1837BD4680BD7D
:1022E000180B002004000020D34D621083DE1B4336
:1022F00080B483B000AF7860064B1B68002B02D01F
:10230000044B00221A6000BF0C37BD465DF8047B09
:10231000704700BF0C0B002080B483B000AF786022
:10232000064B1B68002B02D0044B00221A6000BF32
:102330000C37BD465DF8047B704700BF100B0020D2
:1023400080B400AF054B1B68012B02D1034B002268
:102350001A6000BFBD465DF8047B7047140B002077
:1023600080B584B002AF0123FB710D4B01930D4B7F
:1023700000930D4B0D4A0E490E48FFF7CFF8034668
:10238000002B07D10B48FFF79BF80346002B01D128
:102390000023FB71FB7918460837BD4680BD00BF9E
:1023A0006520000859210008352200084D1F00084B
:1023B000B11D00081C0B002080B586B000AFF8608E
:1023C000B9601346FB710123FB75FB79BA68F968A4
:1023D0000948FFF7D7F80346002B07D10648FFF757
:1023E0007DF90346002B01D10023FB75FB7D1846C8
:1023F0001837BD4680BD00BF1C0B002080B584B0DF
:1024000000AF78600123FB7379680648FFF790F905
:102410000346002B01D10023FB73FB7B18461037CA
:10242000BD4680BD1C0B002080B584B000AF786035
:102430000123FB730948FFF725F90346012B07D158
:10244000064BD3F8D5301A467B681A600023FB731D
:10245000FB7B18461037BD4680BD00BF1C0B00201B
:1024600080B58AB000AFF8607A603B600B46FB72C3
:10247000012387F82730FB68DBB2BB743B8EBB823D
:10248000BB8EFB82FB7A002B14BF01230023DBB23F
:102490003B743B681B783B763B685B787B763B689C
:1024A0009B78BB763B68DB78FB7607F11003194617
:1024B0000748FFF76FF90346002B02D1002387F886
:1024C000273097F8273018462837BD4680BD00BF13
:1024D0001C0B002080B588B000AF78600123FB772B
:1024E0007B68DBB2BB7207F1080319460648FFF7A9
:1024F00059FA0346002B01D10023FB77FB7F1846D6
:102500002037BD4680BD00BF1C0B002080B588B0C1
:1025100002AFB9607B600346FB731346BB810123A6
:10252000FB75BA89F97B3B6A01937B68009313467C
:10253000BA680648FFF770FA0346002B01D1002362
:10254000FB75FB7D18461837BD4680BD1C0B00206F
:1025500080B588B002AFB9607B600346FB73134659
:10256000BB810123FB75BA89F97B3B6A01937B68C8
:1025700000931346BA680648FFF7D4FA0346002BC7
:1025800001D10023FB75FB7D18461837BD4680BD81
:102590001C0B002080B588B000AF0346FB71FB79AF
:1025A000002B0BD1114BDB6C104A43F00203D364B8
:1025B0000E4BDB6C03F00203BB60BB684FF480433F
:1025C000FB6001233B6100237B610223BB61FB793C
:1025D000074A52F8233007F10C021146184600F062
:1025E00053FA00BF2037BD4680BD00BF0010024037
:1025F0000800002080B582B000AF0346FB71FB7974
:10260000064A52F823304FF4804291B20122184614
:1026100000F0E4FB00BF0837BD4680BD0800002085
:1026200080B582B000AF0346FB71FB79064A52F8D1
:1026300023304FF4804292B21146184600F0E6FB78
:1026400000BF0837BD4680BD0800002080B58AB0B5
:1026500000AF03463960FB71FB79002B0BD12D4B8A
:10266000DB6C2C4A43F00203D3642A4BDB6C03F08F
:1026700002033B613B69FB79002B0BD1254BDB6CE3
:10268000244A43F00203D364224BDB6C03F00203C1
:10269000FB60FB68FB79002B0BD11E4B1B6E1D4AA8
:1026A00043F4804313661B4B1B6E03F48043BB60F3
:1026B000BB6840237B610223BB6102233B62002392
:1026C000FB6107237B62FB79134A52F8233007F141
:1026D00014021146184600F0D7F980237B610223CB
:1026E000BB6107237B62FB790C4A52F8233007F168
:1026F00014021146184600F0C7F9FB79084A52F84F
:1027000023203B681A60386803F029F800BF283797
:10271000BD4680BD001002401000002014000020C3
:102720000C00002080B582B000AF0023FB710320B5
:1027300000F068F90F2000F015F80346002B02D0D6
:102740000123FB7101E000F005F8FB79184608371A
:10275000BD4680BD80B400AF00BFBD465DF8047BC0
:102760007047000080B584B000AF78600023FB7331
:10277000174B1B78002B23D0164B1A68144B1B7871
:1027800019464FF47A73B3FBF1F3B2FBF3F3184637
:1027900000F06DF90346002B0FD17B680F2B09D891
:1027A000002279684FF0FF3000F037F90A4A7B6861
:1027B000136007E00123FB7304E00123FB7301E0D6
:1027C0000123FB73FB7B18461037BD4680BD00BF5D
:1027D0001C000020040000201800002080B400AF7E
:1027E000064B1B781A46064B1B681344044A1360B9
:1027F00000BFBD465DF8047B704700BF1C00002091
:10280000AC14002080B400AF034B1B681846BD46D3
:102810005DF8047B704700BFAC14002080B584B025
:1028200000AF7860FFF7EEFFB8607B68FB60FB6885
:10283000B3F1FF3F05D00A4B1B781A46FB681344DF
:10284000FB6000BFFFF7DEFF0246BB68D31AFA68E1
:102850009A42F7D800BF00BF1037BD4680BD00BF09
:102860001C00002080B485B000AF78607B6803F066
:102870000703FB600C4BDB68BB60BA684FF6FF03D5
:102880001340BB60FB681A02BB68134343F0BF638D
:1028900043F40033BB60044ABB68D36000BF143705
:1028A000BD465DF8047B704700ED00E080B400AFEA
:1028B000044BDB681B0A03F007031846BD465DF8AE
:1028C000047B704700ED00E080B483B000AF0346A6
:1028D000FB7197F90730002B0BDBFB7903F01F022C
:1028E000074997F907305B09012000FA02F241F825
:1028F000232000BF0C37BD465DF8047B704700BF46
:1029000000E100E080B483B000AF03463960FB71A2
:1029100097F90730002B0ADB3B68DAB20C4997F9CC
:1029200007301201D2B20B4483F800230AE03B685F
:10293000DAB20849FB7903F00F03043B1201D2B26B
:102940000B441A7600BF0C37BD465DF8047B704718
:1029500000E100E000ED00E080B489B000AFF86075
:10296000B9607A60FB6803F00703FB61FB69C3F1A0
:102970000703042B28BF0423BB61FB690433062B28
:1029800002D9FB69033B00E000237B614FF0FF327B
:10299000BB6902FA03F3DA43BB681A407B699A40C9
:1029A0004FF0FF317B6901FA03F3D9437B680B4099
:1029B000134318462437BD465DF8047B704700007A
:1029C00080B582B000AF78607B68013BB3F1807F57
:1029D00001D301230FE00A4A7B68013B53600F21BA
:1029E0004FF0FF30FFF78EFF054B00229A60044B3B
:1029F00007221A60002318460837BD4680BD00BF75
:102A000010E000E080B582B000AF78607868FFF732
:102A100029FF00BF0837BD4680BD80B586B000AF36
:102A20000346B9607A60FB7300237B61FFF73EFFCA
:102A300078617A68B9687869FFF78EFF024697F97E
:102A40000F3011461846FFF75DFF00BF1837BD462F
:102A500080BD80B582B000AF0346FB7197F90730A7
:102A60001846FFF731FF00BF0837BD4680BD80B56F
:102A700082B000AF78607868FFF7A2FF034618467F
:102A80000837BD4680BD000080B487B000AF7860D5
:102A9000396000237B6166E13B681A6801217B692C
:102AA00001FA03F31340FB60FB68002B00F0588130
:102AB0003B685B68012B0BD03B685B68022B07D03F
:102AC0003B685B68112B03D03B685B68122B30D1ED
:102AD0007B689B683B617B695B00032202FA03F31E
:102AE000DB433A6913403B613B68DA687B695B0012
:102AF00002FA03F33A6913433B617B683A699A60CF
:102B00007B685B683B6101227B6902FA03F3DB436C
:102B10003A6913403B613B685B681B0903F00102A3
:102B20007B6902FA03F33A6913433B617B683A69B4
:102B30005A607B68DB683B617B695B00032202FAB9
:102B400003F3DB433A6913403B613B689A687B6956
:102B50005B0002FA03F33A6913433B617B683A690D
:102B6000DA603B685B68022B03D03B685B68122B22
:102B700023D17B69DA087B68083253F822303B6145
:102B80007B6903F007039B000F2202FA03F3DB4388
:102B90003A6913403B613B681A697B6903F007039C
:102BA0009B0002FA03F33A6913433B617B69DA083D
:102BB0007B680832396943F822107B681B683B61E7
:102BC0007B695B00032202FA03F3DB433A6913409B
:102BD0003B613B685B6803F003027B695B0002FAC0
:102BE00003F33A6913433B617B683A691A603B68B7
:102BF0005B6803F08053002B00F0B280614B1B6ECA
:102C0000604A43F0010313665E4B1B6E03F0010341
:102C1000BB60BB685C4A7B699B08023352F8233077
:102C20003B617B6903F003039B000F2202FA03F36D
:102C3000DB433A6913403B617B68B3F1904F2BD083
:102C40007B68524A934225D07B68514A93421FD0F9
:102C50007B68504A934219D07B684F4A934213D005
:102C60007B684E4A93420DD07B684D4A934207D011
:102C70007B684C4A934201D107230EE008230CE005
:102C800006230AE0052308E0042306E0032304E00A
:102C9000022302E0012300E000237A6902F003022C
:102CA000920093403A6913433B6137497B699B0823
:102CB00002333A6941F823203B4B1B683B61FB68B8
:102CC000DB433A6913403B613B685B6803F4803344
:102CD000002B03D03A69FB6813433B61324A3B69DE
:102CE0001360314B5B683B61FB68DB433A6913401F
:102CF0003B613B685B6803F40033002B03D03A6907
:102D0000FB6813433B61284A3B695360264B9B6831
:102D10003B61FB68DB433A6913403B613B685B689E
:102D200003F48013002B03D03A69FB6813433B6123
:102D30001D4A3B6993601C4BDB683B61FB68DB43CE
:102D40003A6913403B613B685B6803F40013002B56
:102D500003D03A69FB6813433B61134A3B69D36074
:102D60007B6901337B613B681A687B6922FA03F354
:102D7000002B7FF491AE00BF00BF1C37BD465DF84D
:102D8000047B70470010024000000140000400482E
:102D900000080048000C00480010004800140048DB
:102DA00000180048001C00480004014080B485B0B1
:102DB00000AF78600B467B807B681A697B88134084
:102DC000002B02D00123FB7301E00023FB73FB7B8C
:102DD00018461437BD465DF8047B704780B483B055
:102DE00000AF78600B467B8013467B707B78002BAE
:102DF00003D07A887B689A6102E07A887B689A625D
:102E000000BF0C37BD465DF8047B704780B485B0C9
:102E100000AF78600B467B807B685B69FB607A88DB
:102E2000FB6813401A04FB68D9437B880B401A43A4
:102E30007B689A6100BF1437BD465DF8047B70471C
:102E400080B582B000AF0346FB80084B5A69FB880F
:102E50001340002B06D0054AFB885361FB881846B7
:102E6000FDF74CFE00BF0837BD4680BD00040140A1
:102E700080B400AF0D4B1B6803F4C063B3F5806FE3
:102E800002D14FF480630BE0084BD3F8803003F499
:102E90008073B3F5807F02D14FF4007300E000230C
:102EA0001846BD465DF8047B704700BF00700040C7
:102EB00080B588B000AF78607B68002B02D1012319
:102EC00000F016BC964B9B6803F00C03BB61944B5F
:102ED000DB6803F003037B617B681B6803F010036E
:102EE000002B00F0E480BB69002B07D0BB690C2BE2
:102EF00040F08B807B69012B40F08780884B1B68FA
:102F000003F00203002B05D07B689B69002B01D1E5
:102F10000123EDE37B681A6A814B1B6803F0080309
:102F2000002B04D07E4B1B6803F0F00305E07C4BC4
:102F3000D3F894301B0903F0F003934223D27B684B
:102F40001B6A184600F0CAFD0346002B01D001237E
:102F5000CEE3734B1B68724A43F008031360704B57
:102F60001B6823F0F0027B681B6A6D4913430B60FA
:102F70006B4B5B6823F47F427B68DB691B0268490B
:102F800013434B6025E0664B1B68654A43F008031A
:102F90001360634B1B6823F0F0027B681B6A604977
:102FA00013430B605E4B5B6823F47F427B68DB69F5
:102FB0001B025B4913434B60BB69002B09D17B6843
:102FC0001B6A184600F08AFD0346002B01D001233E
:102FD0008EE300F0BFFC0246514B9B681B0903F0D7
:102FE0000F035049CB5C03F01F0322FA03F34E4A50
:102FF00013604E4B1B681846FFF7B4FB0346FB7388
:10300000FB7B002B52D0FB7B72E37B689B69002B20
:1030100032D0434B1B68424A43F001031360FFF771
:10302000F1FB386108E0FFF7EDFB02463B69D31A7C
:10303000022B01D903235BE3394B1B6803F0020326
:10304000002BF0D0364B1B68354A43F00803136061
:10305000334B1B6823F0F0027B681B6A3049134333
:103060000B602F4B5B6823F47F427B68DB691B029C
:103070002B4913434B601AE0294B1B68284A23F065
:1030800001031360FFF7BEFB386108E0FFF7BAFBEE
:1030900002463B69D31A022B01D9032328E3204BB4
:1030A0001B6803F00203002BF0D100E000BF7B6837
:1030B0001B6803F00103002B73D0BB69082B05D0FC
:1030C000BB690C2B0ED17B69032B0BD1144B1B68F6
:1030D00003F40033002B63D07B685B68002B5FD167
:1030E000012305E37B685B68B3F5803F06D10C4B99
:1030F0001B680B4A43F48033136025E07B685B68F0
:10310000B3F5A02F14D1064B1B68054A43F4802366
:103110001360034B1B68024A43F48033136013E0CF
:103120000010024038800008040000201800002031
:10313000A04B1B689F4A23F4803313609D4B1B6890
:103140009C4A23F4802313607B685B68002B13D0B8
:10315000FFF758FB386108E0FFF754FB02463B6974
:10316000D31A642B01D90323C2E2924B1B6803F4E8
:103170000033002BF0D014E0FFF744FB386108E087
:10318000FFF740FB02463B69D31A642B01D90323A6
:10319000AEE2884B1B6803F40033002BF0D100E053
:1031A00000BF7B681B6803F00203002B60D0BB6983
:1031B000042B05D0BB690C2B19D17B69022B16D1CE
:1031C0007C4B1B6803F48063002B05D07B68DB68B5
:1031D000002B01D101238BE2764B5B6823F0FE428A
:1031E0007B681B691B06734913434B6040E07B6897
:1031F000DB68002B23D06F4B1B686E4A43F480734F
:103200001360FFF7FFFA386108E0FFF7FBFA0246A8
:103210003B69D31A022B01D9032369E2654B1B6872
:1032200003F48063002BF0D0624B5B6823F0FE4216
:103230007B681B691B065F4913434B6018E05D4BBD
:103240001B685C4A23F480731360FFF7DBFA386174
:1032500008E0FFF7D7FA02463B69D31A022B01D9DF
:10326000032345E2534B1B6803F48063002BF0D12A
:103270007B681B6803F00803002B3CD07B685B690C
:10328000002B1CD04B4BD3F894304A4A43F0010337
:10329000C2F89430FFF7B6FA386108E0FFF7B2FAE7
:1032A00002463B69D31A022B01D9032320E2414B8A
:1032B000D3F8943003F00203002BEFD01BE03D4B1A
:1032C000D3F894303B4A23F00103C2F89430FFF75F
:1032D00099FA386108E0FFF795FA02463B69D31A7C
:1032E000022B01D9032303E2324BD3F8943003F0CD
:1032F0000203002BEFD17B681B6803F00403002B53
:1033000000F0A6800023FB772A4B9B6D03F08053CF
:10331000002B0DD1274B9B6D264A43F080539365BC
:10332000244B9B6D03F08053BB60BB680123FB778C
:10333000214B1B6803F48073002B18D11E4B1B68B4
:103340001D4A43F480731360FFF75CFA386108E0AC
:10335000FFF758FA02463B69D31A022B01D903231F
:10336000C6E1154B1B6803F48073002BF0D07B681B
:103370009B68012B08D10F4BD3F890300D4A43F0D6
:103380000103C2F8903029E07B689B68052B15D1BA
:10339000084BD3F89030074A43F00403C2F890304A
:1033A000044BD3F89030034A43F00103C2F8903045
:1033B00014E000BF00100240007000409D4BD3F8A5
:1033C00090309C4A23F00103C2F89030994BD3F817
:1033D0009030984A23F00403C2F890307B689B68D1
:1033E000002B16D0FFF70EFA38610AE0FFF70AFA51
:1033F00002463B69D31A41F28832934201D9032332
:1034000076E18C4BD3F8903003F00203002BEDD023
:1034100015E0FFF7F7F938610AE0FFF7F3F9024624
:103420003B69D31A41F28832934201D903235FE109
:10343000804BD3F8903003F00203002BEDD1FB7FDB
:10344000012B05D17B4B9B6D7A4A23F0805393650A
:103450007B681B6803F02003002B3CD07B685B6A11
:10346000002B1CD0734BD3F89830724A43F0010301
:10347000C2F89830FFF7C6F9386108E0FFF7C2F9E3
:1034800002463B69D31A022B01D9032330E1694B71
:10349000D3F8983003F00203002BEFD01BE0654B0C
:1034A000D3F89830634A23F00103C2F89830FFF74D
:1034B000A9F9386108E0FFF7A5F902463B69D31A7C
:1034C000022B01D9032313E15A4BD3F8983003F0B0
:1034D0000203002BEFD17B689B6A002B00F0078171
:1034E0007B689B6A022B40F0CF80524BDB687B618C
:1034F0007B6903F003027B68DB6A9A422CD17B690B
:1035000003F0F0027B681B6B013B1B019A4223D145
:103510007B6903F4FE427B685B6B1B029A421BD102
:103520007B6903F078427B689B6BDB069A4213D180
:103530007B6903F4C0027B68DB6B5B08013B5B05C6
:103540009A4209D17B6903F0C0627B681B6C5B08FF
:10355000013B5B069A4271D0BB690C2B68D0354B9E
:103560001B6803F08063002B05D1324B1B6803F00E
:103570008053002B01D00123BAE02E4B1B682D4A4B
:1035800023F080731360FFF73DF9386108E0FFF71F
:1035900039F902463B69D31A022B01D90323A7E06C
:1035A000244B1B6803F00073002BF0D1214BDA6829
:1035B000214B13407A68D16A7A68126B013A120182
:1035C00011437A68526B120211437A68D26B520827
:1035D000013A520511437A68126C5208013A5206B8
:1035E00011437A68926BD2060A4312491343CB60A7
:1035F000104B1B680F4A43F0807313600D4BDB6860
:103600000C4A43F08073D360FFF7FCF8386108E0A0
:10361000FFF7F8F802463B69D31A022B01D90323BE
:1036200066E0044B1B6803F00073002BF0D05EE0F3
:1036300001235DE0001002400C809D012E4B1B68B1
:1036400003F00073002B52D12B4B1B682A4A43F026
:1036500080731360284BDB68274A43F08073D36084
:10366000FFF7D0F8386108E0FFF7CCF802463B6975
:10367000D31A022B01D903233AE01F4B1B6803F036
:103680000073002BF0D032E0BB690C2B2DD01A4B0D
:103690001B68194A23F080731360174B1B6803F0F3
:1036A0002053002B05D1144BDB68134A23F003038E
:1036B000D360114BDB68104A23F0887323F4803306
:1036C000D360FFF79FF8386108E0FFF79BF80246E8
:1036D0003B69D31A022B01D9032309E0064B1B686F
:1036E00003F00073002BF0D101E0012300E0002380
:1036F00018462037BD4680BD0010024080B586B018
:1037000000AF7860396000237B617B68002B01D1BA
:1037100001230FE1894B1B6803F00F033A689A42BB
:1037200010D9864B1B6823F00F0284493B68134372
:103730000B60824B1B6803F00F033A689A4201D07A
:103740000123F7E07B681B6803F00103002B00F006
:1037500089807B685B68032B33D1794B1B6803F04E
:103760000073002B01D10123E4E000F011FA0346BD
:10377000744A934255D9724B9B6803F0F003002BB7
:103780000AD16F4B9B6823F0F0036D4A43F080032E
:10379000936080237B6144E07B681B6803F0020335
:1037A000002B3ED07B689B68002B3AD1644B9B6812
:1037B00023F0F003624A43F08003936080237B612F
:1037C0002FE07B685B68022B07D15D4B1B6803F41D
:1037D0000033002B15D10123ACE07B685B68002B24
:1037E00007D1574B1B6803F00203002B09D10123BB
:1037F000A0E0534B1B6803F48063002B01D101232D
:1038000098E000F0A7F803464E4A934209D94C4B82
:103810009B6823F0F0034A4A43F0800393608023BF
:103820007B61474B9B6823F003027B685B684449DC
:1038300013438B60FEF7E6FF38610AE0FEF7E2FF14
:1038400002463B69D31A41F28832934201D90323DD
:1038500070E03B4B9B6803F00C027B685B689B004D
:103860009A42EBD17B681B6803F00203002B09D05E
:10387000334B9B6823F0F0027B689B68304913430D
:103880008B6008E07B69802B05D12D4B9B682C4A0F
:1038900023F0F0039360294B1B6803F00F033A6891
:1038A0009A4210D2254B1B6823F00F0223493B6834
:1038B00013430B60214B1B6803F00F033A689A42D5
:1038C00001D0012336E07B681B6803F00403002B62
:1038D00008D01B4B9B6823F4E0627B68DB681849C7
:1038E00013438B607B681B6803F00803002B09D02F
:1038F000134B9B6823F460527B681B69DB00104903
:1039000013438B6000F026F802460D4B9B681B09A1
:1039100003F00F030C49CB5C03F01F0322FA03F3FF
:103920000A4A13600A4B1B681846FEF71BFF034642
:10393000FB73FB7B18461837BD4680BD0020024054
:103940000010024000B4C4043880000804000020C5
:103950001800002080B489B000AF0023FB61002371
:10396000BB613E4B9B6803F00C033B613B4BDB6848
:1039700003F00303FB603B69002B05D03B690C2B74
:1039800021D1FB68012B1ED1344B1B6803F00803C7
:10399000002B07D1314BD3F894301B0A03F00F03EF
:1039A000FB6105E02D4B1B681B0903F00F03FB6156
:1039B0002B4AFB6952F82330FB613B69002B0DD188
:1039C000FB69BB610AE03B69042B02D1254BBB615B
:1039D00004E03B69082B01D1234BBB613B690C2BF5
:1039E00034D11E4BDB6803F00303BB60BB68022BC2
:1039F00003D0BB68032B03D005E01A4B7B6105E0C5
:103A0000194B7B6102E0FB697B6100BF134BDB68F4
:103A10001B0903F00F0301337B60104BDB681B0AAB
:103A200003F07F037A6903FB02F27B68B2FBF3F3D6
:103A30007B610A4BDB685B0E03F0030301335B0021
:103A40003B607A693B68B2FBF3F3BB61BB69184624
:103A50002437BD465DF8047B704700BF001002406C
:103A6000508000080024F40000127A0080B400AFF7
:103A7000034B1B681846BD465DF8047B704700BFCA
:103A80000400002080B500AFFFF7F0FF0246064BB0
:103A90009B681B0A03F007030449CB5C03F01F0378
:103AA00022FA03F3184680BD001002404880000847
:103AB00080B500AFFFF7DAFF0246064B9B68DB0AD2
:103AC00003F007030449CB5C03F01F0322FA03F35E
:103AD000184680BD001002404880000880B586B0BE
:103AE00000AF786000233B61274B9B6D03F0805350
:103AF000002B03D0FFF7BCF9786114E0224B9B6DDB
:103B0000214A43F0805393651F4B9B6D03F0805314
:103B1000FB60FB68FFF7ACF978611B4B9B6D1A4AA1
:103B200023F0805393657B69B3F5007F0BD17B68ED
:103B3000802B13D97B68A02B02D902233B610DE0B7
:103B400001233B610AE07B687F2B02D902233B61A2
:103B500004E07B68702B01D101233B610B4B1B6898
:103B600023F00F0209493B6913430B60074B1B68A5
:103B700003F00F033A699A4201D0012300E00023C9
:103B800018461837BD4680BD001002400020024094
:103B900080B487B000AF00237B612D4BDB6803F05E
:103BA0000303012B18D12A4B1B6803F00803002BD9
:103BB00007D1274BD3F894301B0A03F00F037B6126
:103BC00005E0234B1B681B0903F00F037B61214AAF
:103BD0007B6952F823307B611D4BDB6803F00303E4
:103BE000FB60FB68022B03D0FB68032B03D005E0CE
:103BF000194B3B6105E0194B3B6102E07B693B617E
:103C000000BF134BDB681B0903F00F030133BB60DC
:103C10000F4BDB681B0A03F07F033A6903FB02F2D8
:103C2000BB68B2FBF3F33B61094BDB685B0E03F04F
:103C3000030301335B007B603A697B68B2FBF3F3FB
:103C40003B603B6818461C37BD465DF8047B7047F7
:103C500000100240508000080024F40000127A0096
:103C600080B584B000AF78607B68002B01D1012360
:103C7000BEE07B685B6A002B08D17B685B68B3F5AC
:103C8000827F09D07B680022DA6105E07B68002230
:103C90001A617B6800225A617B6893F85D30DBB261
:103CA000002B06D17B68002283F85C20786800F046
:103CB000CBF87B68022283F85D207B681B681A685A
:103CC0007B681B6822F040021A607B68DB68B3F5F2
:103CD000E06F02D90023FB6002E04FF48053FB60E9
:103CE0007B68DB68B3F5706F07D07B68DB68B3F582
:103CF000E06F02D07B6800229A627B685B6803F405
:103D000082727B689B6803F404431A437B681B69D7
:103D100003F002031A437B685B6903F001031A4353
:103D20007B689B6903F400731A437B68DB6903F0CB
:103D300038031A437B681B6A03F0800342EA0301DD
:103D40007B689B6A03F400527B681B680A431A6015
:103D50007B689B6AB3F5005F1BD17B681B6B002BF4
:103D60000BD17B68DB68B3F5E06F03D97B68022277
:103D70001A6302E07B6801221A637B681B6B022BCB
:103D800007D17B681B681A687B681B6842F4006275
:103D90001A607B689B691B0C03F004027B685B6AFA
:103DA00003F010031A437B685B6B03F008031A43AC
:103DB0007B68DB6803F4706342EA0301FB6803F489
:103DC00080527B681B680A435A607B689B6AB3F524
:103DD000005F05D17B68DA6A7B681B6892B21A6162
:103DE0007B6800221A667B68012283F85D2000232D
:103DF00018461037BD4680BD80B582B000AF7860F0
:103E00007B68002B01D101231AE07B68022283F832
:103E10005D207B681B681A687B681B6822F0400283
:103E20001A60786800F01AF87B6800221A667B68CE
:103E3000002283F85D207B68002283F85C20002349
:103E400018460837BD4680BD80B483B000AF7860A7
:103E500000BF0C37BD465DF8047B704780B483B06B
:103E600000AF786000BF0C37BD465DF8047B70473B
:103E700080B58AB002AFF860B9603B601346FB8042
:103E800000237B610023FB77FB685B68B3F5827FCF
:103E900012D1FB689B68002B0ED1FB68042283F8CB
:103EA0005D20FA883B6800931346BA68B968F868E1
:103EB00000F0BBF90346B4E1FB6893F85C30012BDA
:103EC00001D10223ADE1FB68012283F85C20FEF7FB
:103ED00099FCB861FB6893F85D30DBB2012B02D02E
:103EE0000223FB7794E1BB68002B02D0FB88002BF8
:103EF00002D10123FB778BE1FB68042283F85D206C
:103F0000FB6800221A66FB68BA681A64FB68FA88C4
:103F1000A3F84420FB68FA88A3F84620FB68002237
:103F20009A63FB6800229A87FB680022DA87FB68A5
:103F30000022DA64FB6800221A65FB689B6AB3F50D
:103F4000005F18D1FB681B681A68FB681B6822F4C5
:103F500000521A60FB681B681A68FB681B6842F411
:103F600000521A60FB68B3F846309BB2013B9AB22C
:103F7000FB68A3F84620FB68DB68B3F5E06F08D95F
:103F8000FB681B685A68FB681B6822F480525A6001
:103F900007E0FB681B685A68FB681B6842F48052A4
:103FA0005A60FB689B68B3F5004F0FD1FB681B6834
:103FB0001A68FB681B6822F040021A60FB681B68E5
:103FC0001A68FB681B6822F480421A60FB681B6851
:103FD0001B6803F04003402B07D0FB681B681A687E
:103FE000FB681B6842F040021A60FB68DB68B3F5AF
:103FF000E06F67D830E0FB681B689B6803F0010343
:10400000012B17D1FB681B6803F10C02FB681B6CCA
:104010001278D2B21A70FB681B6C5A1CFB681A64C7
:10402000FB68B3F846309BB2013B9AB2FB68A3F839
:10403000462011E0FEF7E6FB0246BB69D31A3A6858
:104040009A4203D83B68B3F1FF3F02D13B68002B93
:1040500002D10323FB77DBE0FB68B3F846309BB269
:10406000002BC8D134E0FB681B689B6803F0010398
:10407000012B15D1FB681B68DA68FB681B6C92B2D8
:104080001A80FB681B6C9A1CFB681A64FB68B3F807
:1040900046309BB2013B9AB2FB68A3F8462011E080
:1040A000FEF7B0FB0246BB69D31A3A689A4203D8BE
:1040B0003B68B3F1FF3F02D13B68002B02D10323E1
:1040C000FB77A5E0FB68B3F846309BB2002BCAD162
:1040D000FB689B6AB3F5005F75D1FB681B681A68C3
:1040E000FB681B6842F480521A60BB6900933B680E
:1040F00001220121F86801F099F80346002B02D053
:104100000323FB7784E0FB68DB68B3F5E06F07D936
:10411000FB681B68DA68FB681B6C92B21A8008E0C7
:10412000FB681B6803F10C02FB681B6C1278D2B2AF
:104130001A70BB6900933B6801220121F86801F005
:1041400075F80346002B08D0FB681B6E43F0020293
:10415000FB681A660323FB775AE0FB68DB68B3F55C
:10416000706F05D1FB681B68DB687B617B692AE0A7
:10417000FB681B680C331B78DBB27B617B69FB68D7
:10418000DB68B3F5E06F1ED1FB681B6B022B1AD105
:10419000BB6900933B6801220121F86801F046F8F1
:1041A0000346002B08D0FB681B6E43F00202FB683D
:1041B0001A660323FB772BE0FB681B680C331B7824
:1041C000DBB27B617B69BA693968F86801F048F94C
:1041D0000346002B02D0FB6820221A66FB681B688E
:1041E0009B6803F01003102B0AD1FB681B6E43F091
:1041F0000202FB681A66FB681B684FF6EF729A6052
:10420000FB681B6E002B02D00123FB7700E000BF90
:10421000FB68012283F85D20FB68002283F85C20A4
:10422000FB7F18462037BD4680BD80B590B002AFF9
:10423000F860B9607A607B8000237B6101237B6337
:10424000002387F83330FB6893F85C30012B01D1F1
:104250000223C8E2FB68012283F85C20FEF7D2FA51
:10426000F862FB6893F85D3087F82B30FB685B6879
:104270007B627B887B847B883B84FB681B681B6834
:10428000FB61FB681B685B68BB6197F82B30012BF7
:104290000FD07B6AB3F5827F07D1FB689B68002B48
:1042A00003D197F82B30042B03D0022387F8333047
:1042B0008FE2BB68002B05D07B68002B02D07B8887
:1042C000002B03D1012387F8333082E2FB6893F897
:1042D0005D30DBB2042B03D0FB68052283F85D2040
:1042E000FB6800221A66FB687A681A64FB687A88A1
:1042F000A3F84620FB687A88A3F84420FB68BA68D4
:104300009A63FB687A88DA87FB687A889A87FB6801
:104310000022DA64FB6800221A65FB689B6AB3F529
:10432000005F0FD1FB681B681A68FB681B6822F4EA
:1043300000521A60FB681B681A68FB681B6842F42D
:1043400000521A60FB68DB68B3F5E06F02D83B8C63
:10435000012B08D9FB681B685A68FB681B6822F4AC
:1043600080525A6007E0FB681B685A68FB681B684C
:1043700042F480525A60FB681B681B6803F04003DC
:10438000402B07D0FB681B681A68FB681B6842F06B
:1043900040021A60FB68DB68B3F5E06F40F2A4806E
:1043A000FB685B68002B03D07B8C012B40F08E8078
:1043B000FB689B6B1A88FB681B68DA60FB689B6B69
:1043C0009A1CFB689A63FB68DB8F9BB2013B9AB235
:1043D000FB68DA877AE0FB681B689B6803F00203DE
:1043E000022B3FD1FB68DB8F9BB2002B3AD07B6B5B
:1043F000012B37D1FB689B6B1A88FB681B68DA605E
:10440000FB689B6B9A1CFB689A63FB68DB8F9BB213
:10441000013B9AB2FB68DA8700237B63FB68DB8F82
:104420009BB2002B1ED1FB689B6AB3F5005F19D1CC
:10443000FB6903F00403002B0CD1BB6903F00803F4
:10444000002B07D0FB681B681A68FB681B6842F4E6
:1044500000721A60FB681B681A68FB681B6842F4EC
:1044600080521A60FB681B689B6803F00103012BF4
:104470001CD1FB68B3F846309BB2002B16D0FB680A
:104480001B68DA68FB681B6C92B21A80FB681B6CB5
:104490009A1CFB681A64FB68B3F846309BB2013B78
:1044A0009AB2FB68A3F8462001237B63FEF7AAF9C2
:1044B0000246FB6AD31A3A6C9A4207D83B6CB3F1B6
:1044C000FF3F03D0032387F8333082E1FB68DB8FA3
:1044D0009BB2002B7FF47FAFFB68B3F846309BB2F2
:1044E000002B7FF478AF03E1FB685B68002B03D0FF
:1044F0007B8C012B40F0EF80FB68DB8F9BB2012BA4
:1045000012D9FB689B6B1A88FB681B68DA60FB6832
:104510009B6B9A1CFB689A63FB68DB8F9BB2023B28
:104520009AB2FB68DA87D6E0FB689A6BFB681B6877
:104530000C3312781A70FB689B6B5A1CFB689A63E9
:10454000FB68DB8F9BB2013B9AB2FB68DA87C2E063
:10455000FB681B689B6803F00203022B58D1FB68C1
:10456000DB8F9BB2002B53D07B6B012B50D1FB68B0
:10457000DB8F9BB2012B12D9FB689B6B1A88FB68FF
:104580001B68DA60FB689B6B9A1CFB689A63FB688C
:10459000DB8F9BB2023B9AB2FB68DA8712E0FB68C2
:1045A0009A6BFB681B680C3312781A70FB689B6B64
:1045B0005A1CFB689A63FB68DB8F9BB2013B9AB283
:1045C000FB68DA8700237B63FB68DB8F9BB2002BE1
:1045D0001ED1FB689B6AB3F5005F19D1FB6903F03C
:1045E0000403002B0CD1BB6903F00803002B07D098
:1045F000FB681B681A68FB681B6842F400721A604B
:10460000FB681B681A68FB681B6842F480521A60DA
:10461000FB681B689B6803F00103012B48D1FB6812
:10462000B3F846309BB2002B42D0FB68B3F846305B
:104630009BB2012B23D9FB681B68DA68FB681B6CF3
:1046400092B21A80FB681B6C9A1CFB681A64FB68A8
:10465000B3F846309BB2023B9AB2FB68A3F84620FF
:10466000FB68B3F846309BB2012B1FD8FB681B6870
:104670005A68FB681B6842F480525A6016E0FB6877
:104680001B6803F10C02FB681B6C1278D2B21A7023
:10469000FB681B6C5A1CFB681A64FB68B3F8463055
:1046A0009BB2013B9AB2FB68A3F8462001237B63CF
:1046B000FEF7A8F80246FB6AD31A3A6C9A4203D86E
:1046C0003B6CB3F1FF3F02D13B6C002B03D10323C2
:1046D00087F833307DE0FB68DB8F9BB2002B7FF4E3
:1046E00037AFFB68B3F846309BB2002B7FF430AF96
:1046F000FB689B6AB3F5005F46D1FB6A00933B6C95
:1047000001220121F86800F091FD0346002B09D039
:10471000FB681B6E43F00202FB681A66032387F8EE
:10472000333056E0FB68DB68B3F5706F05D1FB688A
:104730001B68DB687B617B6926E0FB681B680C33C8
:104740001B78DBB27B617B69FB681B6B022B1BD187
:10475000FB6A00933B6C01220121F86800F066FDC2
:104760000346002B09D0FB681B6E43F00202FB6876
:104770001A66032387F833302BE0FB681B680C3381
:104780001B78DBB27B617B69FB681B689B6803F06D
:104790001003102B0DD1FB681B6E43F00202FB6867
:1047A0001A66FB681B684FF6EF729A60012387F860
:1047B0003330FA6A396CF86800F0AAFE0346002B21
:1047C00006D0012387F83330FB6820221A6600E008
:1047D00000BFFB68012283F85D20FB68002283F89C
:1047E0005C2097F8333018463837BD4680BD00004E
:1047F00080B487B000AFF860B9601346FB80002337
:10480000FB75FB6893F85C30012B01D1022387E034
:10481000FB68012283F85C20BB68002B02D0FB8878
:10482000002B02D10123FB7575E0FB6893F85D3026
:10483000DBB2012B02D00223FB756CE0FB68032284
:1048400083F85D20FB6800221A66FB68BA689A63E9
:10485000FB68FA889A87FB68FA88DA87FB68002287
:104860001A64FB680022A3F84420FB680022A3F826
:104870004620FB680022DA64FB68DB68B3F5E06F72
:1048800003D9FB68294A1A6502E0FB68284A1A65C1
:10489000FB689B68B3F5004F0FD1FB681B681A6873
:1048A000FB681B6822F040021A60FB681B681A68EC
:1048B000FB681B6842F480421A60FB689B6AB3F590
:1048C000005F0FD1FB681B681A68FB681B6822F445
:1048D00000521A60FB681B681A68FB681B6842F488
:1048E00000521A60FB681B685A68FB681B6842F03C
:1048F000A0025A60FB681B681B6803F04003402B52
:1049000008D0FB681B681A68FB681B6842F040020D
:104910001A6000E000BFFB68002283F85C20FB7D8A
:1049200018461C37BD465DF8047B7047CD51000822
:104930006D51000880B586B000AFF860B9601346CD
:10494000FB800023FB75FB689B68002B10D1FB6884
:104950005B68B3F5827F0BD1FB68042283F85D208E
:10496000FB88BA68B968F86800F0BCF80346B1E0A3
:10497000FB6893F85C30012B01D10223AAE0FB68AD
:10498000012283F85C20FB6893F85D30DBB2012BD9
:1049900002D00223FB7598E0BB68002B02D0FB8895
:1049A000002B02D10123FB758FE0FB68042283F802
:1049B0005D20FB6800221A66FB68BA681A64FB680F
:1049C000FA88A3F84420FB68FA88A3F84620FB681D
:1049D00000229A63FB6800229A87FB680022DA872C
:1049E000FB6800221A65FB68DB68B3F5E06F0BD942
:1049F000FB681B685A68FB681B6822F480525A6087
:104A0000FB68364ADA640AE0FB681B685A68FB6890
:104A10001B6842F480525A60FB68314ADA64FB68D2
:104A20009B68B3F5004F0FD1FB681B681A68FB68E1
:104A30001B6822F040021A60FB681B681A68FB685A
:104A40001B6822F480421A60FB689B6AB3F5005F22
:104A50001FD1FB6801229A64FB68DB68B3F5E06F45
:104A600006D8FB681B6B022B02D1FB6802229A64FA
:104A7000FB681B681A68FB681B6822F400521A6006
:104A8000FB681B681A68FB681B6842F400521A60D6
:104A900002E0FB6800229A64FB681B685A68FB68A6
:104AA0001B6842F060025A60FB681B681B6803F0D9
:104AB0004003402B08D0FB681B681A68FB681B6822
:104AC00042F040021A6000E000BFFB68002283F859
:104AD0005C20FB7D18461837BD4680BDE5500008B8
:104AE0002550000880B487B000AFF860B9607A60E4
:104AF0007B800023FB75FB6893F85C30012B01D1B0
:104B00000223B9E0FB68012283F85C20FB6893F87C
:104B10005D30BB75FB685B683B61BB7D012B0DD0D5
:104B20003B69B3F5827F06D1FB689B68002B02D1FD
:104B3000BB7D042B02D00223FB7598E0BB68002BE1
:104B400005D07B68002B02D07B88002B02D101238B
:104B5000FB758CE0FB6893F85D30DBB2042B03D06F
:104B6000FB68052283F85D20FB6800221A66FB685B
:104B7000BA689A63FB687A889A87FB687A88DA87CA
:104B8000FB687A681A64FB687A88A3F84420FB689B
:104B90007A88A3F84620FB68DB68B3F5E06F06D996
:104BA000FB68384ADA64FB68374A1A6505E0FB6837
:104BB000364ADA64FB68364A1A65FB689B6AB3F5C5
:104BC000005F1FD1FB6801229A64FB68DB68B3F5C4
:104BD000E06F06D8FB681B6B022B02D1FB68022238
:104BE0009A64FB681B681A68FB681B6822F4005211
:104BF0001A60FB681B681A68FB681B6842F4005265
:104C00001A6002E0FB6800229A64FB68DB68B3F577
:104C1000E06F02D87B88012B08D9FB681B685A68B3
:104C2000FB681B6822F480525A6007E0FB681B682F
:104C30005A68FB681B6842F480525A60FB681B6824
:104C40005A68FB681B6842F0E0025A60FB681B6808
:104C50001B6803F04003402B08D0FB681B681A68F0
:104C6000FB681B6842F040021A6000E000BFFB686E
:104C7000002283F85C20FB7D18461C37BD465DF89A
:104C8000047B7047B14E0008614F0008BD4C00081E
:104C9000F54D000880B483B000AF786000BF0C37DA
:104CA000BD465DF8047B704780B483B000AF786088
:104CB00000BF0C37BD465DF8047B704780B582B0FD
:104CC00000AF78607B68B3F846309BB2012B23D9E4
:104CD0007B681B68DA687B681B6C92B21A807B6801
:104CE0001B6C9A1C7B681A647B68B3F846309BB2D5
:104CF000023B9AB27B68A3F846207B68B3F8463043
:104D00009BB2012B1FD17B681B685A687B681B68AC
:104D100042F480525A6016E07B681B6803F10C0273
:104D20007B681B6C1278D2B21A707B681B6C5A1CA1
:104D30007B681A647B68B3F846309BB2013B9AB239
:104D40007B68A3F846207B68B3F846309BB2002B03
:104D500020D17B689B6AB3F5005F0BD17B681B6831
:104D60005A687B681B6842F480525A607B680B4A21
:104D7000DA640FE07B681B685A687B681B6822F066
:104D800060025A607B68DB8F9BB2002B02D178688F
:104D900000F004FC0837BD4680BD00BFA14D0008EF
:104DA00080B584B000AF78600023FB607B681B682F
:104DB0000C331B78DBB2FB60FB687B689B6C5A1E74
:104DC0007B689A647B689B6C002B0FD17B681B68A7
:104DD0005A687B681B6822F060025A607B68DB8F30
:104DE0009BB2002B02D1786800F0D8FB00BF1037CF
:104DF000BD4680BD80B582B000AF78607B68DB8F38
:104E00009BB2012B12D97B689B6B1A887B681B684D
:104E1000DA607B689B6B9A1C7B689A637B68DB8F8C
:104E20009BB2023B9AB27B68DA8712E07B689A6B8E
:104E30007B681B680C3312781A707B689B6B5A1C5A
:104E40007B689A637B68DB8F9BB2013B9AB27B687D
:104E5000DA877B68DB8F9BB2002B26D17B689B6A4D
:104E6000B3F5005F10D17B681B681A687B681B680C
:104E700042F480521A607B681B685A687B681B6822
:104E800022F080025A6010E07B681B685A687B68D9
:104E90001B6822F080025A607B68B3F846309BB2F0
:104EA000002B02D1786800F079FB0837BD4680BD41
:104EB00080B582B000AF78607B681B68DA687B6879
:104EC0001B6C92B21A807B681B6C9A1C7B681A64FC
:104ED0007B68B3F846309BB2013B9AB27B68A3F87B
:104EE00046207B68B3F846309BB2002B18D17B6814
:104EF0009B6AB3F5005F03D17B680B4ADA640FE06D
:104F00007B681B685A687B681B6822F040025A6005
:104F10007B68DB8F9BB2002B02D1786800F03EFBF0
:104F20000837BD4680BD00BF2D4F000880B584B056
:104F300000AF78600023FB607B681B68DB68FB6068
:104F4000FB687B681B685A687B681B6822F040021C
:104F50005A60786800F022FB00BF1037BD4680BD64
:104F600080B582B000AF78607B689B6B1A887B68E5
:104F70001B68DA607B689B6B9A1C7B689A637B6812
:104F8000DB8F9BB2013B9AB27B68DA877B68DB8F51
:104F90009BB2002B26D17B689B6AB3F5005F10D1D2
:104FA0007B681B681A687B681B6842F480521A6031
:104FB0007B681B685A687B681B6822F080025A6015
:104FC00010E07B681B685A687B681B6822F08002CF
:104FD0005A607B68B3F846309BB2002B02D17868E8
:104FE00000F0DCFA0837BD4680BD80B584B000AF64
:104FF00078600023FB607B681B680C331B78DBB296
:10500000FB60FB687B689B6C5A1E7B689A647B68BC
:105010009B6C002B02D1786800F01CFB00BF10379E
:10502000BD4680BD80B582B000AF78607B681B68EC
:1050300003F10C027B681B6C1278D2B21A707B6889
:105040001B6C5A1C7B681A647B68B3F846309BB2B1
:10505000013B9AB27B68A3F846207B68B3F84630E0
:105060009BB2012B0CD17B689B6AB3F5005F07D123
:105070007B681B681A687B681B6842F480521A6060
:105080007B68B3F846309BB2002B0BD17B689B6AE0
:10509000B3F5005F03D17B68044ADA6402E0786804
:1050A00000F0D8FA0837BD4680BD00BFEB4F0008BE
:1050B00080B584B000AF78600023FB607B681B681C
:1050C000DB68FB60FB687B681B685A687B681B6851
:1050D00022F060025A60786800F0BCFA00BF103716
:1050E000BD4680BD80B582B000AF78607B681B682C
:1050F000DA687B681B6C92B21A807B681B6C9A1C06
:105100007B681A647B68B3F846309BB2013B9AB265
:105110007B68A3F846207B68B3F846309BB2012B2E
:105120000CD17B689B6AB3F5005F07D17B681B6875
:105130001A687B681B6842F480521A607B68B3F877
:1051400046309BB2002B0BD17B689B6AB3F5005FA6
:1051500003D17B68044ADA6402E0786800F07AFAE6
:105160000837BD4680BD00BFB150000880B582B091
:1051700000AF78607B689A6B7B681B680C33127891
:105180001A707B689B6B5A1C7B689A637B68DB8F09
:105190009BB2013B9AB27B68DA877B68DB8F9BB25C
:1051A000002B0FD17B689B6AB3F5005F07D17B684A
:1051B0001B681A687B681B6842F480521A60786822
:1051C00000F08EFA00BF0837BD4680BD80B582B0C2
:1051D00000AF78607B689B6B1A887B681B68DA601D
:1051E0007B689B6B9A1C7B689A637B68DB8F9BB2A6
:1051F000013B9AB27B68DA877B68DB8F9BB2002B1E
:105200000FD17B689B6AB3F5005F07D17B681B6891
:105210001A687B681B6842F480521A60786800F054
:105220005FFA00BF0837BD4680BD000080B588B07A
:1052300000AFF860B9603B601346FB71FDF7E2FA1E
:105240000246BB6A9B1A3A681344FB61FDF7DAFA1F
:10525000B861394B1B685B011B0DFA6902FB03F354
:105260007B6154E03B68B3F1FF3F50D0FDF7CAFAD1
:105270000246BB69D31AFA699A4202D9FB69002B2C
:105280003DD1FB681B685A68FB681B6822F0E0028E
:105290005A60FB685B68B3F5827F11D1FB689B683D
:1052A000B3F5004F04D0FB689B68B3F5806F07D15E
:1052B000FB681B681A68FB681B6822F040021A60D2
:1052C000FB689B6AB3F5005F0FD1FB681B681A6827
:1052D000FB681B6822F400521A60FB681B681A689E
:1052E000FB681B6842F400521A60FB68012283F8D5
:1052F0005D20FB68002283F85C20032317E07B69B4
:10530000002B01D10023FB617B69013B7B61FB68C2
:105310001B689A68BB681340BA689A420CBF0123A5
:105320000023DBB21A46FB799A429BD10023184630
:105330002037BD4680BD00BF0400002080B588B086
:1053400000AFF860B9607A603B60FDF75BFA024637
:10535000BB6A9B1A3A681344FB61FDF753FAB861C4
:105360003E4B1A6813469B001344DA00D31A1B0DF8
:10537000FA6902FB03F33B6162E0BB68B3F5C06FFF
:1053800009D17B68002B06D1FB681B680C331B78A6
:10539000DBB27B617B693B68B3F1FF3F50D0FDF727
:1053A00031FA0246BB69D31AFA699A4202D9FB69FB
:1053B000002B3DD1FB681B685A68FB681B6822F014
:1053C000E0025A60FB685B68B3F5827F11D1FB682D
:1053D0009B68B3F5004F04D0FB689B68B3F5806F02
:1053E00007D1FB681B681A68FB681B6822F0400243
:1053F0001A60FB689B6AB3F5005F0FD1FB681B68FE
:105400001A68FB681B6822F400521A60FB681B686C
:105410001A68FB681B6842F400521A60FB6801229C
:1054200083F85D20FB68002283F85C20032310E0F2
:105430003B69002B01D10023FB613B69013B3B61D0
:10544000FB681B689A68BB6813407A689A4294D1DB
:10545000002318462037BD4680BD00BF0400002051
:1054600080B586B002AFF860B9607A60FB685B68AF
:10547000B3F5827F11D1FB689B68B3F5004F04D070
:10548000FB689B68B3F5806F07D1FB681B681A68DF
:10549000FB681B6822F040021A607B680093BB68BF
:1054A00000228021F868FFF7C1FE0346002B07D0D9
:1054B000FB681B6E43F02002FB681A66032323E09F
:1054C000FB685B68B3F5827F1DD1FB689B68B3F511
:1054D000004F04D0FB689B68B3F5806F13D17B68E5
:1054E0000093BB6800224FF4C061F868FFF726FF05
:1054F0000346002B07D0FB681B6E43F02002FB68BD
:105500001A66032300E0002318461037BD4680BD0D
:1055100080B586B002AFF860B9607A607B680093AE
:10552000BB6800224FF4C051F868FFF707FF03463D
:10553000002B07D0FB681B6E43F02002FB681A6645
:10554000032327E07B680093BB6800228021F86872
:10555000FFF76CFE0346002B07D0FB681B6E43F081
:105560002002FB681A66032314E07B680093BB6883
:1055700000224FF4C061F868FFF7E0FE0346002BFD
:1055800007D0FB681B6E43F02002FB681A660323FA
:1055900000E0002318461037BD4680BD80B584B0BA
:1055A00000AF7860FDF72EF9F8607B681B685A68D9
:1055B0007B681B6822F020025A60FA6864217868D0
:1055C000FFF7A6FF0346002B05D07B681B6E43F058
:1055D00020027B681A667B681B689B6803F01003D7
:1055E000102B12D17B68012283F85D207B681B6E33
:1055F00043F002027B681A667B681B684FF6EF7205
:105600009A607868FFF750FB20E07B681B6E002BE8
:1056100015D17B6893F85D30DBB2042B07D17B6832
:10562000012283F85D207868FCF762FE0EE07B685B
:10563000012283F85D207868FFF72CFB06E07B6889
:10564000012283F85D207868FFF72EFB00BF10373A
:10565000BD4680BD80B582B000AF78607B681B68B6
:105660005A687B681B6822F060025A60FDF7CAF82E
:1056700003461A4664217868FFF7F2FE0346002BC2
:1056800005D07B681B6E43F020027B681A667B683E
:10569000012283F85D207B681B689B6803F0100380
:1056A000102B0ED17B681B6E43F002027B681A66DA
:1056B0007B681B684FF6EF729A607868FFF7F4FA20
:1056C0000AE07B681B6E002B03D17868FCF710FEA4
:1056D00002E07868FFF7E8FA00BF0837BD4680BDF2
:1056E00080B584B000AF7860FDF78CF8F8607B6817
:1056F0001B685A687B681B6822F0A0025A60FA682F
:1057000064217868FFF704FF0346002B05D07B680F
:105710001B6E43F020027B681A667B689B68002B37
:105720000AD10023BB607B681B68DB68BB607B68B9
:105730001B689B68BB60BB687B68012283F85D20A7
:105740007B681B6E002B03D07868FFF7ADFA02E090
:105750007868FCF7E1FD00BF1037BD4680BD80B51D
:1057600082B000AF78607B68002B01D1012342E05A
:105770007B68D3F88430002B06D17B68002283F845
:105780008020786800F03BF87B682422C3F88420EE
:105790007B681B681A687B681B6822F001021A602C
:1057A000786800F0CDF80346012B01D1012322E0F7
:1057B0007B689B6A002B02D0786800F0BDFB7B6899
:1057C0001B685A687B681B6822F490425A607B68A9
:1057D0001B689A687B681B6822F02A029A607B68C3
:1057E0001B681A687B681B6842F001021A607868BF
:1057F00000F044FC034618460837BD4680BD80B41F
:1058000083B000AF786000BF0C37BD465DF8047B05
:10581000704780B58AB002AFF860B9603B6013464C
:10582000FB80FB68D3F88430202B40F08480BB6879
:10583000002B02D0FB88002B01D101237CE0FB6808
:1058400093F88030012B01D1022375E0FB6801221F
:1058500083F88020FB680022C3F88C20FB6821229B
:10586000C3F88420FCF7CEFF7861FB68FA88A3F8C0
:105870005420FB68FA88A3F85620FB689B68B3F5B0
:10588000805F08D1FB681B69002B04D10023FB61FA
:10589000BB68BB6103E0BB68FB610023BB61FB68C5
:1058A000002283F880202DE03B6800937B69002272
:1058B0008021F86800F02DFC0346002B01D0032363
:1058C0003AE0FB69002B0BD1BB691A88FB681B68A7
:1058D000C2F3080292B21A85BB690233BB6108E0C9
:1058E000FB691A78FB681B6892B21A85FB69013361
:1058F000FB61FB68B3F856309BB2013B9AB2FB6880
:10590000A3F85620FB68B3F856309BB2002BCBD1DE
:105910003B6800937B6900224021F86800F0F9FBA6
:105920000346002B01D0032306E0FB682022C3F8C6
:105930008420002300E0022318462037BD4680BDA6
:105940002DE9B04F8CB000AF7861002387F82A3082
:105950007B699A687B691B691A437B695B691A4397
:105960007B69DB691343FB627B691B681A68AA4B7E
:1059700013407A691268F96A0B4313607B691B68EC
:105980005B6823F440517B69DA687B691B680A43D2
:105990005A607B699B69FB627B691B689F4A9342E3
:1059A00004D07B691B6AFA6A1343FB627B691B683C
:1059B0009B6823F06E4323F430637A691268F96AB6
:1059C0000B4393607B691B68DB6A23F00F017B69E3
:1059D0005A6A7B691B680A43DA627B691B68904AD2
:1059E000934225D18F4BD3F8883003F00303032B68
:1059F0001AD801A252F823F0095A0008195A0008CF
:105A0000115A0008215A0008012387F82B3016E1AB
:105A1000022387F82B3012E1042387F82B300EE1A4
:105A2000082387F82B300AE1102387F82B3006E192
:105A30007B691B687C4A934238D17A4BD3F8883013
:105A400003F00C030C2B2DD801A252F823F000BF59
:105A5000855A0008A55A0008A55A0008A55A00084A
:105A6000955A0008A55A0008A55A0008A55A00082A
:105A70008D5A0008A55A0008A55A0008A55A000822
:105A80009D5A0008002387F82B30D8E0022387F8BE
:105A90002B30D4E0042387F82B30D0E0082387F89C
:105AA0002B30CCE0102387F82B30C8E07B691B68D3
:105AB0005E4A934225D15B4BD3F8883003F0300324
:105AC000302B16D0302B18D8202B0AD0202B14D8EE
:105AD000002B02D0102B08D00FE0002387F82B30CA
