:020000040800F2
:1000000000800120B5050008090B0008170B000847
:100010001D0B0008230B0008290B0008000000003E
:100020000000000000000000000000002F0B00088E
:100030003D0B0008000000004B0B0008590B0008A6
:100040000506000805060008050600080506000864
:10005000050600080506000805060008650B0008EF
:100060000506000805060008050600080506000844
:100070000506000805060008050600080506000834
:100080000506000805060008050600080506000824
:100090000506000805060008050600080506000814
:1000A0000506000805060008050600080506000804
:1000B00005060008050600080506000805060008F4
:1000C00005060008050600080506000805060008E4
:1000D00005060008050600080506000805060008D4
:1000E000730B000805060008050600080506000851
:1000F00005060008050600080506000800000000C7
:10010000050600080506000805060008F50A0008AF
:100110000506000805060008050600080506000893
:100120000506000805060008050600080506000883
:100130000506000805060008050600080506000873
:100140000506000805060008050600080506000863
:100150000506000805060008050600080506000853
:100160000506000805060008050600080506000843
:100170000506000805060008000000000506000846
:100180000506000805060008050600080506000823
:100190000506000805060008000000000000000039
:1001A0000000000000000000050600080506000829
:0C01B0000506000805060008050600080A
:1001C00010B5054C237833B9044B13B10448AFF391
:1001D00000800123237010BD80000020000000007B
:1001E000007C000808B5034B1BB103490348AFF37B
:1001F000008008BD0000000084000020007C000892
:10020000034613F8012B002AFBD1181A0138704756
:1002100001F0FF01102A2BDB10F0070F08D010F8B7
:10022000013B013A8B422DD010F0070F42B3F6D1BB
:10023000F0B441EA012141EA014122F007047FF0D4
:1002400000070023F0E80256083C85EA010586EA2B
:10025000010685FA47F5A3FA87F586FA47F6A5FA67
:1002600087F68EB9EED1F0BC01F0FF0102F0070273
:1002700032B110F8013B013A83EA010313B1F8D11E
:100280000020704701387047002D06BF35460338FF
:10029000073815F0010F07D1013015F4807F02BF38
:1002A000013015F4C03F0130F0BC0138704700BF89
:1002B00053B94AB9002908BF00281CBF4FF0FF31CD
:1002C0004FF0FF3000F074B9ADF1080C6DE904CEC9
:1002D00000F006F8DDF804E0DDE9022304B0704721
:1002E0002DE9F047089D04468E46002B4DD18A42E9
:1002F000944669D9B2FA82F252B101FA02F3C2F11C
:10030000200120FA01F10CFA02FC41EA030E9440AC
:100310004FEA1C48210CBEFBF8F61FFA8CF708FBCD
:1003200016E341EA034306FB07F199420AD91CEBA5
:10033000030306F1FF3080F01F81994240F21C81D7
:10034000023E63445B1AA4B2B3FBF8F008FB10331F
:1003500044EA034400FB07F7A7420AD91CEB040454
:1003600000F1FF3380F00A81A74240F20781644424
:10037000023840EA0640E41B00261DB1D4400023A9
:10038000C5E900433146BDE8F0878B4209D9002D0D
:1003900000F0EF800026C5E9000130463146BDE897
:1003A000F087B3FA83F6002E4AD18B4202D3824201
:1003B00000F2F980841A61EB030301209E46002DB0
:1003C000E0D0C5E9004EDDE702B9FFDEB2FA82F205
:1003D000002A40F09280A1EB0C014FEA1C471FFA63
:1003E0008CFE0126200CB1FBF7F307FB131140EA4A
:1003F00001410EFB03F0884208D91CEB010103F117
:10040000FF3802D2884200F2CB804346091AA4B2D8
:10041000B1FBF7F007FB101144EA01440EFB00FEAC
:10042000A64508D91CEB040400F1FF3102D2A64511
:1004300000F2BB800846A4EB0E0440EA03409CE7B0
:10044000C6F12007B34022FA07FC4CEA030C20FA5D
:1004500007F401FA06F31C43F9404FEA1C4900FA7D
:1004600006F3B1FBF9F8200C1FFA8CFE09FB1811FA
:1004700040EA014108FB0EF0884202FA06F20BD96D
:100480001CEB010108F1FF3A80F08880884240F2BD
:100490008580A8F102086144091AA4B2B1FBF9F001
:1004A00009FB101144EA014100FB0EFE8E4508D9FC
:1004B0001CEB010100F1FF346CD28E456AD9023881
:1004C000614440EA0840A0FB0294A1EB0E01A14266
:1004D000C846A64656D353D05DB1B3EB080261EBD4
:1004E0000E0101FA07F722FA06F3F1401F43C5E9AE
:1004F000007100263146BDE8F087C2F12003D840E4
:100500000CFA02FC21FA03F3914001434FEA1C4725
:100510001FFA8CFEB3FBF7F007FB10360B0C43EA17
:10052000064300FB0EF69E4204FA02F408D91CEBC7
:10053000030300F1FF382FD29E422DD902386344C5
:100540009B1B89B2B3FBF7F607FB163341EA034165
:1005500006FB0EF38B4208D91CEB010106F1FF38B4
:1005600016D28B4214D9023E6144C91A46EA0046AB
:1005700038E72E46284605E70646E3E61846F8E63D
:100580004B45A9D2B9EB020864EB0C0E0138A3E786
:100590004646EAE7204694E74046D1E7D0467BE767
:1005A000023B614432E7304609E76444023842E7DF
:1005B000704700BFDFF834D000F092FB002103E069
:1005C0000B4B5B58435004310A480B4B42189A427C
:1005D000F6D30A4A02E0002342F8043B084B9A4251
:1005E000F9D305F089FF00F021F8FEE70080012033
:1005F0006C840008000000208000002080000020A3
:10060000BC1C0020FEE7000080B582B000AF78601F
:10061000391D4FF6FF730122034805F066FA7B6827
:1006200018460837BD4680BD181C002080B500AFB5
:1006300002F070F800F00AFA002001F0A3FF254B49
:10064000254A1A60234B4FF4E1325A60214B0022B5
:100650009A60204B0022DA601E4B00221A611D4B6B
:100660000C225A611B4B00229A611A4B0022DA615C
:10067000184B00221A62174B00229A62154900207B
:1006800001F0DCFF154806F005F900F02DF80346EF
:10069000002B01D000F015FA00F05CF80346002BA7
:1006A00001D000F00EFA00F0A3F80346002B05D0AD
:1006B0000B4806F0EFF800F004FA05E0094806F0F0
:1006C000E9F8002001F0A4FF4FF47A7002F09EF8E0
:1006D000FAE700BF181C002000380140187C000811
:1006E0004C7C0008647C0008B0B586B004AF01F013
:1006F0002FFE0346002B1DD1134806F0CBF83B46D6
:10070000184601F073FE0346002B13D13B781846C0
:100710007B781C46BB781D46FB783A797979029143
:10072000019200932B4622460146084806F016F82F
:10073000002304E0064806F0ADF84FF0FF331846FA
:100740000837BD46B0BD00BF707C0008847C00083F
:10075000AC7C000880B584B002AF00237B601E49EA
:100760001E4805F0FBFF2EE003221D491A4801F048
:100770001BFE0346002B1BD11A4806F08BF840F6EF
:10078000B83002F043F83B46184601F045FE0346F8
:10079000002B0DD13B7819467B781A46BB7818465A
:1007A000FB7800930346104805F0D8FF00230FE0C4
:1007B0007B6801337B6079680C4805F0CFFF4FF40C
:1007C000FA6002F023F87B68022BCDDD4FF0FF3397
:1007D00018460837BD4680BDC07C0008C87C0008AC
:1007E000DC7C0008E87C0008F87C00080C7D000830
:1007F00080B588B002AF0023BB8100237B817A4B98
:100800007B607A4806F046F83B7919467B791A46B0
:10081000BB791846FB7900930346754805F09EFFA7
:10082000744806F037F83B1D0022019250220092D6
:10083000714A0021002001F00BFE0346FB73FB7B95
:10084000002B07D0FB7B19466C4805F087FF4FF063
:10085000FF33C4E06A4806F01DF84FF47A7001F0E7
:10086000D5FF684806F016F83B7919467B7918469B
:10087000BB79FA790192009303460A4662496348BC
:1008800006F020F86148FFF7BBFC03469AB207F177
:100890000C0342F2107100915C49002001F02EFE21
:1008A0000346FB73FB7B002B02D1BB89002B0BD1D2
:1008B000FB7BBA891946564805F050FF002001F02D
:1008C00001FE4FF0FF338AE0BB891946514805F01D
:1008D00045FF514805F0DEFF40F6B83001F096FFC5
:1008E0004E4805F0D7FF4FF4805200214C4805F0E8
:1008F0004DFE07F10A0342F21072009240F6FF72B9
:100900004749002001F01CFE0346FB73FB7B7A89FC
:100910001946444805F022FFFB7B002B1BD17B8945
:10092000002B18D0404805F0B5FF00237B6109E09B
:100930003B4A7B6913441B78184605F027FF7B6907
:1009400001337B617B891A467B699342F0DB374830
:1009500005F0A0FF33E0364805F09CFF354805F070
:1009600099FF07F10A0341F2883200924FF40072B6
:100970002B49002001F0E4FD0346FB73FB7B7A89E1
:1009800019462D4805F0EAFE7B89002B17D02B482D
:1009900005F080FF00233B6109E0214A3B691344D5
:1009A0001B78184605F0F2FE3B6901333B617B89F9
:1009B0001A463B699342F0DB214805F06BFF214862
:1009C00005F068FF002001F07DFD1F4805F062FF83
:1009D0007B89002B01D0002301E04FF0FF33184644
:1009E0001837BD4680BD00BF86F43CC3307D00088B
:1009F000447D0008607D00087C7D0008887D00083B
:100A0000AC7D0008C47D0008DC7D00089C0000204F
:100A10007C7E0008A07E0008B47E0008D47E00081A
:100A20009C020020EC7E00081C7F0008347F000838
:100A30004C7F0008687F0008887F0008B47F0008AA
:100A4000D87F0008DC7F0008F87F000880B596B0EA
:100A500000AF10233B600123BB6160233B62002396
:100A6000FB610223BB620123FB6201233B6328235A
:100A70007B6302233B640723BB630423FB633B4686
:100A8000184602F06BFA0346002B01D000F019F86B
:100A90000F237B640323BB640023FB6400233B65BB
:100AA00000237B6507F144030421184602F07CFE15
:100AB0000346002B01D000F004F800BF5837BD46B4
:100AC00080BD80B500AF002001F08CFD4FF47A703E
:100AD00001F09CFEFAE780B582B000AF0346FB80D0
:100AE000FB88022B01D101F023FC00BF0837BD4673
:100AF00080BD000080B500AF024804F021F900BFBE
:100B000080BD00BFA412002080B400AF00BFBD466E
:100B10005DF8047B704780B400AFFEE780B400AF9F
:100B2000FEE780B400AFFEE780B400AFFEE780B41C
:100B300000AF00BFBD465DF8047B704780B400AFD6
:100B400000BFBD465DF8047B704780B400AF00BFB6
:100B5000BD465DF8047B704780B500AF01F036FEFE
:100B600000BF80BD80B500AF022002F0BFF900BF1A
:100B700080BD80B500AF4FF4005002F0B7F900BF60
:100B800080BD80B400AF01231846BD465DF8047BEC
:100B9000704780B582B000AF7860396005F0A6FC80
:100BA000034616221A604FF0FF3318460837BD4639
:100BB00080BD80B582B000AF78604FF0FF317868BB
:100BC000FFF7E7FFFEE780B584B000AFF860B960DB
:100BD0007A60AFF300800346DAB2BB681A70012373
:100BE00018461037BD4680BD80B586B000AFF860AE
:100BF000B9607A6000237B6109E0BB685A1CBA6067
:100C00001B781846FFF700FD7B6901337B617A6929
:100C10007B689A42F1DB7B6818461837BD4680BD79
:100C200080B483B000AF78604FF0FF3318460C37C4
:100C3000BD465DF8047B704780B483B000AF786038
:100C400039603B684FF400525A60002318460C3755
:100C5000BD465DF8047B704780B483B000AF786018
:100C6000012318460C37BD465DF8047B704780B4FD
:100C700085B000AFF860B9607A6000231846143779
:100C8000BD465DF8047B704780B584B000AF7860E6
:100C9000114B1B68002B02D10F4B104A1A600E4BF0
:100CA0001B68FB600C4B1A687B6813446A469342CE
:100CB00007D905F01BFC03460C221A604FF0FF33E6
:100CC00006E0054B1A687B681344034A1360FB680F
:100CD00018461037BD4680BD9C120020C01C002065
:100CE00080B400AF174BD3F88830164A43F4700332
:100CF000C2F88830144B1B68134A43F00103136099
:100D0000114B00229A60104B1B680F4A23F0A85326
:100D100023F4102313600C4B4FF48052DA600A4B1B
:100D20001B68094A23F480231360074B00229A6151
:100D3000044B4FF000629A6000BFBD465DF8047B33
:100D4000704700BF00ED00E00010024080B483B0A7
:100D500000AF0346FB71FB792F2B06D9FB79392BAA
:100D600003D8FB79303BDBB214E0FB79602B06D96A
:100D7000FB79662B03D8FB79573BDBB20AE0FB79A2
:100D8000402B06D9FB79462B03D8FB79373BDBB2E6
:100D900000E0002318460C37BD465DF8047B704721
:100DA00080B584B000AF786039600023FB60002319
:100DB000FB7212E0FB681B01FB607B681B78184626
:100DC000FFF7C4FF03461A46FB681344FB607B68C9
:100DD00001337B60FB7A0133FB727B681B782F2B1E
:100DE00003D97B681B78392BE4D97B681B78602B8F
:100DF00003D97B681B78662BDCD97B681B78402B7A
:100E000003D97B681B78462BD4D93B68002B02D0D2
:100E10003B68FA7A1A70FB6818461037BD4680BDE9
:100E200080B485B000AF786039600023FB73002385
:100E3000BB730023BB607B681B782D2B19D101236A
:100E4000FB737B6801337B60BB7B0133BB7310E0BA
:100E5000BA6813469B0013445B001A467B681B78F4
:100E6000303B1344BB607B6801337B60BB7B013349
:100E7000BB737B681B782F2B03D97B681B78392BBE
:100E8000E6D93B68002B02D03B68BA7B1A70FB7B2B
:100E9000002B02D0BB685B4200E0BB6818461437E9
:100EA000BD465DF8047B704780B584B000AF7860C4
:100EB00039600023FB7319E00123BB737B681B7847
:100EC0003A2B0ED007F10E0319467868FFF768FF3A
:100ED0000146FB7B5A1CFA731A463B681344CAB29C
:100EE0001A70BB7B1A467B6813447B607B681B7857
:100EF000002BE1D100BF00BF1037BD4680BD80B5DB
:100F000084B000AF786039600023FB7319E00123DF
:100F1000BB737B681B782E2B0ED007F10E0319468E
:100F20007868FFF77DFF0146FB7B5A1CFA731A466F
:100F30003B681344CAB21A70BB7B1A467B681344E1
:100F40007B607B681B78002BE1D100BF00BF1037AE
:100F5000BD4680BD80B584B000AF786039600023A5
:100F6000FB723B6802333449184605F0F5FCF86023
:100F70005AE0FB7A5A1CFA72062B4FD801A252F89B
:100F800023F000BFA10F0008AF0F0008BF0F00083B
:100F9000CF0F0008DF0F0008EF0F00080310000854
:100FA0007B682022F968184605F0ACFC37E07B68C6
:100FB00020331822F968184605F0A4FC2FE07B685E
:100FC00038331022F968184605F09CFC27E07B684E
:100FD00048331022F968184605F094FC1FE07B683E
:100FE00058331022F968184605F08CFC17E00021F0
:100FF000F868FFF715FF03461A467B68C3F8882098
:101000000DE00E49F86805F0A7FCF8607B686833CE
:101010002022F968184605F075FC00E000BF06497B
:10102000002005F099FCF860FB68002BA1D100BFFF
:1010300000BF1037BD4680BD4080000844800008D6
:1010400080B584B000AF786039600023FB737B68A3
:1010500002335249184605F07FFCB86095E0FB7BEF
:101060005A1CFA730B2B7FD801A252F823F000BF51
:10107000A1100008AF100008BF100008D31000082E
:10108000E7100008FB1000080911000817110008FC
:1010900025110008331100084111000855110008FE
:1010A0003B682122B968184605F02CFC5DE03B68DE
:1010B00021332122B968184605F024FC55E00021AF
:1010C000B868FFF7ADFE0346DAB23B6883F842200A
:1010D0004BE00021B868FFF7A3FE0346DAB23B6895
:1010E00083F8432041E00021B868FFF799FE0346EA
:1010F000DAB23B6883F8472037E03B68483319464B
:10110000B868FFF7FCFE30E03B684C331946B8681E
:10111000FFF7F5FE29E03B6850331946B868FFF742
:10112000EEFE22E03B6854331946B868FFF7E7FE4D
:101130001BE03B6858331946B868FFF7E0FE14E03F
:101140000021B868FFF76CFE0346DAB23B6883F80B
:1011500044200AE00021B868FFF762FE0346DAB2D5
:101160003B6883F8462000E000BF0C49002005F0F2
:10117000F3FBB860BB68002B07D0BB68013B1B7852
:101180002C2B02D1FB7B0133FB73BB68002B7FF45C
:1011900066AF00BF00BF1037BD4680BD408000086D
:1011A00080B483B000AF786039607B6802331B780D
:1011B000312B0CBF01230023DBB21A463B681A70A7
:1011C00000BF0C37BD465DF8047B704790B587B013
:1011D00000AFF860B9607A6000233B610023FB82B6
:1011E000FB68D3F82041B868FFF70AF8034699B2C4
:1011F000FB68D3F8F8381A46B868A04703463B6145
:101200003B69002B3EDDFB68D3F82431FA68D2F845
:10121000F8284FF4FA61786898470346FB82B7F9DB
:101220001630002B27DDB7F91630B3F5FA6F22DC44
:10123000B7F91630B3F5FA6F05D1B7F916309BB28E
:10124000013B9BB2FB82B7F916307A681344002247
:101250001A700F49786805F068FB0346002B01D02F
:10126000002310E00B49786805F05FFB0346002B74
:1012700001D0052307E0B7F9163013F1040F01D1AF
:10128000062300E0042318461C37BD4690BD00BF6E
:10129000548000086080000880B586B000AFF86018
:1012A000B9607A607B800023FB820023BB8200232D
:1012B0007B82B868FEF7A4FF03467B827B8A03F03B
:1012C0000103002B01D0022353E0FB68D3F8203147
:1012D000FA68D2F8F828798AB868984703463B82BA
:1012E0003A8A7B8A9A4243D1FB68D3F82031FA6864
:1012F000D2F8F8287988786898470346FB82B7F9CE
:1013000016207B889A4231D1FB68D3F82431FA68E1
:10131000D2F8F8280021386A98470346BB82B7F90B
:101320001430002B19DDB7F914303A6A1344002247
:101330001A701249386A05F0F8FA0346002B01D0FA
:10134000002316E00E49386A05F0EFFA0346002B39
:1013500001D005230DE002230BE0B7F9143013F19F
:10136000040F01D1062304E0022302E0022300E07F
:10137000042318461837BD4680BD00BF54800008BE
:101380006080000890B587B000AFF860B9607A60FF
:101390007B80FB6803F594733B61FB68D3F82041C5
:1013A000B868FEF72DFF034699B2FB68D3F8F8380A
:1013B0001A46B868A0470346002B6FDDFB68D3F8D8
:1013C0002431FA68D2F8F828002138699847034692
:1013D0007B617B6913F1040F01D106235FE03B6958
:1013E0001B780D2B04D13B6901331B780A2B01D0EC
:1013F000042354E07B69023B7B613B6902333B6120
:101400007B69072B4AD902E07B69013B7B617B69E1
:10141000002B06D07B69013B3A6913441B78152BDE
:10142000F2D07B693A69134400221A707B69083B49
:101430003A6913441C49184605F077FA0346002B15
:1014400016D07B699BB2083B9AB2BB6A1A80BB6A12
:101450001B887A889A4202D2BB6A7A881A80BB6A51
:101460001B881A463969786805F082F8002316E06F
:101470007B69043B3A69134404220C49184605F081
:1014800067F80346002B04D1BB6A00221A800523AB
:1014900005E0BB6A00221A80052300E004231846F9
:1014A0001C37BD4690BD00BF54800008688000080E
:1014B00080B584B000AF78600223FB737B6847F28D
:1014C0003052C3F8F8287B68D3F8143100209847CD
:1014D0000346002B13D17B6803F594731A460A491F
:1014E0007868FFF773FE0346FB73FB7B002B06D186
:1014F0007B6803F5947319467868FFF72BFDFB7B37
:1015000018461037BD4680BD7080000880B485B095
:1015100000AFF860B9607A603B60FB68002B0BD0CD
:10152000BB68002B08D07B68002B05D0BB69002B63
:1015300002D0FB69002B01D1022314E0FB68BA68DA
:10154000C3F81421FB687A68C3F81821FB68BA69EC
:10155000C3F82021FB68FA69C3F82421FB683A68C4
:10156000C3F81C21002318461437BD465DF8047BE0
:101570007047000080B586B000AFF860B9607A604F
:10158000FB70BB68002B02D07B68002B02D10223CA
:10159000FB7562E0FB6803F59473BA68314918463D
:1015A00005F090F9FB6803F59471FB6803F59473FB
:1015B0001A46F868FFF70AFE0346FB75FB7D002B11
:1015C0004BD1FB6803F594737A682749184605F0F8
:1015D00079F9FB6803F59471FB6803F594731A4677
:1015E000F868FFF7F3FD0346FB75FB7D002B34D154
:1015F000FB68FA7883F88C20FB6803F59473FA781B
:101600001A49184605F05EF9FB6803F59471FB680A
:1016100003F594731A46F868FFF7D8FD0346FB7587
:10162000FB7D002B19D1FB6803F594731049184614
:1016300005F048F9FB6803F59471FB6803F59473B2
:101640001A46F868FFF7C2FD0346FB75FB7D002BC9
:1016500003D1FB68012283F8D220FB7D184618379E
:10166000BD4680BD888000089080000898800008F2
:10167000A080000880B584B000AF78607B6803F577
:1016800094731149184605F01DF97B6803F59471B0
:101690007B6803F594731A467868FFF797FD034655
:1016A000FB73FB7B002B08D17B6803F594727B688E
:1016B000D23319461046FFF773FD7B6893F8D2309A
:1016C00018461037BD4680BDA480000880B584B0A0
:1016D00000AF78607B6803F594731049184605F0F5
:1016E000F1F87B6803F594717B6803F594731A46EF
:1016F0007868FFF76BFD0346FB73FB7B002B08D17B
:101700007B6803F594727B688D3319461046FFF7AA
:1017100097FCFB7B18461037BD4680BDAC800008A7
:1017200080B584B000AF786039607B6803F594734E
:101730001249184605F0C6F87B6803F594717B687A
:1017400003F594731A467868FFF740FD0346FB7370
:10175000FB7B002B0CD17B6803F5947302330849A3
:10176000184605F0F9F8B8603968B868FFF79CFBCF
:10177000FB7B18461037BD4680BD00BFFC800008CB
:101780000081000890B587B002AF7860396000230F
:10179000FB733B681B78002B03D03B681B78032B43
:1017A00005D13B689B88002B01D10223DDE07B68DB
:1017B00003F594703B689B781A466E4905F082F8F1
:1017C0007B6803F594717B6803F594731A46786817
:1017D000FFF7FCFC0346FB73FB7B002B14D17B68FB
:1017E00003F594703B681B781A46634905F06AF864
:1017F0007B6803F594717B6803F594731A467868E7
:10180000FFF7E4FC0346FB73FB7B002B14D17B68E2
:1018100003F594703B68DB881A46584905F052F886
:101820007B6803F594717B6803F594731A467868B6
:10183000FFF7CCFC0346FB73FB7B002B1CD13B6802
:101840001B78002B03D03B681B78032B14D17B68DB
:1018500003F594703B689B881A46494905F032F8B5
:101860007B6803F594717B6803F594731A46786876
:10187000FFF7ACFC0346FB73FB7B002B28D13B68D6
:101880001B78002B03D03B681B78032B20D17B688F
:1018900003F594703B681B7A19463B685B7A1C46DB
:1018A0003B689B7A1A463B68DB7A01930092234699
:1018B0000A46344905F006F87B6803F594717B68A5
:1018C00003F594731A467868FFF780FC0346FB73B0
:1018D000FB7B002B18D13B681B78032B14D17B6852
:1018E00003F594703B685B781A46274904F0EAFFD9
:1018F0007B6803F594717B6803F594731A467868E6
:10190000FFF764FC0346FB73FB7B002B16D13B689F
:101910001B78032B12D17B6803F594731B4918467F
:1019200004F0D0FF7B6803F594717B6803F5947332
:101930001A467868FFF74AFC0346FB73FB7B002BD3
:1019400012D17B6803F594731149184604F0BAFF6D
:101950007B6803F594717B6803F594731A46786885
:10196000FFF734FC0346FB73FB7B18461437BD4678
:1019700090BD00BF648100086C810008748100087C
:101980007C81000884810008948100089C81000803
:10199000A481000880B584B000AF786039607B68AE
:1019A00003F594703B689B781A46154904F08AFF4A
:1019B0007B6803F594717B6803F594731A46786825
:1019C000FFF704FC0346FB73FB7B002B12D17B6803
:1019D00003F594730B49184604F074FF7B6803F514
:1019E00094717B6803F594731A467868FFF7EEFBF1
:1019F0000346FB73FB7B18461037BD4680BD00BF16
:101A000064810008AC81000880B588B002AFF8603E
:101A10007A601A460B46FB7213463B810223FB7425
:101A20007B6A002B02D101237B6101E07B6A7B6131
:101A30003B89B3F5966F02D34FF496633B813B6AC3
:101A40003A891A80FB6803F59473FA7A2D4918468F
:101A500004F038FFFB6803F59471FB6803F5947399
:101A60001A46F868FFF7B2FB0346FB74FB7C002BB9
:101A70003CD1FB6803F594737A692349184604F056
:101A800021FFFB6803F59471FB6803F594731A4614
:101A9000F868FFF79BFB0346FB74FB7C002B25D10A
:101AA000FB6803F594733A891849184604F00AFF55
:101AB000FB6803F59471FB6803F594733A8900930E
:101AC00013467A68F868FFF7E7FB0346FB74FB7C74
:101AD000002B0BD1FB6803F594730D49184604F0F5
:101AE00024FF0346002B01D00223FB74FB7C022B56
:101AF00002D13B6A00221A80FB7C18461837BD468B
:101B000080BD00BF64810008488200085082000840
:101B10005C82000880B588B002AFF8607A601A462F
:101B20000B46FB7213463B810223FB747B6A002B3E
:101B300002D101237B6101E07B6A7B613B89B3F5C4
:101B4000966F62D8FB6803F59473FA7A31491846A8
:101B500004F0B8FEFB6803F59471FB6803F5947319
:101B60001A46F868FFF732FB0346FB74FB7C002B38
:101B700046D1FB6803F594733A892749184604F067
:101B8000A1FEFB6803F59471FB6803F594731A4694
:101B9000F868FFF71BFB0346FB74FB7C002B2BD183
:101BA000FB6803F594737A691C49184604F08AFEB1
:101BB000FB6803F59471FB6803F594731A46F868A3
:101BC000FFF704FB0346FB74FB7C002B1DD1FB6875
:101BD00003F594731249184604F074FEFB6803F58C
:101BE00094713A893B6A009313467A68F868FFF764
:101BF000C9FB0346FB7408E03B6A00221A8004E03C
:101C0000084B1B680133074A1360FB7C18461837E2
:101C1000BD4680BD64810008648200086C820008B3
:101C200074820008A012002080B58CB000AF7860EC
:101C3000564B9B6D554A43F400439365534B9B6D44
:101C400003F40043BB61BB69504BDB6C4F4A43F06C
:101C50000203D3644D4BDB6C03F002037B617B69B1
:101C60004A4BDB6C494A43F00403D364474BDB6CBB
:101C700003F004033B613B69444BDB6C434A43F094
:101C80001003D364414BDB6C03F01003FB60FB6873
:101C900000224FF400513E4801F0F6F84FF4005393
:101CA000FB6101233B6200237B620023BB6207F1DF
:101CB0001C031946364800F03DFF0223FB61354BFB
:101CC0003B6200237B620023BB6207F11C031946C1
:101CD000314800F02FFF4FF48073FB6101233B621A
:101CE00000237B620023BB620023FB6207F11C031D
:101CF0001946294800F01EFF01220121264801F063
:101D0000C3F80123FB6101233B6200237B620123B3
:101D1000BB6207F11C0319461F4800F00BFF4FF48C
:101D20008063FB6102233B6200237B620123BB6271
:101D30000623FB6207F11C031946184800F0FAFE5F
:101D40004FF48053FB6102233B6200237B6201233B
:101D5000BB620623FB6207F11C0319460F4800F023
:101D6000E9FE4FF40063FB6102233B6201237B62C7
:101D70000123BB620623FB6207F11C0319460748D7
:101D800000F0D8FE00BF3037BD4680BD00100240D5
:101D9000000400480000111000100048000800482E
:101DA00080B584B000AF0346FB800023FB73FB8843
:101DB000002B45D1274B284A1A602648FFF734FFED
:101DC000244B4FF482725A60224B00229A60214BBE
:101DD0004FF47062DA601F4B00221A611D4B002223
:101DE0005A611C4B4FF400729A611A4B1022DA614F
:101DF000184B00221A62174B00225A62154B002220
:101E00009A62144B0022DA62124801F07FFF034607
:101E1000002B02D04FF0FF3318E0002200210720F2
:101E200000F0F3FD072000F00CFE0022002133201B
:101E300000F0EBFD332000F004FE0A2000F0FEF974
:101E400000F00CF80346FB7397F90F301846103773
:101E5000BD4680BDA4120020003C004080B584B087
:101E600000AF00F0C7FCB8600023FB7300224FF402
:101E70008071304801F008F80A2000F0C7FC012208
:101E80004FF480712B4800F0FFFF4FF4FA7000F020
:101E9000BDFC00220121274800F0F6FF0F2000F0D2
:101EA000CDF920E0FB7B3A46D1184FF6FF730122B3
:101EB000214802F033F80346FB71FB7B0233FB73CE
:101EC00000F098FC0246BB68D31AB3F5803F02D2FB
:101ED000FB79002B07D001220121164800F0D4FF26
:101EE0004FF0FF3321E00221124800F0B5FF034616
:101EF000012BD7D0012201210E4800F0C5FF3B780D
:101F0000152B0ED17B78152B0BD1BB780D2B08D15F
:101F1000FB780A2B05D13B793E2B02D17B79202B14
:101F200002D04FF0FF3300E0002318461037BD46C3
:101F300080BD00BF00100048A412002080B500AF93
:101F4000024801F0AFFF0023184680BDA412002014
:101F500080B584B000AF786000F04CFC0346FB60B5
:101F60000AE000F047FC0246FB68D21A7B689A42FE
:101F700002D94FF0FF3307E00221054800F06CFF63
:101F80000346012BEDD1002318461037BD4680BD16
:101F90000010004880B584B000AF786000F02AFCE3
:101FA0000346FB600AE000F025FC0246FB68D21AFB
:101FB0007B689A4202D94FF0FF3304E0044B1B6860
:101FC000012BF0D0002318461037BD4680BD00BF5E
:101FD0001013002080B584B000AF786000F00AFCD8
:101FE0000346FB600AE000F005FC0246FB68D21ADB
:101FF0007B689A4202D94FF0FF3304E0044B1B6820
:10200000012BF0D0002318461037BD4680BD00BF1D
:102010000813002080B584B000AF786000F0EAFBC0
:102020000346FB600AE000F0E5FB0246FB68D21ABB
:102030007B689A4202D94FF0FF3304E0044B1B68DF
:10204000012BF0D0002318461037BD4680BD00BFDD
:102050000C13002080B586B000AFF8600B467A60A4
:102060007B810023FB8201220121344800F00CFF18
:10207000032000F0E3F87B681846FFF78BFF034668
:10208000002B02DA6FF0020354E0002201212B48FA
:1020900000F0FAFE0F2000F0D1F83DE0B7F916206D
:1020A0007B899A4202DB7B89002B3CD1244B0122A5
:1020B0001A6007F1140301221946224802F090FC2D
:1020C0000346002B07D0012201211C4800F0DCFE52
:1020D0004FF0FF332EE07B681846FFF77BFF3A7D19
:1020E000FB681A70FB6801337A7D1A70FB8A023331
:1020F0009BB2FB82FB680233FB60B7F91630B3F585
:10210000FA6F09DB012201210C4800F0BDFEFFF748
:10211000A5FE6FF003030DE00221084800F09CFECD
:102120000346012BBAD001220121044800F0ACFE85
:10213000B7F9163018461837BD4680BD0010004864
:1021400008130020A412002080B586B000AFF8600C
:102150000B467A607B817B681846FFF7F9FE0346E1
:10216000002B02DA4FF0FF334FE02A4B01221A60B6
:1021700000220121284800F087FE0F2000F05EF8C1
:102180007B89012B19D9254B01221A607B895B08B9
:102190009BB21A46F968224802F080FB0346002BE6
:1021A00007D0012201211C4800F06EFE4FF0FF33E2
:1021B0002BE07B681846FFF72DFF7B8903F00103B6
:1021C000002B20D07B89013BFA6813441B783B75B8
:1021D0000A237B75114B01221A6007F114030122B7
:1021E00019460F4802F05AFB0346002B07D0012284
:1021F0000121094800F048FE4FF0FF3305E07B68FD
:102200001846FFF707FFB7F90A3018461837BD46DA
:1022100080BD00BF10130020001000480C130020E8
:10222000A412002080B582B000AF7860786800F01A
:10223000EDFA00BF0837BD4680BD000080B586B00E
:1022400000AF78600023BB6000237B61204B1B68DC
:10225000002B22D11F4B1B681F4AA2FB03239B09A3
:102260003B610023FB603B69BB6000F0C3FAF86090
:1022700002E0BB68013BBB60BB68002BF9D100F0FA
:10228000B9FA0246FB68D31A114A1360104B1B6857
:10229000002B02D10E4B01221A600E4B1B680F4A15
:1022A000A2FB03239A0C0A4B1B68B2FBF3F37B617E
:1022B0007B687A6902FB03F3BB6002E0BB68013B09
:1022C000BB60BB68002BF9D100BF1837BD4680BD8D
:1022D0001413002000000020D34D621083DE1B4346
:1022E00080B483B000AF7860064B1B68002B02D02F
:1022F000044B00221A6000BF0C37BD465DF8047B1A
:10230000704700BF0813002080B483B000AF78602E
:10231000064B1B68002B02D0044B00221A6000BF42
:102320000C37BD465DF8047B704700BF0C130020DE
:1023300080B400AF054B1B68012B02D1034B002278
:102340001A6000BFBD465DF8047B70471013002083
:1023500080B584B002AF0123FB710D4B01930D4B8F
:1023600000930D4B0D4A0E490E48FFF7CFF8034678
:10237000002B07D10B48FFF79BF80346002B01D138
:102380000023FB71FB7918460837BD4680BD00BFAE
:102390005520000849210008252200083D1F00089B
:1023A000A11D00081813002080B586B000AFF860AA
:1023B000B9601346FB710123FB75FB79BA68F968B4
:1023C0000948FFF7D7F80346002B07D10648FFF767
:1023D0007DF90346002B01D10023FB75FB7D1846D8
:1023E0001837BD4680BD00BF1813002080B584B0EB
:1023F00000AF78600123FB7379680648FFF790F916
:102400000346002B01D10023FB73FB7B18461037DA
:10241000BD4680BD1813002080B584B000AF786041
:102420000123FB730948FFF725F90346012B07D168
:10243000064BD3F8D5301A467B681A600023FB732D
:10244000FB7B18461037BD4680BD00BF1813002027
:1024500080B58AB000AFF8607A603B600B46FB72D3
:10246000012387F82730FB68DBB2BB743B8EBB824D
:10247000BB8EFB82FB7A002B14BF01230023DBB24F
:102480003B743B681B783B763B685B787B763B68AC
:102490009B78BB763B68DB78FB7607F11003194627
:1024A0000748FFF76FF90346002B02D1002387F896
:1024B000273097F8273018462837BD4680BD00BF23
:1024C0001813002080B588B000AF78600123FB7737
:1024D0007B68DBB2BB7207F1080319460648FFF7B9
:1024E00059FA0346002B01D10023FB77FB7F1846E6
:1024F0002037BD4680BD00BF1813002080B588B0CE
:1025000002AFB9607B600346FB731346BB810123B6
:10251000FB75BA89F97B3B6A01937B68009313468C
:10252000BA680648FFF770FA0346002B01D1002372
:10253000FB75FB7D18461837BD4680BD181300207B
:1025400080B588B002AFB9607B600346FB73134669
:10255000BB810123FB75BA89F97B3B6A01937B68D8
:1025600000931346BA680648FFF7D4FA0346002BD7
:1025700001D10023FB75FB7D18461837BD4680BD91
:102580001813002080B588B000AF0346FB71FB79BB
:10259000002B0BD1114BDB6C104A43F00203D364C8
:1025A0000E4BDB6C03F00203BB60BB684FF480434F
:1025B000FB6001233B6100237B610223BB61FB794C
:1025C000074A52F8233007F10C021146184600F072
:1025D000B1FA00BF2037BD4680BD00BF00100240E9
:1025E0000400002080B582B000AF0346FB71FB7988
:1025F000064A52F823304FF4804291B20122184625
:1026000000F042FC00BF0837BD4680BD040000203A
:1026100080B582B000AF0346FB71FB79064A52F8E1
:1026200023304FF4804292B21146184600F044FC29
:1026300000BF0837BD4680BD0400002080B58AB0C9
:1026400000AF03463960FB71FB79002B0BD12D4B9A
:10265000DB6C2C4A43F00203D3642A4BDB6C03F09F
:1026600002033B613B69FB79002B0BD1254BDB6CF3
:10267000244A43F00203D364224BDB6C03F00203D1
:10268000FB60FB68FB79002B0BD11E4B1B6E1D4AB8
:1026900043F4804313661B4B1B6E03F48043BB6003
:1026A000BB6840237B610223BB6102233B620023A2
:1026B000FB6107237B62FB79134A52F8233007F151
:1026C00014021146184600F035FA80237B6102237C
:1026D000BB6107237B62FB790C4A52F8233007F178
:1026E00014021146184600F025FAFB79084A52F800
:1026F00023203B681A60386803F09DF900BF283733
:10270000BD4680BD001002400C00002010000020DB
:102710000800002080B582B000AF0023FB710320C9
:1027200000F068F90F2000F015F80346002B02D0E6
:102730000123FB7101E000F005F8FB79184608372A
:10274000BD4680BD80B400AF00BFBD465DF8047BD0
:102750007047000080B584B000AF78600023FB7341
:10276000174B1B78002B23D0164B1A68144B1B7881
:1027700019464FF47A73B3FBF1F3B2FBF3F3184647
:1027800000F06DF90346002B0FD17B680F2B09D8A1
:10279000002279684FF0FF3000F037F90A4A7B6871
:1027A000136007E00123FB7304E00123FB7301E0E6
:1027B0000123FB73FB7B18461037BD4680BD00BF6D
:1027C00018000020000000201400002080B400AF9A
:1027D000064B1B781A46064B1B681344044A1360C9
:1027E00000BFBD465DF8047B704700BF18000020A5
:1027F000A81C002080B400AF034B1B681846BD46E0
:102800005DF8047B704700BFA81C002080B584B031
:1028100000AF7860FFF7EEFFB8607B68FB60FB6895
:10282000B3F1FF3F05D00A4B1B781A46FB681344EF
:10283000FB6000BFFFF7DEFF0246BB68D31AFA68F1
:102840009A42F7D800BF00BF1037BD4680BD00BF19
:102850001800002080B485B000AF78607B6803F07A
:102860000703FB600C4BDB68BB60BA684FF6FF03E5
:102870001340BB60FB681A02BB68134343F0BF639D
:1028800043F40033BB60044ABB68D36000BF143715
:10289000BD465DF8047B704700ED00E080B400AFFA
:1028A000044BDB681B0A03F007031846BD465DF8BE
:1028B000047B704700ED00E080B483B000AF0346B6
:1028C000FB7197F90730002B0BDBFB7903F01F023C
:1028D000074997F907305B09012000FA02F241F835
:1028E000232000BF0C37BD465DF8047B704700BF56
:1028F00000E100E080B483B000AF03463960FB71B3
:1029000097F90730002B0ADB3B68DAB20C4997F9DC
:1029100007301201D2B20B4483F800230AE03B686F
:10292000DAB20849FB7903F00F03043B1201D2B27B
:102930000B441A7600BF0C37BD465DF8047B704728
:1029400000E100E000ED00E080B489B000AFF86085
:10295000B9607A60FB6803F00703FB61FB69C3F1B0
:102960000703042B28BF0423BB61FB690433062B38
:1029700002D9FB69033B00E000237B614FF0FF328B
:10298000BB6902FA03F3DA43BB681A407B699A40D9
:102990004FF0FF317B6901FA03F3D9437B680B40A9
:1029A000134318462437BD465DF8047B704700008A
:1029B00080B582B000AF78607B68013BB3F1807F67
:1029C00001D301230FE00A4A7B68013B53600F21CA
:1029D0004FF0FF30FFF78EFF054B00229A60044B4B
:1029E00007221A60002318460837BD4680BD00BF85
:1029F00010E000E080B582B000AF78607868FFF743
:102A000029FF00BF0837BD4680BD80B586B000AF46
:102A10000346B9607A60FB7300237B61FFF73EFFDA
:102A200078617A68B9687869FFF78EFF024697F98E
:102A30000F3011461846FFF75DFF00BF1837BD463F
:102A400080BD80B582B000AF0346FB7197F90730B7
:102A50001846FFF731FF00BF0837BD4680BD80B57F
:102A600082B000AF78607868FFF7A2FF034618468F
:102A70000837BD4680BD80B584B000AF78600023C4
:102A8000FB737B6893F82530DBB2022B05D07B68A3
:102A90000422DA630123FB7347E07B681B681A6832
:102AA0007B681B6822F00E021A607B681B681A683C
:102AB0007B681B6822F001021A607B689B6C1A68B5
:102AC0007B689B6C22F480721A607B685B6C03F0FD
:102AD0001C027B681B6C012101FA02F25A607B68C0
:102AE000DB6C7A68126D5A607B685B6D002B0CD0D2
:102AF0007B685B6D1A687B685B6D22F480721A607C
:102B00007B689B6D7A68D26D5A607B68012283F87E
:102B100025207B68002283F824207B689B6B002B98
:102B200003D07B689B6B78689847FB7B184610370F
:102B3000BD4680BD80B487B000AF786039600023A7
:102B40007B6166E13B681A6801217B6901FA03F346
:102B50001340FB60FB68002B00F058813B685B680A
:102B6000012B0BD03B685B68022B07D03B685B688E
:102B7000112B03D03B685B68122B30D17B689B68BC
:102B80003B617B695B00032202FA03F3DB433A6992
:102B900013403B613B68DA687B695B0002FA03F330
:102BA0003A6913433B617B683A699A607B685B686A
:102BB0003B6101227B6902FA03F3DB433A6913406C
:102BC0003B613B685B681B0903F001027B6902FA09
:102BD00003F33A6913433B617B683A695A607B6847
:102BE000DB683B617B695B00032202FA03F3DB4392
:102BF0003A6913403B613B689A687B695B0002FA63
:102C000003F33A6913433B617B683A69DA603B68D6
:102C10005B68022B03D03B685B68122B23D17B6976
:102C2000DA087B68083253F822303B617B6903F095
:102C300007039B000F2202FA03F3DB433A691340B8
:102C40003B613B681A697B6903F007039B0002FA4A
:102C500003F33A6913433B617B69DA087B68083206
:102C6000396943F822107B681B683B617B695B0014
:102C7000032202FA03F3DB433A6913403B613B68EA
:102C80005B6803F003027B695B0002FA03F33A69B5
:102C900013433B617B683A691A603B685B6803F0E9
:102CA0008053002B00F0B280614B1B6E604A43F0F2
:102CB000010313665E4B1B6E03F00103BB60BB6830
:102CC0005C4A7B699B08023352F823303B617B6985
:102CD00003F003039B000F2202FA03F3DB433A697C
:102CE00013403B617B68B3F1904F2BD07B68524A15
:102CF000934225D07B68514A93421FD07B68504A4B
:102D0000934219D07B684F4A934213D07B684E4A56
:102D100093420DD07B684D4A934207D07B684C4A62
:102D2000934201D107230EE008230CE006230AE0BA
:102D3000052308E0042306E0032304E0022302E065
:102D4000012300E000237A6902F00302920093401D
:102D50003A6913433B6137497B699B0802333A69FF
:102D600041F823203B4B1B683B61FB68DB433A691E
:102D700013403B613B685B6803F48033002B03D056
:102D80003A69FB6813433B61324A3B691360314B3C
:102D90005B683B61FB68DB433A6913403B613B681E
:102DA0005B6803F40033002B03D03A69FB681343DC
:102DB0003B61284A3B695360264B9B683B61FB683B
:102DC000DB433A6913403B613B685B6803F4801363
:102DD000002B03D03A69FB6813433B611D4A3B69F2
:102DE00093601C4BDB683B61FB68DB433A69134033
:102DF0003B613B685B6803F40013002B03D03A6926
:102E0000FB6813433B61134A3B69D3607B69013321
:102E10007B613B681A687B6922FA03F3002B7FF41D
:102E200091AE00BF00BF1C37BD465DF8047B704704
:102E30000010024000000140000400480008004863
:102E4000000C00480010004800140048001800481A
:102E5000001C00480004014080B485B000AF7860D9
:102E60000B467B807B681A697B881340002B02D05D
:102E70000123FB7301E00023FB73FB7B184614372F
:102E8000BD465DF8047B704780B483B000AF7860C6
:102E90000B467B8013467B707B78002B03D07A88AF
:102EA0007B689A6102E07A887B689A6200BF0C377F
:102EB000BD465DF8047B704780B485B000AF786094
:102EC0000B467B807B685B69FB607A88FB681340FC
:102ED0001A04FB68D9437B880B401A437B689A61CC
:102EE00000BF1437BD465DF8047B704780B582B0E3
:102EF00000AF0346FB80084B5A69FB881340002B48
:102F000006D0054AFB885361FB881846FDF7E3FDB0
:102F100000BF0837BD4680BD0004014080B400AF4B
:102F20000D4B1B6803F4C063B3F5806F02D14FF4FF
:102F300080630BE0084BD3F8803003F48073B3F563
:102F4000807F02D14FF4007300E000231846BD4695
:102F50005DF8047B704700BF0070004080B588B00A
:102F600000AF78607B68002B02D1012300F016BC13
:102F7000964B9B6803F00C03BB61944BDB6803F03A
:102F800003037B617B681B6803F01003002B00F0D8
:102F9000E480BB69002B07D0BB690C2B40F08B8011
:102FA0007B69012B40F08780884B1B6803F002038C
:102FB000002B05D07B689B69002B01D10123EDE339
:102FC0007B681A6A814B1B6803F00803002B04D04E
:102FD0007E4B1B6803F0F00305E07C4BD3F8943084
:102FE0001B0903F0F003934223D27B681B6A184647
:102FF00000F0CAFD0346002B01D00123CEE3734B42
:103000001B68724A43F008031360704B1B6823F07F
:10301000F0027B681B6A6D4913430B606B4B5B6866
:1030200023F47F427B68DB691B02684913434B60D2
:1030300025E0664B1B68654A43F008031360634B49
:103040001B6823F0F0027B681B6A604913430B6026
:103050005E4B5B6823F47F427B68DB691B025B4944
:1030600013434B60BB69002B09D17B681B6A184670
:1030700000F08AFD0346002B01D001238EE300F00F
:10308000BFFC0246514B9B681B0903F00F035049DC
:10309000CB5C03F01F0322FA03F34E4A13604E4B3E
:1030A0001B681846FFF756FB0346FB73FB7B002BA0
:1030B00052D0FB7B72E37B689B69002B32D0434B81
:1030C0001B68424A43F001031360FFF793FB38612A
:1030D00008E0FFF78FFB02463B69D31A022B01D9A8
:1030E00003235BE3394B1B6803F00203002BF0D092
:1030F000364B1B68354A43F008031360334B1B689B
:1031000023F0F0027B681B6A304913430B602F4B9E
:103110005B6823F47F427B68DB691B022B49134306
:103120004B601AE0294B1B68284A23F00103136007
:10313000FFF760FB386108E0FFF75CFB02463B6984
:10314000D31A022B01D9032328E3204B1B6803F079
:103150000203002BF0D100E000BF7B681B6803F086
:103160000103002B73D0BB69082B05D0BB690C2B66
:103170000ED17B69032B0BD1144B1B6803F4003376
:10318000002B63D07B685B68002B5FD1012305E3D4
:103190007B685B68B3F5803F06D10C4B1B680B4A1C
:1031A00043F48033136025E07B685B68B3F5A02FA0
:1031B00014D1064B1B68054A43F480231360034B6C
:1031C0001B68024A43F48033136013E0001002408E
:1031D000B48200080000002014000020A04B1B68EF
:1031E0009F4A23F4803313609D4B1B689C4A23F451
:1031F000802313607B685B68002B13D0FFF7FAFA1B
:10320000386108E0FFF7F6FA02463B69D31A642BEF
:1032100001D90323C2E2924B1B6803F40033002B55
:10322000F0D014E0FFF7E6FA386108E0FFF7E2FAC1
:1032300002463B69D31A642B01D90323AEE2884BC3
:103240001B6803F40033002BF0D100E000BF7B6863
:103250001B6803F00203002B60D0BB69042B05D070
:10326000BB690C2B19D17B69022B16D17C4B1B68D7
:1032700003F48063002B05D07B68DB68002B01D151
:1032800001238BE2764B5B6823F0FE427B681B696F
:103290001B06734913434B6040E07B68DB68002BDF
:1032A00023D06F4B1B686E4A43F480731360FFF7A3
:1032B000A1FA386108E0FFF79DFA02463B69D31A8C
:1032C000022B01D9032369E2654B1B6803F4806379
:1032D000002BF0D0624B5B6823F0FE427B681B69D9
:1032E0001B065F4913434B6018E05D4B1B685C4A4B
:1032F00023F480731360FFF77DFA386108E0FFF76D
:1033000079FA02463B69D31A022B01D9032345E21D
:10331000534B1B6803F48063002BF0D17B681B6860
:1033200003F00803002B3CD07B685B69002B1CD0AA
:103330004B4BD3F894304A4A43F00103C2F894301F
:10334000FFF758FA386108E0FFF754FA02463B6984
:10335000D31A022B01D9032320E2414BD3F8943036
:1033600003F00203002BEFD01BE03D4BD3F8943069
:103370003B4A23F00103C2F89430FFF73BFA38616F
:1033800008E0FFF737FA02463B69D31A022B01D94E
:10339000032303E2324BD3F8943003F00203002BF3
:1033A000EFD17B681B6803F00403002B00F0A680BC
:1033B0000023FB772A4B9B6D03F08053002B0DD12C
:1033C000274B9B6D264A43F080539365244B9B6D9E
:1033D00003F08053BB60BB680123FB77214B1B6864
:1033E00003F48073002B18D11E4B1B681D4A43F455
:1033F00080731360FFF7FEF9386108E0FFF7FAF910
:1034000002463B69D31A022B01D90323C6E1154BAF
:103410001B6803F48073002BF0D07B689B68012B42
:1034200008D10F4BD3F890300D4A43F00103C2F896
:10343000903029E07B689B68052B15D1084BD3F8A9
:103440009030074A43F00403C2F89030044BD3F89D
:103450009030034A43F00103C2F8903014E000BFFB
:1034600000100240007000409D4BD3F890309C4A01
:1034700023F00103C2F89030994BD3F89030984A6A
:1034800023F00403C2F890307B689B68002B16D0B1
:10349000FFF7B0F938610AE0FFF7ACF902463B6983
:1034A000D31A41F28832934201D9032376E18C4B3F
:1034B000D3F8903003F00203002BEDD015E0FFF7B6
:1034C00099F938610AE0FFF795F902463B69D31A8A
:1034D00041F28832934201D903235FE1804BD3F854
:1034E000903003F00203002BEDD1FB7F012B05D1BF
:1034F0007B4B9B6D7A4A23F0805393657B681B68F6
:1035000003F02003002B3CD07B685B6A002B1CD0AF
:10351000734BD3F89830724A43F00103C2F89830E5
:10352000FFF768F9386108E0FFF764F902463B6984
:10353000D31A022B01D9032330E1694BD3F8983019
:1035400003F00203002BEFD01BE0654BD3F898305B
:10355000634A23F00103C2F89830FFF74BF9386152
:1035600008E0FFF747F902463B69D31A022B01D95D
:10357000032313E15A4BD3F8983003F00203002BD6
:10358000EFD17B689B6A002B00F007817B689B6A08
:10359000022B40F0CF80524BDB687B617B6903F0EC
:1035A00003027B68DB6A9A422CD17B6903F0F0024C
:1035B0007B681B6B013B1B019A4223D17B6903F49F
:1035C000FE427B685B6B1B029A421BD17B6903F056
:1035D00078427B689B6BDB069A4213D17B6903F4CC
:1035E000C0027B68DB6B5B08013B5B059A4209D13B
:1035F0007B6903F0C0627B681B6C5B08013B5B0668
:103600009A4271D0BB690C2B68D0354B1B6803F014
:103610008063002B05D1324B1B6803F08053002BD5
:1036200001D00123BAE02E4B1B682D4A23F0807392
:103630001360FFF7DFF8386108E0FFF7DBF80246B8
:103640003B69D31A022B01D90323A7E0244B1B6843
:1036500003F00073002BF0D1214BDA68214B1340AB
:103660007A68D16A7A68126B013A120111437A685A
:10367000526B120211437A68D26B5208013A52051A
:1036800011437A68126C5208013A520611437A6863
:10369000926BD2060A4312491343CB60104B1B684E
:1036A0000F4A43F0807313600D4BDB680C4A43F004
:1036B0008073D360FFF79EF8386108E0FFF79AF84F
:1036C00002463B69D31A022B01D9032366E0044B5F
:1036D0001B6803F00073002BF0D05EE001235DE077
:1036E000001002400C809D012E4B1B6803F00073FC
:1036F000002B52D12B4B1B682A4A43F08073136076
:10370000284BDB68274A43F08073D360FFF772F8D9
:10371000386108E0FFF76EF802463B69D31A022BC6
:1037200001D903233AE01F4B1B6803F00073002B01
:10373000F0D032E0BB690C2B2DD01A4B1B68194A14
:1037400023F080731360174B1B6803F02053002B8A
:1037500005D1144BDB68134A23F00303D360114BEC
:10376000DB68104A23F0887323F48033D360FFF7BB
:1037700041F8386108E0FFF73DF802463B69D31A8B
:10378000022B01D9032309E0064B1B6803F00073E9
:10379000002BF0D101E0012300E000231846203780
:1037A000BD4680BD0010024080B586B000AF786095
:1037B000396000237B617B68002B01D101230FE17D
:1037C000894B1B6803F00F033A689A4210D9864B65
:1037D0001B6823F00F0284493B6813430B60824B44
:1037E0001B6803F00F033A689A4201D00123F7E007
:1037F0007B681B6803F00103002B00F089807B6865
:103800005B68032B33D1794B1B6803F00073002BEB
:1038100001D10123E4E000F011FA0346744A934217
:1038200055D9724B9B6803F0F003002B0AD16F4B04
:103830009B6823F0F0036D4A43F08003936080237C
:103840007B6144E07B681B6803F00203002B3ED0E1
:103850007B689B68002B3AD1644B9B6823F0F00394
:10386000624A43F08003936080237B612FE07B6892
:103870005B68022B07D15D4B1B6803F40033002B00
:1038800015D10123ACE07B685B68002B07D1574B57
:103890001B6803F00203002B09D10123A0E0534B66
:1038A0001B6803F48063002B01D1012398E000F032
:1038B000A7F803464E4A934209D94C4B9B6823F024
:1038C000F0034A4A43F08003936080237B61474BB7
:1038D0009B6823F003027B685B68444913438B6059
:1038E000FEF788FF38610AE0FEF784FF02463B6975
:1038F000D31A41F28832934201D9032370E03B4B43
:103900009B6803F00C027B685B689B009A42EBD1DA
:103910007B681B6803F00203002B09D0334B9B68C4
:1039200023F0F0027B689B68304913438B6008E00A
:103930007B69802B05D12D4B9B682C4A23F0F0032B
:103940009360294B1B6803F00F033A689A4210D228
:10395000254B1B6823F00F0223493B6813430B6080
:10396000214B1B6803F00F033A689A4201D00123F0
:1039700036E07B681B6803F00403002B08D01B4B68
:103980009B6823F4E0627B68DB68184913438B6013
:103990007B681B6803F00803002B09D0134B9B685E
:1039A00023F460527B681B69DB00104913438B6072
:1039B00000F026F802460D4B9B681B0903F00F032D
:1039C0000C49CB5C03F01F0322FA03F30A4A13608D
:1039D0000A4B1B681846FEF7BDFE0346FB73FB7BD4
:1039E00018461837BD4680BD002002400010024036
:1039F00000B4C404B48200080000002014000020B9
:103A000080B489B000AF0023FB610023BB613E4B53
:103A10009B6803F00C033B613B4BDB6803F0030343
:103A2000FB603B69002B05D03B690C2B21D1FB6867
:103A3000012B1ED1344B1B6803F00803002B07D168
:103A4000314BD3F894301B0A03F00F03FB6105E000
:103A50002D4B1B681B0903F00F03FB612B4AFB690D
:103A600052F82330FB613B69002B0DD1FB69BB6130
:103A70000AE03B69042B02D1254BBB6104E03B69A2
:103A8000082B01D1234BBB613B690C2B34D11E4B5E
:103A9000DB6803F00303BB60BB68022B03D0BB6889
:103AA000032B03D005E01A4B7B6105E0194B7B61CA
:103AB00002E0FB697B6100BF134BDB681B0903F06D
:103AC0000F0301337B60104BDB681B0A03F07F039D
:103AD0007A6903FB02F27B68B2FBF3F37B610A4B6A
:103AE000DB685B0E03F0030301335B003B607A6924
:103AF0003B68B2FBF3F3BB61BB6918462437BD4694
:103B00005DF8047B704700BF00100240CC820008C3
:103B10000024F40000127A0080B400AF034B1B684D
:103B20001846BD465DF8047B704700BF00000020CA
:103B300080B500AFFFF7F0FF0246064B9B681B0AFB
:103B400003F007030449CB5C03F01F0322FA03F3DD
:103B5000184680BD00100240C482000880B500AF46
:103B6000FFF7DAFF0246064B9B68DB0A03F0070308
:103B70000449CB5C03F01F0322FA03F3184680BD0F
:103B800000100240C482000880B586B000AF7860A3
:103B900000233B61274B9B6D03F08053002B03D028
:103BA000FFF7BCF9786114E0224B9B6D214A43F08A
:103BB000805393651F4B9B6D03F08053FB60FB6844
:103BC000FFF7ACF978611B4B9B6D1A4A23F08053C9
:103BD00093657B69B3F5007F0BD17B68802B13D98C
:103BE0007B68A02B02D902233B610DE001233B61DE
:103BF0000AE07B687F2B02D902233B6104E07B68EB
:103C0000702B01D101233B610B4B1B6823F00F028A
:103C100009493B6913430B60074B1B6803F00F0313
:103C20003A699A4201D0012300E000231846183770
:103C3000BD4680BD001002400020024080B487B025
:103C400000AF00237B612D4BDB6803F00303012BE6
:103C500018D12A4B1B6803F00803002B07D1274B10
:103C6000D3F894301B0A03F00F037B6105E0234B6C
:103C70001B681B0903F00F037B61214A7B6952F823
:103C800023307B611D4BDB6803F00303FB60FB68A3
:103C9000022B03D0FB68032B03D005E0194B3B61DB
:103CA00005E0194B3B6102E07B693B6100BF134BB0
:103CB000DB681B0903F00F030133BB600F4BDB68AC
:103CC0001B0A03F07F033A6903FB02F2BB68B2FBF5
:103CD000F3F33B61094BDB685B0E03F00303013335
:103CE0005B007B603A697B68B2FBF3F33B603B6847
:103CF00018461C37BD465DF8047B70470010024033
:103D0000CC8200080024F40000127A0080B584B050
:103D100000AF78607B68002B01D10123BEE07B6897
:103D20005B6A002B08D17B685B68B3F5827F09D0A2
:103D30007B680022DA6105E07B6800221A617B68FB
:103D400000225A617B6893F85D30DBB2002B06D10C
:103D50007B68002283F85C20786800F0CBF87B68F1
:103D6000022283F85D207B681B681A687B681B68E9
:103D700022F040021A607B68DB68B3F5E06F02D97D
:103D80000023FB6002E04FF48053FB607B68DB683C
:103D9000B3F5706F07D07B68DB68B3F5E06F02D0D6
:103DA0007B6800229A627B685B6803F482727B689E
:103DB0009B6803F404431A437B681B6903F0020306
:103DC0001A437B685B6903F001031A437B689B69B4
:103DD00003F400731A437B68DB6903F038031A436A
:103DE0007B681B6A03F0800342EA03017B689B6ADD
:103DF00003F400527B681B680A431A607B689B6A65
:103E0000B3F5005F1BD17B681B6B002B0BD17B686C
:103E1000DB68B3F5E06F03D97B6802221A6302E026
:103E20007B6801221A637B681B6B022B07D17B68BE
:103E30001B681A687B681B6842F400621A607B6822
:103E40009B691B0C03F004027B685B6A03F01003A0
:103E50001A437B685B6B03F008031A437B68DB68DB
:103E600003F4706342EA0301FB6803F480527B6849
:103E70001B680A435A607B689B6AB3F5005F05D1F3
:103E80007B68DA6A7B681B6892B21A617B680022E1
:103E90001A667B68012283F85D20002318461037DC
:103EA000BD4680BD80B582B000AF78607B68002BD6
:103EB00001D101231AE07B68022283F85D207B6830
:103EC0001B681A687B681B6822F040021A607868D9
:103ED00000F01AF87B6800221A667B68002283F8DB
:103EE0005D207B68002283F85C2000231846083799
:103EF000BD4680BD80B483B000AF786000BF0C3792
:103F0000BD465DF8047B704780B483B000AF786035
:103F100000BF0C37BD465DF8047B704780B58AB0A2
:103F200002AFF860B9603B601346FB8000237B6101
:103F30000023FB77FB685B68B3F5827F12D1FB68D7
:103F40009B68002B0ED1FB68042283F85D20FA8861
:103F50003B6800931346BA68B968F86800F0BBF98B
:103F60000346B4E1FB6893F85C30012B01D10223D6
:103F7000ADE1FB68012283F85C20FEF73BFCB861F1
:103F8000FB6893F85D30DBB2012B02D00223FB7794
:103F900094E1BB68002B02D0FB88002B02D10123E7
:103FA000FB778BE1FB68042283F85D20FB6800222D
:103FB0001A66FB68BA681A64FB68FA88A3F844209A
:103FC000FB68FA88A3F84620FB6800229A63FB6826
:103FD00000229A87FB680022DA87FB680022DA64F5
:103FE000FB6800221A65FB689B6AB3F5005F18D175
:103FF000FB681B681A68FB681B6822F400521A6091
:10400000FB681B681A68FB681B6842F400521A6060
:10401000FB68B3F846309BB2013B9AB2FB68A3F849
:104020004620FB68DB68B3F5E06F08D9FB681B68C6
:104030005A68FB681B6822F480525A6007E0FB68EC
:104040001B685A68FB681B6842F480525A60FB6820
:104050009B68B3F5004F0FD1FB681B681A68FB68BB
:104060001B6822F040021A60FB681B681A68FB6834
:104070001B6822F480421A60FB681B681B6803F00F
:104080004003402B07D0FB681B681A68FB681B685D
:1040900042F040021A60FB68DB68B3F5E06F67D856
:1040A00030E0FB681B689B6803F00103012B17D10C
:1040B000FB681B6803F10C02FB681B6C1278D2B220
:1040C0001A70FB681B6C5A1CFB681A64FB68B3F817
:1040D00046309BB2013B9AB2FB68A3F8462011E040
:1040E000FEF788FB0246BB69D31A3A689A4203D8A6
:1040F0003B68B3F1FF3F02D13B68002B02D10323A1
:10410000FB77DBE0FB68B3F846309BB2002BC8D1ED
:1041100034E0FB681B689B6803F00103012B15D199
:10412000FB681B68DA68FB681B6C92B21A80FB683C
:104130001B6C9A1CFB681A64FB68B3F846309BB290
:10414000013B9AB2FB68A3F8462011E0FEF752FB50
:104150000246BB69D31A3A689A4203D83B68B3F166
:10416000FF3F02D13B68002B02D10323FB77A5E080
:10417000FB68B3F846309BB2002BCAD1FB689B6A40
:10418000B3F5005F75D1FB681B681A68FB681B6894
:1041900042F480521A60BB6900933B6801220121FE
:1041A000F86801F0AFF90346002B02D00323FB7738
:1041B00084E0FB68DB68B3F5E06F07D9FB681B6838
:1041C000DA68FB681B6C92B21A8008E0FB681B6817
:1041D00003F10C02FB681B6C1278D2B21A70BB6937
:1041E00000933B6801220121F86801F08BF9034636
:1041F000002B08D0FB681B6E43F00202FB681A66B6
:104200000323FB775AE0FB68DB68B3F5706F05D1D9
:10421000FB681B68DB687B617B692AE0FB681B68C5
:104220000C331B78DBB27B617B69FB68DB68B3F521
:10423000E06F1ED1FB681B6B022B1AD1BB69009388
:104240003B6801220121F86801F05CF90346002B6C
:1042500008D0FB681B6E43F00202FB681A6603235A
:10426000FB772BE0FB681B680C331B78DBB27B61B0
:104270007B69BA693968F86801F05EFA0346002B79
:1042800002D0FB6820221A66FB681B689B6803F05B
:104290001003102B0AD1FB681B6E43F00202FB686F
:1042A0001A66FB681B684FF6EF729A60FB681B6E1C
:1042B000002B02D00123FB7700E000BFFB68012246
:1042C00083F85D20FB68002283F85C20FB7F1846A2
:1042D0002037BD4680BD80B590B002AFF860B960B0
:1042E0007A607B8000237B6101237B63002387F856
:1042F0003330FB6893F85C30012B01D10223C8E214
:10430000FB68012283F85C20FEF774FAF862FB6810
:1043100093F85D3087F82B30FB685B687B627B88A5
:104320007B847B883B84FB681B681B68FB61FB68A4
:104330001B685B68BB6197F82B30012B0FD07B6A41
:10434000B3F5827F07D1FB689B68002B03D197F8F8
:104350002B30042B03D0022387F833308FE2BB6865
:10436000002B05D07B68002B02D07B88002B03D16B
:10437000012387F8333082E2FB6893F85D30DBB2CB
:10438000042B03D0FB68052283F85D20FB68002224
:104390001A66FB687A681A64FB687A88A3F8462074
:1043A000FB687A88A3F84420FB68BA689A63FB68C4
:1043B0007A88DA87FB687A889A87FB680022DA6451
:1043C000FB6800221A65FB689B6AB3F5005F0FD19A
:1043D000FB681B681A68FB681B6822F400521A60AD
:1043E000FB681B681A68FB681B6842F400521A607D
:1043F000FB68DB68B3F5E06F02D83B8C012B08D972
:10440000FB681B685A68FB681B6822F480525A607C
:1044100007E0FB681B685A68FB681B6842F480521F
:104420005A60FB681B681B6803F04003402B07D0F1
:10443000FB681B681A68FB681B6842F040021A6040
:10444000FB68DB68B3F5E06F40F2A480FB685B6853
:10445000002B03D07B8C012B40F08E80FB689B6B84
:104460001A88FB681B68DA60FB689B6B9A1CFB6808
:104470009A63FB68DB8F9BB2013B9AB2FB68DA87D9
:104480007AE0FB681B689B6803F00203022B3FD1B4
:10449000FB68DB8F9BB2002B3AD07B6B012B37D1B3
:1044A000FB689B6B1A88FB681B68DA60FB689B6B78
:1044B0009A1CFB689A63FB68DB8F9BB2013B9AB244
:1044C000FB68DA8700237B63FB68DB8F9BB2002BE2
:1044D0001ED1FB689B6AB3F5005F19D1FB6903F03D
:1044E0000403002B0CD1BB6903F00803002B07D099
:1044F000FB681B681A68FB681B6842F400721A604C
:10450000FB681B681A68FB681B6842F480521A60DB
:10451000FB681B689B6803F00103012B1CD1FB683F
:10452000B3F846309BB2002B16D0FB681B68DA68E4
:10453000FB681B6C92B21A80FB681B6C9A1CFB68B0
:104540001A64FB68B3F846309BB2013B9AB2FB6831
:10455000A3F8462001237B63FEF74CF90246FB6A71
:10456000D31A3A6C9A4207D83B6CB3F1FF3F03D0A1
:10457000032387F8333082E1FB68DB8F9BB2002B8B
:104580007FF47FAFFB68B3F846309BB2002B7FF41B
:1045900078AF03E1FB685B68002B03D07B8C012BB9
:1045A00040F0EF80FB68DB8F9BB2012B12D9FB68D8
:1045B0009B6B1A88FB681B68DA60FB689B6B9A1C14
:1045C000FB689A63FB68DB8F9BB2023B9AB2FB6885
:1045D000DA87D6E0FB689A6BFB681B680C331278AD
:1045E0001A70FB689B6B5A1CFB689A63FB68DB8F35
:1045F0009BB2013B9AB2FB68DA87C2E0FB681B689A
:104600009B6803F00203022B58D1FB68DB8F9BB23F
:10461000002B53D07B6B012B50D1FB68DB8F9BB2FF
:10462000012B12D9FB689B6B1A88FB681B68DA6048
:10463000FB689B6B9A1CFB689A63FB68DB8F9BB2E1
:10464000023B9AB2FB68DA8712E0FB689A6BFB6860
:104650001B680C3312781A70FB689B6B5A1CFB6842
:104660009A63FB68DB8F9BB2013B9AB2FB68DA87E7
:1046700000237B63FB68DB8F9BB2002B1ED1FB68A2
:104680009B6AB3F5005F19D1FB6903F00403002BAB
:104690000CD1BB6903F00803002B07D0FB681B6833
:1046A0001A68FB681B6842F400721A60FB681B689A
:1046B0001A68FB681B6842F480521A60FB681B682A
:1046C0009B6803F00103012B48D1FB68B3F8463027
:1046D0009BB2002B42D0FB68B3F846309BB2012B53
:1046E00023D9FB681B68DA68FB681B6C92B21A80DE
:1046F000FB681B6C9A1CFB681A64FB68B3F84630B5
:104700009BB2023B9AB2FB68A3F84620FB68B3F861
:1047100046309BB2012B1FD8FB681B685A68FB68A8
:104720001B6842F480525A6016E0FB681B6803F174
:104730000C02FB681B6C1278D2B21A70FB681B6CFF
:104740005A1CFB681A64FB68B3F846309BB2013B05
:104750009AB2FB68A3F8462001237B63FEF74AF870
:104760000246FB6AD31A3A6C9A4203D83B6CB3F107
:10477000FF3F02D13B6C002B03D1032387F833307A
:104780007DE0FB68DB8F9BB2002B7FF437AFFB68CB
:10479000B3F846309BB2002B7FF430AFFB689B6AC6
:1047A000B3F5005F46D1FB6A00933B6C0122012107
:1047B000F86800F0A7FE0346002B09D0FB681B6ECB
:1047C00043F00202FB681A66032387F8333056E091
:1047D000FB68DB68B3F5706F05D1FB681B68DB68AD
:1047E0007B617B6926E0FB681B680C331B78DBB2BE
:1047F0007B617B69FB681B6B022B1BD1FB6A0093FF
:104800003B6C01220121F86800F07CFE0346002B7E
:1048100009D0FB681B6E43F00202FB681A66032393
:1048200087F833302BE0FB681B680C331B78DBB256
:104830007B617B69FB681B689B6803F01003102B8E
:104840000DD1FB681B6E43F00202FB681A66FB6821
:104850001B684FF6EF729A60012387F83330FA6ACB
:10486000396CF86800F0C0FF0346002B06D0012326
:1048700087F83330FB6820221A6600E000BFFB682F
:10488000012283F85D20FB68002283F85C2097F802
:10489000333018463837BD4680BD000080B487B03D
:1048A00000AFF860B9601346FB800023FB75FB681E
:1048B00093F85C30012B01D1022387E0FB680122D1
:1048C00083F85C20BB68002B02D0FB88002B02D150
:1048D0000123FB7575E0FB6893F85D30DBB2012BBB
:1048E00002D00223FB756CE0FB68032283F85D2095
:1048F000FB6800221A66FB68BA689A63FB68FA884C
:104900009A87FB68FA88DA87FB6800221A64FB68DA
:104910000022A3F84420FB680022A3F84620FB688D
:104920000022DA64FB68DB68B3F5E06F03D9FB684B
:10493000294A1A6502E0FB68284A1A65FB689B68E9
:10494000B3F5004F0FD1FB681B681A68FB681B6842
:1049500022F040021A60FB681B681A68FB681B683B
:1049600042F480421A60FB689B6AB3F5005F0FD186
:10497000FB681B681A68FB681B6822F400521A6007
:10498000FB681B681A68FB681B6842F400521A60D7
:10499000FB681B685A68FB681B6842F0A0025A60FB
:1049A000FB681B681B6803F04003402B08D0FB68C2
:1049B0001B681A68FB681B6842F040021A6000E03E
:1049C00000BFFB68002283F85C20FB7D18461C3783
:1049D000BD465DF8047B7047A554000845540008A7
:1049E00080B586B000AFF860B9601346FB80002345
:1049F000FB75FB689B68002B10D1FB685B68B3F507
:104A0000827F0BD1FB68042283F85D20FB88BA68A3
:104A1000B968F86800F0BCF80346B1E0FB6893F8A9
:104A20005C30012B01D10223AAE0FB68012283F84C
:104A30005C20FB6893F85D30DBB2012B02D00223CF
:104A4000FB7598E0BB68002B02D0FB88002B02D1DD
:104A50000123FB758FE0FB68042283F85D20FB686F
:104A600000221A66FB68BA681A64FB68FA88A3F821
:104A70004420FB68FA88A3F84620FB6800229A636A
:104A8000FB6800229A87FB680022DA87FB68002215
:104A90001A65FB68DB68B3F5E06F0BD9FB681B6830
:104AA0005A68FB681B6822F480525A60FB68364AD9
:104AB000DA640AE0FB681B685A68FB681B6842F40A
:104AC00080525A60FB68314ADA64FB689B68B3F530
:104AD000004F0FD1FB681B681A68FB681B6822F047
:104AE00040021A60FB681B681A68FB681B6822F4A6
:104AF00080421A60FB689B6AB3F5005F1FD1FB68B8
:104B000001229A64FB68DB68B3F5E06F06D8FB68A6
:104B10001B6B022B02D1FB6802229A64FB681B68A4
:104B20001A68FB681B6822F400521A60FB681B6855
:104B30001A68FB681B6842F400521A6002E0FB68C6
:104B400000229A64FB681B685A68FB681B6842F085
:104B500060025A60FB681B681B6803F04003402B2F
:104B600008D0FB681B681A68FB681B6842F04002AB
:104B70001A6000E000BFFB68002283F85C20FB7D28
:104B800018461837BD4680BDBD530008FD520008C9
:104B900080B487B000AFF860B9607A607B80002392
:104BA000FB75FB6893F85C30012B01D10223B9E05F
:104BB000FB68012283F85C20FB6893F85D30BB75CD
:104BC000FB685B683B61BB7D012B0DD03B69B3F596
:104BD000827F06D1FB689B68002B02D1BB7D042B32
:104BE00002D00223FB7598E0BB68002B05D07B68E0
:104BF000002B02D07B88002B02D10123FB758CE0B7
:104C0000FB6893F85D30DBB2042B03D0FB68052210
:104C100083F85D20FB6800221A66FB68BA689A6315
:104C2000FB687A889A87FB687A88DA87FB687A68F3
:104C30001A64FB687A88A3F84420FB687A88A3F892
:104C40004620FB68DB68B3F5E06F06D9FB68384A9D
:104C5000DA64FB68374A1A6505E0FB68364ADA64AD
:104C6000FB68364A1A65FB689B6AB3F5005F1FD183
:104C7000FB6801229A64FB68DB68B3F5E06F06D835
:104C8000FB681B6B022B02D1FB6802229A64FB6853
:104C90001B681A68FB681B6822F400521A60FB68E4
:104CA0001B681A68FB681B6842F400521A6002E035
:104CB000FB6800229A64FB68DB68B3F5E06F02D8FA
:104CC0007B88012B08D9FB681B685A68FB681B6846
:104CD00022F480525A6007E0FB681B685A68FB6840
:104CE0001B6842F480525A60FB681B685A68FB6874
:104CF0001B6842F0E0025A60FB681B681B6803F007
:104D00004003402B08D0FB681B681A68FB681B68CF
:104D100042F040021A6000E000BFFB68002283F806
:104D20005C20FB7D18461C37BD465DF8047B704750
:104D30008951000839520008954F0008CD500008ED
:104D400080B588B000AF78607B681B685B68FB61EA
:104D50007B681B689B68BB61BB699B0903F001030F
:104D6000002B0FD1BB6903F00103002B0AD0FB69B4
:104D70009B0903F00103002B04D07B68DB6C78688F
:104D80009847D7E0BB695B0803F00103002B0AD00A
:104D9000FB69DB0903F00103002B04D07B681B6D6A
:104DA00078689847C6E0BB695B0903F00103002BF4
:104DB0000CD1BB699B0903F00103002B06D1BB6931
:104DC0001B0A03F00103002B00F0B480FB695B09B0
:104DD00003F00103002B00F0AD80BB699B0903F0D9
:104DE0000103002B23D07B6893F85D30DBB2032BEB
:104DF00011D07B681B6E43F004027B681A660023A7
:104E00007B617B681B68DB687B617B681B689B68D8
:104E10007B617B690BE000233B617B681B68DB687F
:104E20003B617B681B689B683B613B6982E0BB69B7
:104E30005B0903F00103002B14D07B681B6E43F069
:104E400001027B681A660023FB607B681B689B6815
:104E5000FB607B681B681A687B681B6822F0400255
:104E60001A60FB68BB691B0A03F00103002B0CD01E
:104E70007B681B6E43F008027B681A660023BB60E8
:104E80007B681B689B68BB60BB687B681B6E002BE4
:104E90004FD07B681B685A687B681B6822F0E00271
:104EA0005A607B68012283F85D20FB6903F00203EE
:104EB000002B04D1FB6903F00103002B34D07B6885
:104EC0001B685A687B681B6822F003025A607B6883
:104ED0009B6D002B11D07B689B6D184A9A637B6891
:104EE0009B6D1846FDF7C7FD0346002B05D07B6878
:104EF0001B6E43F040027B681A667B685B6D002B7B
:104F000016D07B685B6D0D4A9A637B685B6D1846B3
:104F1000FDF7B1FD0346002B0AD07B681B6E43F002
:104F200040027B681A6603E0786800F013F800E03E
:104F300000BF00BF2037BD4680BD00BF694F0008DD
:104F400080B483B000AF786000BF0C37BD465DF819
:104F5000047B704780B483B000AF786000BF0C372B
:104F6000BD465DF8047B704780B584B000AF7860C3
:104F70007B689B6AFB60FB680022A3F84620FB6805
:104F80000022DA87F868FFF7E5FF00BF1037BD465B
:104F900080BD000080B582B000AF78607B68B3F858
:104FA00046309BB2012B23D97B681B68DA687B688B
:104FB0001B6C92B21A807B681B6C9A1C7B681A640B
:104FC0007B68B3F846309BB2023B9AB27B68A3F889
:104FD00046207B68B3F846309BB2012B1FD17B681B
:104FE0001B685A687B681B6842F480525A6016E05E
:104FF0007B681B6803F10C027B681B6C1278D2B2D1
:105000001A707B681B6C5A1C7B681A647B68B3F847
:1050100046309BB2013B9AB27B68A3F846207B687E
:10502000B3F846309BB2002B20D17B689B6AB3F566
:10503000005F0BD17B681B685A687B681B6842F471
:1050400080525A607B680B4ADA640FE07B681B6809
:105050005A687B681B6822F060025A607B68DB8FAD
:105060009BB2002B02D1786800F004FC0837BD46E3
:1050700080BD00BF7950000880B584B000AF786073
:105080000023FB607B681B680C331B78DBB2FB6082
:10509000FB687B689B6C5A1E7B689A647B689B6C80
:1050A000002B0FD17B681B685A687B681B6822F055
:1050B00060025A607B68DB8F9BB2002B02D178685C
:1050C00000F0D8FB00BF1037BD4680BD80B582B070
:1050D00000AF78607B68DB8F9BB2012B12D97B68B5
:1050E0009B6B1A887B681B68DA607B689B6B9A1CD9
:1050F0007B689A637B68DB8F9BB2023B9AB27B68CA
:10510000DA8712E07B689A6B7B681B680C33127835
:105110001A707B689B6B5A1C7B689A637B68DB8F79
:105120009BB2013B9AB27B68DA877B68DB8F9BB2CC
:10513000002B26D17B689B6AB3F5005F10D17B689A
:105140001B681A687B681B6842F480521A607B688F
:105150001B685A687B681B6822F080025A6010E066
:105160007B681B685A687B681B6822F080025A6063
:105170007B68B3F846309BB2002B02D1786800F010
:1051800079FB0837BD4680BD80B582B000AF78603E
:105190007B681B68DA687B681B6C92B21A807B683C
:1051A0001B6C9A1C7B681A647B68B3F846309BB210
:1051B000013B9AB27B68A3F846207B68B3F846307F
:1051C0009BB2002B18D17B689B6AB3F5005F03D1BB
:1051D0007B680B4ADA640FE07B681B685A687B685F
:1051E0001B6822F040025A607B68DB8F9BB2002B69
:1051F00002D1786800F03EFB0837BD4680BD00BF95
:105200000552000880B584B000AF78600023FB60D1
:105210007B681B68DB68FB60FB687B681B685A68FF
:105220007B681B6822F040025A60786800F022FB1D
:1052300000BF1037BD4680BD80B582B000AF78603A
:105240007B689B6B1A887B681B68DA607B689B6B4A
:105250009A1C7B689A637B68DB8F9BB2013B9AB296
:105260007B68DA877B68DB8F9BB2002B26D17B685B
:105270009B6AB3F5005F10D17B681B681A687B6876
:105280001B6842F480521A607B681B685A687B680E
:105290001B6822F080025A6010E07B681B685A6825
:1052A0007B681B6822F080025A607B68B3F8463046
:1052B0009BB2002B02D1786800F0DCFA0837BD46BB
:1052C00080BD80B584B000AF78600023FB607B6850
:1052D0001B680C331B78DBB2FB60FB687B689B6C44
:1052E0005A1E7B689A647B689B6C002B02D178689D
:1052F00000F01CFB00BF1037BD4680BD80B582B0FA
:1053000000AF78607B681B6803F10C027B681B6C44
:105310001278D2B21A707B681B6C5A1C7B681A64B4
:105320007B68B3F846309BB2013B9AB27B68A3F826
:1053300046207B68B3F846309BB2012B0CD17B68CA
:105340009B6AB3F5005F07D17B681B681A687B68AE
:105350001B6842F480521A607B68B3F846309BB2F7
:10536000002B0BD17B689B6AB3F5005F03D17B6890
:10537000044ADA6402E0786800F0D8FA0837BD46DB
:1053800080BD00BFC352000880B584B000AF786014
:105390000023FB607B681B68DB68FB60FB687B6845
:1053A0001B685A687B681B6822F060025A60786844
:1053B00000F0BCFA00BF1037BD4680BD80B582B09A
:1053C00000AF78607B681B68DA687B681B6C92B200
:1053D0001A807B681B6C9A1C7B681A647B68B3F824
:1053E00046309BB2013B9AB27B68A3F846207B68AB
:1053F000B3F846309BB2012B0CD17B689B6AB3F5A6
:10540000005F07D17B681B681A687B681B6842F4E1
:1054100080521A607B68B3F846309BB2002B0BD1E8
:105420007B689B6AB3F5005F03D17B68044ADA644A
:1054300002E0786800F07AFA0837BD4680BD00BF08
:105440008953000880B582B000AF78607B689A6BA2
:105450007B681B680C3312781A707B689B6B5A1C34
:105460007B689A637B68DB8F9BB2013B9AB27B6857
:10547000DA877B68DB8F9BB2002B0FD17B689B6A3E
:10548000B3F5005F07D17B681B681A687B681B68EF
:1054900042F480521A60786800F08EFA00BF083734
:1054A000BD4680BD80B582B000AF78607B689B6BE5
:1054B0001A887B681B68DA607B689B6B9A1C7B6828
:1054C0009A637B68DB8F9BB2013B9AB27B68DA8779
:1054D0007B68DB8F9BB2002B0FD17B689B6AB3F597
:1054E000005F07D17B681B681A687B681B6842F401
:1054F00080521A60786800F05FFA00BF0837BD4636
:1055000080BD000080B588B000AFF860B9603B6036
:105510001346FB71FDF76EF90246BB6A9B1A3A68A7
:105520001344FB61FDF766F9B861394B1B685B01F9
:105530001B0DFA6902FB03F37B6154E03B68B3F196
:10554000FF3F50D0FDF756F90246BB69D31AFA69FE
:105550009A4202D9FB69002B3DD1FB681B685A684F
:10556000FB681B6822F0E0025A60FB685B68B3F5D9
:10557000827F11D1FB689B68B3F5004F04D0FB68B4
:105580009B68B3F5806F07D1FB681B681A68FB68DE
:105590001B6822F040021A60FB689B6AB3F5005F4B
:1055A0000FD1FB681B681A68FB681B6822F4005265
:1055B0001A60FB681B681A68FB681B6842F400529B
:1055C0001A60FB68012283F85D20FB68002283F8E3
:1055D0005C20032317E07B69002B01D10023FB61D2
:1055E0007B69013B7B61FB681B689A68BB68134061
:1055F000BA689A420CBF01230023DBB21A46FB793A
:105600009A429BD1002318462037BD4680BD00BF7B
:105610000000002080B588B000AFF860B9607A6003
:105620003B60FDF7E7F80246BB6A9B1A3A681344F1
:10563000FB61FDF7DFF8B8613E4B1A6813469B002B
:105640001344DA00D31A1B0DFA6902FB03F33B6122
:1056500062E0BB68B3F5C06F09D17B68002B06D14F
:10566000FB681B680C331B78DBB27B617B693B6892
:10567000B3F1FF3F50D0FDF7BDF80246BB69D31A26
:10568000FA699A4202D9FB69002B3DD1FB681B687D
:105690005A68FB681B6822F0E0025A60FB685B688E
:1056A000B3F5827F11D1FB689B68B3F5004F04D03E
:1056B000FB689B68B3F5806F07D1FB681B681A68AD
:1056C000FB681B6822F040021A60FB689B6AB3F516
:1056D000005F0FD1FB681B681A68FB681B6822F427
:1056E00000521A60FB681B681A68FB681B6842F46A
:1056F00000521A60FB68012283F85D20FB680022DB
:1057000083F85C20032310E03B69002B01D10023C8
:10571000FB613B69013B3B61FB681B689A68BB68A6
:1057200013407A689A4294D1002318462037BD4628
:1057300080BD00BF0000002080B586B002AFF860D9
:10574000B9607A60FB685B68B3F5827F11D1FB6852
:105750009B68B3F5004F04D0FB689B68B3F5806F7E
:1057600007D1FB681B681A68FB681B6822F04002BF
:105770001A607B680093BB6800228021F868FFF7FD
:10578000C1FE0346002B07D0FB681B6E43F02002CE
:10579000FB681A66032323E0FB685B68B3F5827F2E
:1057A0001DD1FB689B68B3F5004F04D0FB689B6874
:1057B000B3F5806F13D17B680093BB6800224FF470
:1057C000C061F868FFF726FF0346002B07D0FB688F
:1057D0001B6E43F02002FB681A66032300E00023DF
:1057E00018461037BD4680BD80B586B002AFF86060
:1057F000B9607A607B680093BB6800224FF4C051A7
:10580000F868FFF707FF0346002B07D0FB681B6E05
:1058100043F02002FB681A66032327E07B680093AD
:10582000BB6800228021F868FFF76CFE0346002B5E
:1058300007D0FB681B6E43F02002FB681A66032347
:1058400014E07B680093BB6800224FF4C061F868E5
:10585000FFF7E0FE0346002B07D0FB681B6E43F00A
:105860002002FB681A66032300E000231846103765
:10587000BD4680BD80B584B000AF7860FCF7BAFF4C
:10588000F8607B681B685A687B681B6822F02002FE
:105890005A60FA6864217868FFF7A6FF0346002B78
:1058A00005D07B681B6E43F020027B681A667B681C
:1058B0001B689B6803F01003102B12D17B68012238
:1058C00083F85D207B681B6E43F002027B681A66DA
:1058D0007B681B684FF6EF729A607868FFF73AFBB7
:1058E00020E07B681B6E002B15D17B6893F85D3040
:1058F000DBB2042B07D17B68012283F85D20786836
:10590000FCF7EEFC0EE07B68012283F85D207868EE
:10591000FFF716FB06E07B68012283F85D207868BC
:10592000FFF718FB00BF1037BD4680BD80B582B0C1
:1059300000AF78607B681B685A687B681B6822F040
:1059400060025A60FCF756FF03461A4664217868E5
:10595000FFF7F2FE0346002B05D07B681B6E43F079
:1059600020027B681A667B68012283F85D207B68D1
:105970001B689B6803F01003102B0ED17B681B6E15
:1059800043F002027B681A667B681B684FF6EF7271
:105990009A607868FFF7DEFA0AE07B681B6E002BDE
:1059A00003D17868FCF79CFC02E07868FFF7D2FA34
:1059B00000BF0837BD4680BD80B584B000AF7860B9
:1059C000FCF718FFF8607B681B685A687B681B68E7
:1059D00022F0A0025A60FA6864217868FFF704FF99
:1059E0000346002B05D07B681B6E43F020027B68CA
:1059F0001A667B689B68002B0AD10023BB607B681A
:105A00001B68DB68BB607B681B689B68BB60BB680E
:105A10007B68012283F85D207B681B6E002B03D01E
:105A20007868FFF797FA02E07868FCF76DFC00BF32
:105A30001037BD4680BD80B582B000AF78607B680E
:105A4000002B01D1012342E07B68D3F88430002B86
:105A500006D17B68002283F88020786800F03BF84C
:105A60007B682422C3F884207B681B681A687B68E3
:105A70001B6822F001021A60786800F0CDF8034636
:105A8000012B01D1012322E07B689B6A002B02D00D
:105A9000786800F0BDFB7B681B685A687B681B68F0
:105AA00022F490425A607B681B689A687B681B6886
:105AB00022F02A029A607B681B681A687B681B6860
:105AC00042F001021A60786800F044FC0346184670
:105AD0000837BD4680BD80B483B000AF786000BF9A
