:020000040800F2
:1000000000800120DD050008F5150008FD15000839
:10001000051600080D16000815160008000000005F
:100020000000000000000000000000001D16000895
:100030002B160008000000003916000847160008BB
:100040002D0600082D0600082D0600082D060008C4
:100050002D0600082D0600082D0600086916000868
:100060002D0600082D0600082D0600082D060008A4
:100070002D0600082D0600082D0600082D06000894
:100080002D0600082D0600082D0600082D06000884
:100090002D0600082D0600082D0600082D06000874
:1000A0002D0600082D0600082D0600082D06000864
:1000B0002D0600082D0600082D0600082D06000854
:1000C0002D0600082D0600082D0600082D06000844
:1000D0002D060008551600082D0600082D060008FC
:1000E00077160008891600082D0600082D0600085E
:1000F0002D0600082D0600082D060008000000004F
:100100002D0600082D0600082D060008712B00089A
:100110002D0600082D0600089D160008B9160008D7
:100120002D0600082D0600082D0600082D060008E3
:100130002D0600082D0600082D0600082D060008D3
:100140002D0600082D0600082D0600082D060008C3
:100150002D0600082D0600082D0600082D060008B3
:100160002D0600082D0600082D0600082D060008A3
:100170002D0600082D060008000000002D060008CE
:100180002D0600082D0600082D0600082D06000883
:100190002D0600082D0600080000000000000000E9
:1001A00000000000000000002D0600082D060008D9
:0C01B0002D0600082D0600082D06000892
:1001C00010B5054C237833B9044B13B10448AFF391
:1001D00000800123237010BD980000200000000063
:1001E000C4E8000808B5034B1BB103490348AFF34B
:1001F000008008BD000000009C000020C4E800084A
:10020000034613F8012B002AFBD1181A0138704756
:1002100001F0FF01102A2BDB10F0070F08D010F8B7
:10022000013B013A8B422DD010F0070F42B3F6D1BB
:10023000F0B441EA012141EA014122F007047FF0D4
:1002400000070023F0E80256083C85EA010586EA2B
:10025000010685FA47F5A3FA87F586FA47F6A5FA67
:1002600087F68EB9EED1F0BC01F0FF0102F0070273
:1002700032B110F8013B013A83EA010313B1F8D11E
:100280000020704701387047002D06BF35460338FF
:10029000073815F0010F07D1013015F4807F02BF38
:1002A000013015F4C03F0130F0BC0138704700BF89
:1002B00053B94AB9002908BF00281CBF4FF0FF31CD
:1002C0004FF0FF3000F088B9ADF1080C6DE904CEB5
:1002D00000F006F8DDF804E0DDE9022304B0704721
:1002E0002DE9F047089D8E4604468846002B4AD1EA
:1002F0008A42174662D9B2FA82F64EB1C6F120039D
:1003000001FA06F820FA03F3B74043EA0808B440BC
:100310004FEA174E1FFA87FCB8FBFEF1230C0EFBC9
:10032000118843EA084301FB0CF29A4209D9FB18F1
:1003300001F1FF3080F0EA809A4240F2E780023912
:100340003B449A1AA3B2B2FBFEF00EFB102243EA22
:10035000024300FB0CFC9C4509D9FB1800F1FF325D
:1003600080F0D6809C4540F2D3803B44023840EA7E
:100370000140A3EB0C0300211DB1F3400022C5E9AD
:100380000032BDE8F0878B4205D90DB1C5E9000107
:1003900000210846F5E7B3FA83F1002946D17345F9
:1003A00002D3824200F20581841A6EEB030201201F
:1003B0009046002DE5D0C5E90048E2E7002A00F0AC
:1003C0009080B2FA82F6002E40F0A4808A1A030CC4
:1003D0004FEA174E80B2BCB20121B2FBFEFC0EFB0D
:1003E0001C2243EA024304FB0CF29A4207D9FB1891
:1003F0000CF1FF3802D29A4200F2E080C4469B1A08
:10040000B3FBFEF20EFB123340EA034302FB04F49B
:100410009C4207D9FB1802F1FF3002D29C4200F245
:10042000CA8002461B1B42EA0C40A5E7C1F1200628
:100430008B4022FA06F71F430EFA01F420FA06F366
:100440002EFA06FE4FEA1749234300FA01F81FFA75
:1004500087FCBEFBF9F01C0C09FB10EE44EA0E44CD
:1004600000FB0CFEA64502FA01F209D93C1900F185
:10047000FF3A80F09C80A64540F2998002383C44C7
:10048000A4EB0E041FFA83FEB4FBF9F309FB13443B
:100490004EEA044403FB0CFCA44508D93C1903F1C3
:1004A000FF3E80F08280A4457FD9023B3C4443EA72
:1004B0000040A4EB0C04A0FB02EC64457346E1464B
:1004C00062D35FD05DB1B8EB030264EB090404FAB8
:1004D00006F622FA01F31E43CC40C5E90064002170
:1004E0004FE7B1FBF2FC010C41EA0E4180B240EA59
:1004F00001423B4638463C46B846BE462026B1FB44
:10050000F7F1A2EB080241EA0C4166E7014618E761
:1005100010462CE7C6F120022EFA02F3B740B14094
:1005200020FA02F24FEA174E0A43B3FBFEF8BCB2C0
:100530000EFB1833110C41EA034108FB04F9B040EB
:1005400089454FEA104380B23ED9791808F1FF3C43
:1005500001D289451FD8A1EB0901B1FBFEF909FBC6
:1005600004F80EFB191192B242EA0142424529D227
:10057000BA1809F1FF31C4D24245C2D2A9F1020131
:100580003A44BEE7F0459DD2BEEB02036CEB070C8C
:100590000138E14696E7A7EB09094944A8F1020CA6
:1005A000B1FBFEF909FB04F8DBE773467FE7504631
:1005B00066E70846FDE63B44023A33E7ACF1020C3D
:1005C0003B441CE749469CE7A1EB0901C446B1FB4B
:1005D000FEF909FB04F8C4E7704700BFDFF834D028
:1005E00002F006FB002103E00B4B5B584350043143
:1005F0000A480B4B42189A42F6D30A4A02E00023FB
:1006000042F8043B084B9A42F9D30DF0B9FA01F0D5
:10061000FFF8FEE700800120D09D020800000020C6
:10062000980000209800002028180020FEE7000015
:1006300080B500AF00F028F90021024804F00DFD5C
:1006400000BF80BD1C09002080B586B000AF786077
:1006500039601C4A3B6813603B6803F57F43FF33F6
:100660001B0CFB6000237B6107E07B691B041846C1
:1006700000F060FA7B6901337B617A69FB689A421A
:10068000F3D300233B6114E03A683B69D31AB3F516
:10069000807F28BF4FF48073BB607A683B69134446
:1006A000BA683969184600F0BFF93A69BB68134463
:1006B0003B613A693B689A42E6D300BF00BF1837F6
:1006C000BD4680BDB400002080B500AF0A4B1B685A
:1006D000002B0FD0094B00221A60094B00221A6030
:1006E000084B00221A60084B01221A7007480AF0D2
:1006F00045FA00E000BF80BDB4000020B800002033
:10070000C0080020C4080020BC080020F809002010
:1007100080B500AF074B00221A7007480AF09EFA16
:100720004FF4006300220021044804F042FD00BFA2
:1007300080BD00BFBC080020F80900201C09002073
:1007400080B584B000AF324B1B78002B5BD0314BAF
:100750001A68314B1B689A4225D3304B1A68304BCC
:100760001B68D31ABB60BB68002B02D1FFF7D0FF18
:100770004AE0BB68B3F5006F28BF4FF40063264A18
:100780001360274B1B68244A12681946254800F05D
:10079000F9F8204B00221A60214B1A681E4B1B6887
:1007A00013441F4A13601B4B1B681E4AD35C1AB2CA
:1007B000184B1B6801331B49CB5C1BB21B021BB2DD
:1007C0001343FB80B7F9063003F500539B00FB6031
:1007D000FB68002B01DA0023FB60FB68B3F5803F68
:1007E00002DB4FF6FF73FB60FB681B11BB80BB880D
:1007F000002200210C4804F0DCFC064B1B6802338D
:10080000044A136000E000BF1037BD4680BD00BF42
:10081000BC080020C0080020C4080020B40000204C
:10082000B8000020BC0000201C09002080B582B068
:1008300000AF0C4B5B68BE2098470346BC2B02D030
:1008400001237B6009E0084B064A1A60064B1B68CF
:100850001B68BE20984700237B607B6818460837DA
:10086000BD4680BD08000020C808002080B500AF4C
:10087000044B1B689B68BE209847F0EE407AB0EEB0
:10088000670A80BDC808002080B584B000AF3B4B2C
:100890003B4A1A60394806F095F80346002B01D010
:1008A000012367E000F090F9344B04225A60334B87
:1008B00000229A60314B4FF08072DA604FF40003EF
:1008C000BB60BB6893FAA3F37B607B68FB60FB684B
:1008D000002B01D1202303E0FB68B3FA83F3DBB2E2
:1008E0001A46264B1A61254B01225A61234B0022DE
:1008F0009A61224B0022DA61204B04221A621F4BBC
:1009000000225A621D4B4FF080529A621B4B00220C
:10091000DA621A4B00221A63184805F0A9FF034651
:10092000002B01D0012325E0144800F08DF9034687
:10093000002B01D004231DE00121104800F072FAC1
:100940000346002B01D0012314E001210B4800F0E5
:1009500015FB0346002B01D001230BE0074B0222BD
:100960001A62064805F084FF0346002B01D00123DC
:1009700000E0002318461037BD4680BDCC0800209B
:10098000001000A080B598B000AFF860B9607A6040
:1009900000233B6100237B61EB23BB610123FB61EF
:1009A00000233B6200237B62BB68BB624FF4407351
:1009B000FB624FF400533B6300237B63AA23BB63BA
:1009C0004FF44033FB6300233B6400237B644FF010
:1009D0004073BB647B68FB6400233B6504237B6539
:1009E0000023BB650023FB6507F1100341F2883249
:1009F00019460C4806F00DF80346002B01D00123E0
:100A00000BE041F28832F968064806F0F6F8034632
:100A1000002B01D0012300E0002318466037BD46BB
:100A200080BD00BFCC08002080B59CB000AFF8604E
:100A3000B9607A60BB68DBB2C3F58073FB66FA6E9F
:100A40007B689A4201D97B68FB66BB68BB66BA6863
:100A50007B6813447B6600237B610023BB613823E2
:100A6000FB6101233B6200237B620023BB624FF4E6
:100A700040733B634FF400537B630023BB6300234D
:100A80003B644FF04073FB6400237B650023BB6530
:100A90000023FB6500233B66BB6EFB62FB6E3B6580
:100AA000234800F018F90346002B01D001233BE056
:100AB00007F1140341F2883219461D4805F0A9FFD9
:100AC0000346002B01D001232EE041F28832F96861
:100AD000174806F01FF80346002B01D0012323E03E
:100AE00041F28831124800F052F90346002B01D040
:100AF000012319E0BA6EFB6E1344BB66FA68FB6E05
:100B00001344FB60BB6E03F580737A6E9A4203D286
:100B10007A6EBB6ED31A01E04FF48073FB66BA6E37
:100B20007B6E9A42B8D3002318467037BD4680BD0D
:100B3000CC08002080B596B000AF78600023BB6081
:100B40000023FB60D8233B6101237B610023BB6151
:100B50000023FB617B683B624FF480737B624FF440
:100B60000053BB620023FB6200237B6300233B64D2
:100B70000023FB6400233B6500237B65114800F0E4
:100B8000AAF80346002B01D0012317E007F1080360
:100B900041F2883219460B4805F03BFF0346002B13
:100BA00001D001230AE040F6AC51064800F0EFF80E
:100BB0000346002B01D0012300E0002318465837DC
:100BC000BD4680BDCC08002080B588B000AF1C4B6E
:100BD0001B6D1B4A43F480731365194B1B6D03F4A3
:100BE0008073BB60BB68164B1B6B154A43F4807364
:100BF0001363134B1B6B124A23F480731363104B64
:100C0000DB6C0F4A43F01003D3640D4BDB6C03F035
:100C100010037B607B684FF47C43FB6002233B61E5
:100C200000237B610323BB610A23FB6107F10C03F3
:100C30001946044804F0FEFC00BF2037BD4680BDC5
:100C4000001002400010004880B596B000AF7860F8
:100C50000023BB600023FB6066233B6101237B61B3
:100C60000023BB610023FB6100237B6200237B63C5
:100C700000233B640023FB6400233B6500237B656A
:100C800007F1080341F288321946786805F0C1FE81
:100C90000346002B01D0012319E099233B6107F1A2
:100CA000080341F288321946786805F0B2FE03461F
:100CB000002B01D001230AE041F28831786800F06E
:100CC00066F80346002B01D0012300E000231846FC
:100CD0005837BD4680BD80B59CB000AF786000231A
:100CE0003B6200237B620623BB620123FB6200237D
:100CF0003B6300237B630023FB630023FB6400232F
:100D0000BB6500237B660023BB660023FB6607F1FF
:100D1000200341F288321946786805F07AFE0346CE
:100D2000002B01D001232EE00223FB6002233B6154
:100D300000237B611023FB614FF48003BB6105231B
:100D4000BB624FF08073BB650123FB6500233B66EC
:100D500007F1200341F288321946786805F059FE00
:100D60000346002B01D001230DE007F10C0341F2F3
:100D700088321946786805F0E3FF0346002B01D05E
:100D8000012300E0002318467037BD4680BD80B5C2
:100D90009CB000AF7860396000233B6200237B6227
:100DA0000523BB620123FB6200233B6300237B63BB
:100DB0000023FB630023FB644FF08073BB650123BA
:100DC000FB6500233B6600237B660023BB66002394
:100DD000FB660023FB6001233B6100237B61102342
:100DE000FB614FF48003BB6107F1200341F28832BD
:100DF0001946786805F00DFE0346002B01D001234B
:100E00000CE007F10C033A681946786805F098FF82
:100E10000346002B01D0012300E000231846703761
:100E2000BD4680BD80B598B000AF78600B46FB70C2
:100E300000233B6100237B610523BB610123FB6130
:100E400000233B6200237B620023FB620023FB63E1
:100E50004FF08073BB6400233B6500237B65012357
:100E6000FB640023BB650023FB6507F1100341F21F
:100E700088321946786805F0CCFD0346002B01D076
:100E8000012377E007F10F0341F2883219467868B1
:100E900005F0B3FE0346002B01D001236AE0786819
:100EA000FFF719FF0346002B01D0012362E0FB7816
:100EB000012B05D1FB7B43F04003DBB2FB7304E065
:100EC000FB7B23F04003DBB2FB730123BB6107F123
:100ED000100341F288321946786805F09AFD0346FE
:100EE000002B01D0012345E007F10F0341F28832C6
:100EF0001946786805F00EFE0346002B01D0012349
:100F000038E041F288317868FFF741FF0346002B53
:100F100001D001232EE00523BB6107F1100341F24C
:100F200088321946786805F074FD0346002B01D01D
:100F300001231FE007F10F0341F288321946786858
:100F400005F05BFE0346002B01D0012312E0FB7B82
:100F500003F04003002B02D1FB78012B07D0FB7B71
:100F600003F04003002B04D0FB78002B01D10123B8
:100F700000E0002318466037BD4680BD80B598B0BC
:100F800000AF78600B46FB7000233B6100237B6160
:100F90000523BB610123FB6100233B6200237B62CD
:100FA0000023FB620023FB634FF08073BB640023CC
:100FB0003B6500237B650123FB640023BB650023A5
:100FC000FB6507F1100341F288321946786805F095
:100FD00020FD0346002B01D001239AE007F10C030A
:100FE00041F288321946786805F007FE0346002B67
:100FF00001D001238DE01523BB610223FB6407F1BF
:10100000100341F288321946786805F002FD034664
:10101000002B01D001237CE007F10C03013341F2E6
:1010200088321946786805F0E8FD0346002B01D0A8
:1010300001236EE07868FFF74EFE0346002B01D0D7
:10104000012366E0FB78012B05D1BB7B43F0020353
:10105000DBB2BB7304E0BB7B23F00203DBB2BB73E8
:101060000123BB610323FB6407F1100341F28832C3
:101070001946786805F0CDFC0346002B01D001230A
:1010800047E007F10C0341F288321946786805F011
:1010900041FD0346002B01D001233AE041F28831A3
:1010A0007868FFF774FE0346002B01D0012330E07F
:1010B0001523BB610223FB6407F1100341F2883260
:1010C0001946786805F0A5FC0346002B01D00123E2
:1010D0001FE007F10C0341F288321946786805F0E9
:1010E0008CFD0346002B01D0012312E07B7B03F033
:1010F0000203002B02D1FB78012B07D07B7B03F08E
:101100000203002B04D0FB78002B01D1012300E067
:10111000002318466037BD4680BD000080B483B010
:1011200000AF0F4B1B6E0E4A43F0010313660C4BCE
:101130001B6E03F001037B607B68094B9B6D084AC3
:1011400043F080539365064B9B6D03F080533B60E7
:101150003B6800BF0C37BD465DF8047B704700BF9D
:101160000010024080B58AB000AF786007F1140328
:1011700000221A605A609A60DA601A617B681B6804
:10118000194A93422CD1194B9B6D184A43F00053D6
:101190009365164B9B6D03F000533B613B69134B0A
:1011A000DB6C124A43F00103D364104BDB6C03F099
:1011B0000103FB60FB6810237B610323BB610023F9
:1011C000FB6107F1140319464FF0904004F032FA26
:1011D00000220121362003F0E8FE362003F001FF53
:1011E00000BF2837BD4680BD00740040001002409B
:1011F00080B5AEB000AF786007F1A40300221A609A
:101200005A609A60DA601A6107F110039422002193
:1012100018460CF0CBFB7B681B68214A93423BD1FC
:1012200040233B6100237B6607F11003184606F05C
:10123000AFFE0346002B01D001F081FC194BDB6CA3
:10124000184A43F00203D364164BDB6C03F002032D
:10125000FB60FB684FF44073C7F8A4301223C7F853
:10126000A8300023C7F8AC300323C7F8B0300423FC
:10127000C7F8B43007F1A40319460B4804F0DAF9B3
:10128000084B9B6D074A43F400139365054B9B6D18
:1012900003F40013BB60BB6800BFB837BD4680BD18
:1012A00000540040001002400004004880B582B0A5
:1012B00000AF78607B681B680B4A93420FD10B4BE1
:1012C0009B6D0A4A23F4001393654FF4807108481C
:1012D00004F042FB4FF40071054804F03DFB00BFF1
:1012E0000837BD4680BD00BF0054004000100240DA
:1012F0000004004880B5AAB000AF786007F114037D
:101300009422002118460CF051FB7B681B68174A99
:10131000934227D14FF080737B610023C7F8A03040
:1013200007F11403184606F033FE0346002B01D0E4
:1013300001F005FC0E4BDB6C0D4A43F48013D364C3
:101340000B4BDB6C03F480133B613B69084B1B6D5B
:10135000074A43F480731365054B1B6D03F48073D8
:10136000FB60FB6800BFA837BD4680BD001000A031
:101370000010024080B483B000AF78607B681B68C7
:101380000A4A93420BD10A4BDB6C094A23F48013BF
:10139000D364074B1B6D064A23F48073136500BFAB
:1013A0000C37BD465DF8047B704700BF001000A0FD
:1013B0000010024080B5AEB000AF786007F1A40322
:1013C00000221A605A609A60DA601A6107F110030D
:1013D0009422002118460CF0E9FA7B681B68244A25
:1013E000934241D14FF400333B614FF40073C7F88F
:1013F000A03007F11003184606F0CAFD0346002B83
:1014000001D001F09CFB1B4BD3F89030194A43F4F8
:101410000043C2F89030174BDB6C164A43F00203CE
:10142000D364144BDB6C03F00203FB60FB68042302
:10143000C7F8A4300223C7F8A8300023C7F8AC309F
:101440000023C7F8B0300023C7F8B43007F1A40375
:101450001946094804F0EEF800220021292003F083
:10146000A4FD292003F0BDFD00BFB837BD4680BDF7
:1014700000280040001002400004004880B586B0FB
:1014800000AF78607B681B68234A934214D1234BDA
:101490009B6D224A43F010039365204B9B6D03F034
:1014A00010037B617B6900220121362003F07DFD62
:1014B000362003F096FD2AE07B681B68184A9342A9
:1014C00014D1164B9B6D154A43F020039365134BC3
:1014D0009B6D03F020033B613B6900220121372013
:1014E00003F063FD372003F07CFD10E07B681B6890
:1014F0000C4A93420BD1094B1B6E084A43F400334C
:101500001366064B1B6E03F40033FB60FB6800BFE1
:101510001837BD4680BD00BF0010004000100240DB
:10152000001400400044014080B5AEB000AF7860C8
:1015300007F1A40300221A605A609A60DA601A6107
:1015400007F110039422002118460CF02FFA7B6853
:101550001B68254A934242D101233B610023FB646F
:1015600007F11003184606F013FD0346002B01D0C7
:1015700001F0E5FA1D4B1B6E1C4A43F480431366D1
:101580001A4B1B6E03F48043FB60FB68174BDB6C4C
:10159000164A43F00203D364144BDB6C03F00203DE
:1015A000BB60BB68C023C7F8A4300223C7F8A830CB
:1015B0000023C7F8AC300323C7F8B0300723C7F8BF
:1015C000B43007F1A4031946094804F033F80022A7
:1015D0000021252003F0E9FC252003F002FD00BFD7
:1015E000B837BD4680BD00BF003801400010024042
:1015F0000004004880B400AF00BFFDE780B400AF36
:1016000000BFFDE780B400AF00BFFDE780B400AFCE
:1016100000BFFDE780B400AF00BFFDE780B400AFBE
:1016200000BFBD465DF8047B704780B400AF00BFCB
:10163000BD465DF8047B704780B400AF00BFBD4677
:101640005DF8047B704780B500AF03F08FFB00BFEF
:1016500080BD000080B500AF024809F0D3FE00BF96
:1016600080BD00BF4016002080B500AF022004F00E
:1016700095FA00BF80BD80B500AF4FF4005004F074
:101680008DFA00BF80BD000080B500AF024807F0B2
:101690006FFD00BF80BD00BFD409002080B500AF42
:1016A000034809F00AFB034803F029FD00BF80BD91
:1016B000F80900201C09002080B500AF024809F09D
:1016C000FCFA00BF80BD00BF440A002080B400AF18
:1016D00001231846BD465DF8047B704780B582B093
:1016E00000AF786039600CF045FA034616221A60A4
:1016F0004FF0FF3318460837BD4680BD80B582B035
:1017000000AF78604FF0FF317868FFF7E7FF00BF68
:10171000FDE780B586B000AFF860B9607A6000235D
:101720007B610AE0AFF300800146BB685A1CBA60D7
:10173000CAB21A707B6901337B617A697B689A420D
:10174000F0DB7B6818461837BD4680BD80B586B093
:1017500000AFF860B9607A6000237B6109E0BB6884
:101760005A1CBA601B78184600F040F87B690133B8
:101770007B617A697B689A42F1DB7B68184618378F
:10178000BD4680BD80B483B000AF78604FF0FF33BA
:1017900018460C37BD465DF8047B704780B483B0B3
:1017A00000AF786039603B684FF400525A60002304
:1017B00018460C37BD465DF8047B704780B483B093
:1017C00000AF7860012318460C37BD465DF8047BF6
:1017D000704780B485B000AFF860B9607A600023CC
:1017E00018461437BD465DF8047B704780B582B05B
:1017F00000AF7860391D4FF6FF730122034809F0EE
:1018000027FD7B6818460837BD4680BD401600207E
:1018100080B5D0B004AF03F055FA01F055F90020BF
:1018200003F024F801F08AF800F0AEFE00F0F2FFB9
:10183000894B8A4A1A60884B4FF4E1325A60864BD2
:1018400000229A60844B0022DA60834B00221A61E6
:10185000814B0C225A61804B00229A617E4B002200
:10186000DA617D4B00221A627B4B00229A627A4930
:10187000002003F041F800F0FBFE01F001F801F058
:1018800037F800F02DFF00F0B3FEFEF7D1FEFEF7B3
:10189000CDFF03F0EDF94FF4D63319467048FEF74B
:1018A000D3FE704B01221A706F480BF037FF00F027
:1018B0003DFB0346002B01D001F041F900F06CFB29
:1018C0000346002B01D001F03AF901226749624832
:1018D00009F04CFD664BC7F82C31664BC7F8283130
:1018E000654BC7F82431654BC7F82031644BC7F806
:1018F0001C31D7F81C01FEF783FC03469AB24FF067
:10190000FF33D7F81C11544809F0A2FC5D4B1B684B
:10191000002B40F07D8121E15B4B1B78DBB2002B7B
:1019200063D0594B00221A70584B1B78DBB2002B46
:1019300025D13F22564957480CF040F8554B00221C
:1019400083F83F20534B1B78002B03D1524B534A53
:101950001A6002E0504B4F4A1A6000F06DFB504B8A
:101960001B68504A126819464F480BF06FFE474BF0
:101970001B78DBB20133DAB2444B1A7032E0434BCE
:101980001B78DBB2012B2DD13F22414947480CF097
:1019900015F8464B002283F83F20454A4549434805
:1019A00000F07EFA0346444A1360434B1B68B3F1D0
:1019B000FF3F10D1414BC7F81031D7F81001FEF7A7
:1019C0001FFC03469AB24FF0FF33D7F8101122489C
:1019D00009F03EFC06E02D4B1B78DBB20133DAB296
:1019E0002A4B1A70364B00221A70284B1B78DBB238
:1019F000002B15D1324B1B78DBB2002B10D1D7F85E
:101A00002C01FEF7FDFB03469AB24FF0FF33D7F8E7
:101A10002C11114809F01CFC294B01221A709DE081
:101A20001A4B1B78DBB2012B4CD1254B1B78DBB258
:101A3000002B47D1D7F82801FEF7E2FB03469AB204
:101A40004FF0FF33D7F82811034809F001FC1C4B75
:101A500001221A7082E000BF4016002000380140C9
:101A60007CEF0008DC0A0020DCE80008E80A00201F
:101A700004E9000818E900083CE900084CE90008FE
:101A800068E90008E00A0020EE0B0020EF0B0020C0
:101A9000EC0A00202C0B0020E40A0020BCE900081E
:101AA000000C0020FC0B0020C8E90008AC0B002053
:101AB000040C0020080C00200C0C0020E0E90008B9
:101AC000F00B0020A94B1B78DBB2022B46D1A84BB0
:101AD0001B78DBB2002B41D1A64B1B78DBB2002B6D
:101AE0003CD003F0E1F8F0EE407AFDEEE77A17EE35
:101AF000903AC7F80C31FEF7B9FEF0EE407AFDEEF1
:101B0000E77A17EE903AC7F8083107F108009A4BC8
:101B100003939A4B02939A4B0193D7F808310093A1
:101B2000D7F80C31974A4FF480710BF0FFFD07F1A5
:101B300008031846FEF764FB03469AB207F1080152
:101B40004FF0FF33904809F083FB894B01221A7054
:101B50008E4B01221A608E4B01221A708B4B1B6830
:101B6000002B3FF4D9AE8B4B1B68DAB28A4B1A704C
:101B70008A4B1B68DAB2884B5A70874B00229A70E6
:101B8000854B0022DA60844B00221A6100228249D0
:101B9000834806F09DFF0346002B01D000F0CFFFE5
:101BA000804B1B68DAB2804B1A70804B1B68DAB22C
:101BB0007D4B5A707C4B00229A707B4B00225A60FE
:101BC000794B0022DA60784B00221A61764B0022B2
:101BD0005A61754B0022DA61734B00221A62724B14
:101BE000012283F82420704B4FF480729A624FF4E4
:101BF00080716B4807F028FA00226B49684807F0AB
:101C0000E7F80346002B3FF481AE00F098FF7DE635
:101C10005E4B1B68012B31D14FF40051644803F037
:101C20008DFF0346012B05D1584B02221A60584BF9
:101C300001221A70564B1B78002B3FF467AED7F881
:101C40002401FEF7DDFA03469AB24FF0FF33D7F8CE
:101C500024114D4809F0FCFA564B00221A70564BDD
:101C600000221A60554808F0F9FF484B1B68012B09
:101C70007FF44CAE464B00221A7047E6434B1B687C
:101C8000022B1ED1424B1B78002B3FF43FAED7F8FE
:101C90002001FEF7B5FA03469AB24FF0FF33D7F8AA
:101CA0002011394809F0D4FA424B00221A70444BF3
:101CB00000221A60414808F061FF354B00221A707B
:101CC00024E6324B1B68032B7FF420AE304B1B788D
:101CD000002B3FF41BAE394808F050FFFEF7F4FC30
:101CE00002F0E2FFF0EE407AFDEEE77A17EE903A6E
:101CF000C7F81831FEF7BAFDF0EE407AFDEEE77A4C
:101D000017EE903AC7F8143100222E49244806F005
:101D10007CFF2C4B1B781A462A4B5B7838462A49A5
:101D20000BF03AFD294B1A6807F108003B46029375
:101D3000D7F814310193D7F8183100931346244A89
:101D40004FF480710BF0F2FC07F108031846FEF720
:101D500057FA03469AB207F108014FF0FF330A48D9
:101D600009F076FA0A4B00221A70CFE5EF0B00203B
:101D7000F00B002000000020AC0B00206C0B0020BA
:101D80002C0B002008EA000840160020E00A002082
:101D9000190C0020000C00201C0C0020FC0B002063
:101DA000D4090020080C0020440C0020040C002062
:101DB00000080048180C0020F80B0020440A0020FE
:101DC000F40B0020300C00206CEA0008E40A00202C
:101DD00074EA000880B582B000AF78607B681F4A63
:101DE000934202D1FEF7ACFC33E07B681C4A93427D
:101DF00025D11C4B1B68032B11D11B4B1B680133D6
:101E0000194A1360184B1B68772B22DD154B0122F2
:101E10001A60FEF77DFC154B01221A7019E0144B75
:101E20001B680133124A1360114B1B68772B10DDBE
:101E30000C4B03221A600D4B01221A7009E07B68DB
:101E40000C4A934205D1074B03221A60074B01222B
:101E50001A7000BF0837BD4680BD00BFF8090020DA
:101E6000440A0020E00A0020F80B0020190C002092
:101E7000F40B0020900A002080B483B000AF78609B
:101E8000054B03221A60054B01221A7000BF0C3764
:101E9000BD465DF8047B7047E00A0020190C002065
:101EA00080B586B000AFF860B9607A6007F11003C2
:101EB0000A221946F8680BF0FDFA78613B691B7835
:101EC0003A2B03D13B69FA689A4202D14FF0FF33B3
:101ED00028E07B69002B02DB7B69172B02DD4FF0CA
:101EE000FF331FE0BB687A691A603B69013307F171
:101EF00010010A2218460BF0DDFA78613B691B7865
:101F0000002B02D04FF0FF330CE07B69002B02DB8B
:101F10007B693B2B02DD4FF0FF3303E07B687A697E
:101F20001A60012318461837BD4680BDB0B586B08B
:101F300004AF02F0D3F90346002B1ED113480BF077
:101F4000EDFB3B460621184602F016FA0346002B2D
:101F500013D13B7818467B781C46BB781D46FB782E
:101F60003A7979790291019200932B4622460146F3
:101F700007480BF06BFB002304E006480BF0CEFB98
:101F80004FF0FF3318460837BD46B0BDC4EA00081D
:101F9000D8EA000800EB000880B584B002AF002347
:101FA0007B601F491F480BF051FB2FE003221E49A5
:101FB0001B4802F0BFF90346002B1CD11B480BF055
:101FC000ADFB40F6B83002F0F1FE3B460421184666
:101FD00002F0F2F90346002B0DD13B7819467B78CD
:101FE0001A46BB781846FB780093034610480BF05E
:101FF0002DFB00230FE07B6801337B6079680D487F
:102000000BF024FB4FF4FA6002F0D0FE7B68022B49
:10201000CCDD4FF0FF3318460837BD4680BD00BF0A
:1020200014EB00081CEB000830EB00083CEB000848
:102030004CEB000860EB000880B5ADF5B85D02AF71
:10204000B54B07F5B75202F108021360002307F5FC
:10205000B75202F11402136007F5DF63A3F21263B3
:1020600000221A80AD480BF059FB07F5B75303F176
:1020700008030022019250220092A94A0021002068
:1020800002F0BEF9034607F5B75202F113021370CE
:1020900007F5B75303F113031B78002B0BD007F59B
:1020A000B75303F113031B7819469E480BF0CEFA81
:1020B0004FF0FF3329E19C4B1B6807F5A75000F157
:1020C00008009A4A9A490BF067FB07F5A75303F1FA
:1020D00008031846FEF794F803469AB207F1F8038E
:1020E000123B07F5A75101F1080142F21070009070
:1020F000002002F0DDF907F5875303F108034FF4E0
:102100008062002118460BF051FC07F5DF63A3F550
:10211000C26300221A7007F5DF63A3F214634FF461
:1021200080621A8007F1F803143B07F5875101F12B
:1021300008014FF4FA6200924FF48062002002F02E
:10214000D9F9034607F5B75202F11302137007F5E8
:10215000B75303F113031B78002B58D107F5DF6346
:10216000A3F214631B88002B51D007F5DF63A3F2A1
:1021700014631B88194607F5875303F108031A46B1
:102180006C480BF063FA07F5DF63A3F214631B8856
:102190001A4607F5B75303F114031B6813441A4694
:1021A00040F6FE739A4232D807F5B75303F1140391
:1021B0001A6807F1F803103B981807F5DF63A3F2DC
:1021C00014631B881A4607F5875303F10803194661
:1021D0000BF0FDFC07F5DF63A3F214631B881A46BE
:1021E00007F5B75303F114031B68134407F5B752FF
:1021F00002F11402136007F5DF63A3F5C26207F56D
:10220000B75303F114031B68134400221A7007F537
:10221000B75303F113031B78002B3FF47CAF07F196
:10222000F803103B444918460BF038FC07F5B75348
:1022300003F10C03186007F5B75303F10C031B6897
:10224000002B05D13D480BF069FA4FF0FF335CE0FD
:1022500007F5B75303F10C031B68043307F5B752B6
:1022600002F10C02136007F1D802143A202334491A
:1022700007F5B75000F10C00006800F073F807F1A3
:10228000B802143A20232F4907F5B75000F10C008B
:10229000006800F067F807F19802143A20232A49F1
:1022A00007F5B75000F10C00006800F05BF807F18B
:1022B000D803143B254A26491846FFF7F1FD254A65
:1022C00007F19803143B1360234A07F1B803143B4A
:1022D000136007F1B801143907F1D802143A07F175
:1022E0001800143807F19803143B00930B461B4960
:1022F0000BF052FA07F11803143B194618480BF07B
:10230000A5F9002002F0B8F80023184607F5B757E2
:102310001837BD4680BD00BFB95D01F984EB0008E8
:10232000A4EB0008B0EB0008E40A0020D4EB00089E
:10233000F4EB00087CEC000884EC00088CEC00084E
:102340009CEC0008A8EC0008B0EC0008FC0B002096
:10235000000C0020100C0020140C0020B8EC000829
:10236000D8EC000880B588B000AFF860B9607A603A
:102370003B60B868FDF744FF03463B610023FB6107
:102380000023BB610023BB61E9E0BB69FA68134429
:102390001B78222B40F0E080BB690133FA681344BC
:1023A0001A78BB681B789A4240F0D6800023FB6104
:1023B000BB690133BB6105E0BB690133BB61FB69EC
:1023C0000133FB61BB69FA6813441B78002B0DD005
:1023D000FA693B699A4209DABB69FA6813441A78C8
:1023E000FB69B9680B441B789A42E5D0FA693B69EE
:1023F0009A4240F0B180BB69FA6813441B78222BE3
:1024000040F0AA80BB690133BB6102E0BB690133C4
:10241000BB61BB69FA6813441B78002B11D0BB6900
:10242000FA6813441B78202BF0D0BB69FA68134478
:102430001B78092BEAD0BB69FA6813441B780A2B76
:10244000E4D0BB69FA6813441B783A2B40F08380D0
:10245000BB690133BB6102E0BB690133BB61BB698E
:10246000FA6813441B78002B11D0BB69FA68134437
:102470001B78202BF0D0BB69FA6813441B78092B1A
:10248000EAD0BB69FA6813441B780A2BE4D0002316
:102490007B61BB69FA6813441B78222B3DD1BB6971
:1024A0000133BB610DE0BB695A1CBA611A46FB6877
:1024B0001A447B69591C796119467B680B44127870
:1024C0001A70BB69FA6813441B78002B3CD0BB69B7
:1024D000FA6813441B78222B36D03B68013B7A699B
:1024E0009A42E0DB30E0BB69FA6813441B780133A1
:1024F000244A13441B7803F00803002B0AD1BB695C
:10250000FA681A447B69591C796119467B680B4447
:1025100012781A70BB690133BB61BB69FA68134456
:102520001B78002B10D0BB69FA6813441B782C2B46
:102530000AD0BB69FA6813441B787D2B04D03B6832
:10254000013B7A699A42CEDB7B697A6813440022A8
:102550001A707B6811E000BFBB690133BB61BB69C6
:10256000FA6813441B78002B7FF40FAF3B68002BF5
:1025700002DD7B6800221A707B6818462037BD4652
:1025800080BD00BFDC9B020880B58AB000AF3B462F
:102590002822002118460BF009FA134B134A1A603F
:1025A000114802F038FD0346002B01D000F0C7FAB5
:1025B00000237B600023BB604FF400433B6000239B
:1025C000FB6000233B6100237B613B4600221946F0
:1025D000054802F01DFE0346002B01D000F0AFFAC3
:1025E00000BF2837BD4680BD1C0900200074004094
:1025F00080B500AF1B4B1C4A1A601A4B1B4A5A602D
:10260000184B00229A60174B0122DA60154B00220A
:102610001A61144B00225A61124B00229A61114B2D
:102620000022DA610F4B00221A620E4803F0CEFA44
:102630000346002B01D000F082FA0021094804F083
:102640007FF80346002B01D000F079FA00210548FD
:1026500004F0C1F80346002B01D000F070FA00BF6F
:1026600080BD00BF3009002000540040AB75A13090
:1026700080B500AF184B194A1A60174B01225A60F7
:10268000154B00229A60144B0022DA60124B202274
:102690001A61114B01225A610F4B00229A610E4BB5
:1026A0000022DA610C4B01221A620B4B00225A62A3
:1026B000094B00229A62084B0022DA62064B08227C
:1026C0001A63054804F0D4F80346002B01D000F04B
:1026D00036FA00BF80BD00BF84090020001000A0B2
:1026E00080B592B000AF07F1340300221A605A603F
:1026F0009A60DA601A6100233B633B1D2C220021A3
:1027000018460BF053F9414B414A1A603F4B0022E7
:102710005A603E4B7F229A603C4BFF22DA603B4B73
:1027200000221A61394B02225A61384B00229A6109
:10273000364B0022DA61354806F042F90346002B99
:1027400001D000F0FCF9002387F83430002387F82B
:102750003530002387F8363000233B6400237B6448
:1027600007F1340300221946284806F0B1F9034660
:10277000002B01D000F0E3F9012387F8303001236A
:1027800087F83130012387F83230002387F833305F
:1027900007F13003002219461C4806F092FA03465E
:1027A000002B01D000F0CBF900233B7100237B719B
:1027B0000023BB710023BB6000233B6100237B61CE
:1027C0000023BB6100233B6200237B62012387F867
:1027D00028304FF48073FB623B1D002219460B48E2
:1027E00006F0F6FA0346002B01D000F0A8F94FF4EA
:1027F0000021064806F0D2FD0346002B01D000F070
:102800009EF900BF4837BD4680BD00BFD4090020F7
:102810000028004080B584B000AF3B1D00221A6044
:102820005A609A60144B154A1A60134B00225A6082
:10283000114B00229A60104B43F69822DA600E4B3F
:1028400000229A610C4808F042F90346002B01D09F
:1028500000F075F920237B600023FB603B1D1946C7
:10286000054808F0FFFB0346002B01D000F067F994
:1028700000BF1037BD4680BDF809002000100040A1
:1028800080B584B000AF3B1D00221A605A609A6088
:10289000154B164A1A60144B40F227725A60124BBD
:1028A00000229A60104B4FF6FF72DA600E4B002246
:1028B0009A610D4808F00BF90346002B01D000F097
:1028C0003EF900237B600023FB603B1D1946064850
:1028D00008F0C8FB0346002B01D000F030F900BF20
:1028E0001037BD4680BD00BF440A002000140040E0
:1028F00080B500AF0F4B104A1A600E4B00225A6091
:102900000C4B00229A600B4B4FF6FF72DA60094BBA
:1029100000221A61074B00225A61064B00229A617D
:10292000044808F0D4F80346002B01D000F007F962
:1029300000BF80BD900A00200044014080B58AB0ED
:1029400000AF07F1140300221A605A609A60DA603F
:102950001A61384BDB6C374A43F00403D364354BC0
:10296000DB6C03F004033B613B69324BDB6C314AA7
:1029700043F00103D3642F4BDB6C03F00103FB60D6
:10298000FB682C4BDB6C2B4A43F00203D364294BCE
:10299000DB6C03F00203BB60BB68264BDB6C254A93
:1029A00043F01003D364234BDB6C03F010037B6014
:1029B0007B6800224FF480411F4803F0D7F84FF4A2
:1029C00000537B614FF48813BB610023FB6107F167
:1029D00014031946194802F02DFE4FF47C437B6125
:1029E0000223BB610023FB6103233B620A237B625A
:1029F00007F114031946124802F01CFE4FF48043FD
:102A00007B610123BB610023FB6100233B6207F173
:102A100014031946084802F00DFE00220021282068
:102A200002F0C3FA282002F0DCFA00BF2837BD46C6
:102A300080BD00BF001002400004004800080048AC
:102A40000010004880B584B000AF78607B68194AF8
:102A500093422BD1184B1B78FB73FB7B0D2B02D0C1
:102A6000FB7B0A2B0DD1154B1B889BB21A46144BCE
:102A700000219954114B00221A80124B01221A7026
:102A80000FE00E4B1B889BB23E2B0AD80B4B1B88CA
:102A90009BB25A1C91B2094A11801946084AFB7B25
:102AA000535401220449034808F060FC00BF10376A
:102AB000BD4680BD40160020E80A0020EC0B002037
:102AC000EC0A0020EE0B002080B596B000AF10237A
:102AD0003B600123BB6160233B620023FB61022357
:102AE000BB620123FB6201233B6328237B63022338
:102AF0003B640723BB630423FB633B46184604F097
:102B00006FFB0346002B01D000F019F80F237B6404
:102B10000323BB640023FB6400233B6500237B6528
:102B200007F144030421184604F074FF0346002B08
:102B300001D000F004F800BF5837BD4680BD80B515
:102B400000AF002001F0C2FE4FF47A7002F02EF9BF
:102B5000FAE780B582B000AF0346FB80FB88022B0A
:102B600001D101F0ABFB00BF0837BD4680BD0000BE
:102B700080B500AF024807F075FA00BF80BD00BF06
:102B8000780C002080B586B000AF7860144A154BF1
:102B9000D31A7B617B693B61134B1B68002B02D10D
:102BA000114B124A1A60104B1A687B6813443A6939
:102BB0009A4207D20AF0DEFF03460C221A604FF059
:102BC000FF3309E0084B1B68FB60074B1A687B6802
:102BD0001344054A1360FB6818461837BD4680BD8C
:102BE00000800120007F0000700C002028180020C9
:102BF00080B400AF174BD3F88830164A43F4700303
:102C0000C2F88830144B1B68134A43F00103136069
:102C1000114B00229A60104B1B680F4A23F0A853F7
:102C200023F4102313600C4B4FF48052DA600A4BEC
:102C30001B68094A23F480231360074B00229A6122
:102C4000044B4FF000629A6000BFBD465DF8047B04
:102C5000704700BF00ED00E00010024080B483B078
:102C600000AF0346FB71FB792F2B06D9FB79392B7B
:102C700003D8FB79303BDBB214E0FB79602B06D93B
:102C8000FB79662B03D8FB79573BDBB20AE0FB7973
:102C9000402B06D9FB79462B03D8FB79373BDBB2B7
:102CA00000E0002318460C37BD465DF8047B7047F2
:102CB00080B584B000AF786039600023FB730023D7
:102CC000BB7312E0FB7B1B01FB737B681B78184610
:102CD000FFF7C4FF03461A46FB7B1344FB737B6874
:102CE00001337B60BB7B0133BB737B681B782F2B6D
:102CF00003D97B681B78392B0FD97B681B78602B35
:102D000003D97B681B78662B07D97B681B78402B1F
:102D100006D97B681B78462B02D8BB7B012BD1D907
:102D20003B68002B02D03B68BA7B1A70FB7B1846CD
:102D30001037BD4680BD80B485B000AF7860396083
:102D40000023FB730023BB730023BB607B681B78ED
:102D50002D2B19D10123FB737B6801337B60BB7B77
:102D60000133BB7310E0BA6813469B0013445B0049
:102D70001A467B681B78303B1344BB607B68013389
:102D80007B60BB7B0133BB737B681B782F2B03D924
:102D90007B681B78392BE6D93B68002B02D03B6857
:102DA000BA7B1A70FB7B002B02D0BB685B4200E051
:102DB000BB6818461437BD465DF8047B704790B574
:102DC00087B000AFF860B9607A600023FB75FB68DC
:102DD000002B27D0BB68002B24D018E00123BB7543
:102DE000FB681B783A2B0DD0FB7D5A1CFA751A46EE
:102DF000BB689C1807F116031946F868FFF758FFDF
:102E000003462370BB7D1A46FB681344FB60FB7DC1
:102E10007A689A4206D9FB7D052B03D8FB681B789C
:102E2000002BDBD100BF1C37BD4690BD80B586B0FE
:102E300000AFF860B9607A600023FB75FB68002B77
:102E400027D0BB68002B24D07B68032B21D919E045
:102E50000123BB75FB681B782E2B0ED007F11603E0
:102E60001946F868FFF767FF0146FB7D5A1CFA75A3
:102E70001A46BB681344CAB21A70BB7D1A46FB6877
:102E80001344FB60FB7D032B03D8FB681B78002BEE
:102E9000DED100BF1837BD4680BD000080B584B0CC
:102EA00000AF786039600023FB723B680233404911
:102EB00018460AF097FDF86071E0FB7A5A1CFA7226
:102EC000062B66D801A252F823F000BFE92E0008B5
:102ED000FD2E0008152F00082D2F0008452F000893
:102EE0005D2F0008712F00087B681F22F9681846C3
:102EF0000AF064FD7B680022DA774BE07B682033C0
:102F00001722F96818460AF059FD7B68002283F8F9
:102F100037203FE07B6838330F22F96818460AF003
:102F20004DFD7B68002283F8472033E07B684833FF
:102F30000F22F96818460AF041FD7B68002283F8E9
:102F4000572027E07B6858330F22F96818460AF0AB
:102F500035FD7B68002283F867201BE00021F868BC
:102F6000FFF7E9FE03461A467B68C3F8882011E0A4
:102F70001049F8680AF036FDF8607B6868331F2254
:102F8000F96818460AF01AFD7B68002283F887204A
:102F900000E000BF064900200AF024FDF860FB684D
:102FA000002B8AD100BF00BF1037BD4680BD00BFD7
:102FB0000CED000810ED000880B584B000AF78601B
:102FC00039600023FB737B680233594918460AF0C5
:102FD00009FDB860A2E0FB7B5A1CFA730B2B00F2D0
:102FE0008C8001A252F823F0193000082F3000081D
:102FF000473000085B3000086F300008833000085D
:1030000093300008A3300008B3300008C330000834
:10301000D3300008E73000083B682022B968184622
:103020000AF0CCFC3B68002283F8202066E03B6875
:1030300021332022B96818460AF0C0FC3B68002200
:1030400083F841205AE00021B868FFF774FE034678
:10305000DAB23B6883F8422050E00021B868FFF7FD
:103060006AFE0346DAB23B6883F8432046E000215B
:10307000B868FFF760FE0346DAB23B6883F8472082
:103080003CE03B68483304221946B868FFF7CEFE9F
:1030900034E03B684C3304221946B868FFF7C6FE9B
:1030A0002CE03B68503304221946B868FFF7BEFE97
:1030B00024E03B68543304221946B868FFF7B6FE93
:1030C0001CE03B68583304221946B868FFF7AEFE8F
:1030D00014E00021B868FFF72EFE0346DAB23B6821
:1030E00083F844200AE00021B868FFF724FE034675
:1030F000DAB23B6883F8462000E000BF0C490020AC
:103100000AF070FCB860BB68002B07D0BB68013BBD
:103110001B782C2B02D1FB7B0133FB73BB68002B8C
:103120007FF459AF00BF00BF1037BD4680BD00BF60
:103130000CED000890B587B000AFF860B9607A6018
:1031400000233B610023FB82FB68D3F82031002B76
:1031500056D0FB68D3F82431002B51D0FB68D3F84C
:103160002041B868FDF74CF8034699B2FB68D3F8E4
:10317000F8381A46B868A04703463B613B69002B04
:103180003EDDFB68D3F82431FA68D2F8F8284FF412
:10319000FA61786898470346FB82B7F91630002B2E
:1031A00027DDB7F91630B3F5FA6F22DCB7F9163020
:1031B000B3F5FA6F05D1B7F916309BB2013B9BB25C
:1031C000FB82B7F916307A68134400221A700F494F
:1031D00078680AF063FC0346002B01D0002310E05E
:1031E0000B4978680AF05AFC0346002B01D00523EE
:1031F00007E0B7F9163013F1040F01D1062300E000
:10320000042318461C37BD4690BD00BF24ED0008BE
:1032100030ED000880B586B000AFF860B9607A6024
:103220007B800023FB820023BB8200237B82B86863
:10323000FCF7E6FF03467B827B8A03F00103002B49
:1032400001D002235DE0FB68D3F82031002B57D07A
:10325000FB68D3F82431002B52D0FB68D3F820311F
:10326000FA68D2F8F828798AB868984703463B820A
:103270003A8A7B8A9A4243D1FB68D3F82031FA68B4
:10328000D2F8F8287988786898470346FB82B7F91E
:1032900016207B889A4231D1FB68D3F82431FA6832
:1032A000D2F8F8280021386A98470346BB82B7F95C
:1032B0001430002B19DDB7F914303A6A1344002298
:1032C0001A701249386A0AF0E9FB0346002B01D054
:1032D000002316E00E49386A0AF0E0FB0346002B93
:1032E00001D005230DE002230BE0B7F9143013F1F0
:1032F000040F01D1062304E0022302E0022300E0D0
:10330000042318461837BD4680BD00BF24ED0008D1
:1033100030ED000890B587B000AFF860B9607A6012
:103320007B80FB6803F594733B61FB68D3F8203125
:10333000002B00F08780FB68D3F82431002B00F0CD
:103340008180FB68D3F82041B868FCF759FF034639
:1033500099B2FB68D3F8F8381A46B868A047034614
:10336000002B6FDDFB68D3F82431FA68D2F8F82817
:1033700000213869984703467B613B691B780D2B18
:1033800004D13B6901331B780A2B01D004235AE096
:103390007B69023B7B613B6902333B617B69072BA5
:1033A0004AD902E07B69013B7B617B69002B06D037
:1033B0007B69013B3A6913441B78152BF2D07B697A
:1033C0003A69134400221A707B69083B3A69134436
:1033D0001F4918460AF062FB0346002B16D07B6992
:1033E0009BB2083B9AB2BB6A1A80BB6A1B887A8878
:1033F0009A4202D2BB6A7A881A80BB6A1B881A4634
:10340000396978680AF0E3FB00231CE07B69043B20
:103410003A69134404220F4918460AF0B7FA0346E2
:10342000002B04D1BB6A00221A8005230BE0BB6A83
:1034300000221A80052306E07B6913F1040F01D1F5
:10344000062300E0042318461C37BD4690BD00BF8C
:1034500024ED000838ED000880B584B000AF786036
:103460000223FB737B6847F23052C3F8F8287B686D
:10347000D3F81431002B1BD07B68D3F81431002013
:1034800098470346002B13D17B6803F594731A46C3
:103490000A497868FFF74EFE0346FB73FB7B002B5F
:1034A00006D17B6803F5947319467868FFF7F6FC3C
:1034B000FB7B18461037BD4680BD00BF40ED0008BD
:1034C00080B485B000AFF860B9607A603B60FB689B
:1034D000002B0BD0BB68002B08D07B68002B05D0DD
:1034E000BB69002B02D0FB69002B01D1022314E041
:1034F000FB68BA68C3F81421FB687A68C3F818211E
:10350000FB68BA69C3F82021FB68FA69C3F8242173
:10351000FB683A68C3F81C21002318461437BD46DF
:103520005DF8047B7047000080B586B000AFF8609E
:10353000B9607A60FB70FB6803F59473BA6832492E
:1035400018460AF029F9FB6803F59471FB6803F546
:1035500094731A46F868FFF7EDFD0346FB75FB7D93
:10356000002B4BD1FB6803F594737A682749184602
:103570000AF012F9FB6803F59471FB6803F5947384
:103580001A46F868FFF7D6FD0346FB75FB7D002B56
:1035900034D1FB68FA7883F88C20FB6803F59473C8
:1035A000FA781B4918460AF0F7F8FB6803F594719E
:1035B000FB6803F594731A46F868FFF7BBFD0346F2
:1035C000FB75FB7D002B19D1FB6803F59473114942
:1035D00018460AF0E1F8FB6803F59471FB6803F5FF
:1035E00094731A46F868FFF7A5FD0346FB75FB7D4B
:1035F000002B03D1FB68012283F8D220FB7D184603
:103600001837BD4680BD00BF58ED000860ED0008CA
:1036100068ED000870ED000880B584B000AF7860F8
:103620007B6803F59473134918460AF0B5F87B6874
:1036300003F594717B6803F594731A467868FFF775
:1036400079FD0346FB73FB7B002B0BD17B6893F862
:103650002A31312B0CBF01230023DBB21A467B68D1
:1036600083F8D2207B6893F8D23018461037BD46D5
:1036700080BD00BF74ED000880B584B000AF7860F5
:103680007B6803F59473104918460AF085F87B6847
:1036900003F594717B6803F594731A467868FFF715
:1036A00049FD0346FB73FB7B002B08D17B6803F5C8
:1036B00094727B688D3319461046FFF77DFCFB7BC7
:1036C00018461037BD4680BD7CED000880B586B039
:1036D00000AFF860B9601346FB71FB6803F59473A3
:1036E000134918460AF058F8FB6803F59471FB6813
:1036F00003F594731A46F868FFF71CFD0346FB7543
:10370000FB7D002B0ED1FB6803F59473023309494E
:1037100018460AF067F93861FB791A46B9683869C2
:10372000FFF74DFBFB7D18461837BD4680BD00BF37
:10373000CCED0008D0ED000890B587B002AF7860FE
:1037400039600023FB733B681B78002B03D03B6878
:103750001B78032B05D13B689B88002B01D10223EA
:10376000C1E07B6803F594703B689B781A4660491A
:103770000AF012F87B6803F594717B6803F5947383
:103780001A467868FFF7D6FC0346FB73FB7B002BD9
:1037900014D17B6803F594703B681B781A46554931
:1037A00009F0FAFF7B6803F594717B6803F5947365
:1037B0001A467868FFF7BEFC0346FB73FB7B002BC1
:1037C00014D17B6803F594703B68DB881A464A493C
:1037D00009F0E2FF7B6803F594717B6803F594734D
:1037E0001A467868FFF7A6FC0346FB73FB7B002BA9
:1037F0001CD13B681B78002B03D03B681B78032B44
:1038000014D17B6803F594703B689B881A463B494A
:1038100009F0C2FF7B6803F594717B6803F594732C
:103820001A467868FFF786FC0346FB73FB7B002B88
:1038300028D13B681B78002B03D03B681B78032BF7
:1038400020D17B6803F594703B681B7A19463B686E
:103850005B7A1C463B689B7A1A463B68DB7A01938D
:10386000009223460A46264909F096FF7B6803F535
:1038700094717B6803F594731A467868FFF75AFCD5
:103880000346FB73FB7B002B16D13B681B78032B95
:1038900012D17B6803F594731A49184609F07CFF2E
:1038A0007B6803F594717B6803F594731A46786816
:1038B000FFF740FC0346FB73FB7B002B12D17B68B8
:1038C00003F594731049184609F066FF7B6803F509
:1038D00094717B6803F594731A467868FFF72AFCA5
:1038E0000346FB73FB7B18461437BD4690BD00BFF3
:1038F00034EE00083CEE000844EE00084CEE0008F0
:1039000054EE000864EE00086CEE000880B584B048
:1039100000AF786039607B6803F594703B689B78F2
:103920001A46154909F038FF7B6803F594717B68E6
:1039300003F594731A467868FFF7FCFB0346FB73A4
:10394000FB7B002B12D17B6803F594730B4918465F
:1039500009F022FF7B6803F594717B6803F594738B
:103960001A467868FFF7E6FB0346FB73FB7B1846B5
:103970001037BD4680BD00BF34EE000874EE00086D
:1039800080B588B002AFF8607A601A460B46FB72C9
:1039900013463B810223FB747B6A002B02D1012377
:1039A0007B6101E07B6A7B613B89B3F5966F02D353
:1039B0004FF496633B813B6A3A891A80FB6803F5B2
:1039C0009473FA7A2D49184609F0E6FEFB6803F570
:1039D0009471FB6803F594731A46F868FFF7AAFB25
:1039E0000346FB74FB7C002B3CD1FB6803F594730E
:1039F0007A692349184609F0CFFEFB6803F59471F4
:103A0000FB6803F594731A46F868FFF793FB0346C7
:103A1000FB74FB7C002B25D1FB6803F594733A897A
:103A20001849184609F0B8FEFB6803F59471FB6865
:103A300003F594733A89009313467A68F868FFF7A0
:103A4000E9FB0346FB74FB7C002B0BD1FB6803F501
:103A500094730D4918460AF021F80346002B01D053
:103A60000223FB74FB7C022B02D13B6A00221A80EA
:103A7000FB7C18461837BD4680BD00BF34EE0008F9
:103A800010EF000818EF000824EF000880B588B098
:103A900002AFF8607A601A460B46FB7213463B8110
:103AA0000223FB747B6A002B02D101237B6101E0BE
:103AB0007B6A7B613B89B3F5966F62D8FB6803F53F
:103AC0009473FA7A3149184609F066FEFB6803F5EB
:103AD0009471FB6803F594731A46F868FFF72AFBA4
:103AE0000346FB74FB7C002B46D1FB6803F5947303
:103AF0003A892749184609F04FFEFB6803F594718F
:103B0000FB6803F594731A46F868FFF713FB034646
:103B1000FB74FB7C002B2BD1FB6803F594737A6953
:103B20001C49184609F038FEFB6803F59471FB68E0
:103B300003F594731A46F868FFF7FCFA0346FB7422
:103B4000FB7C002B1DD1FB6803F5947312491846CA
:103B500009F022FEFB6803F594713A893B6A0093F1
:103B600013467A68F868FFF7D5FB0346FB7408E054
:103B70003B6A00221A8004E0084B1B680133074AA5
:103B80001360FB7C18461837BD4680BD34EE000834
:103B90002CEF000834EF00083CEF0008740C002004
:103BA00080B58CB000AF7860574B9B6D564A43F49C
:103BB00000439365544B9B6D03F40043BB61BB69A9
:103BC000514BDB6C504A43F00203D3644E4BDB6C29
:103BD00003F002037B617B694B4BDB6C4A4A43F089
:103BE0000403D364484BDB6C03F004033B613B6983
:103BF000454BDB6C444A43F01003D364424BDB6C0F
:103C000003F01003FB60FB6800224FF400513F48B3
:103C100001F0ACFF4FF40053FB6101233B62002332
:103C20007B620023BB6207F11C031946374801F091
:103C300001FD0223FB614FF488133B6200237B628A
:103C40000023BB6207F11C031946314801F0F2FC66
:103C50004FF48073FB6101233B6200237B620023EE
:103C6000BB620023FB6207F11C031946284801F0E0
:103C7000E1FC01220121264801F078FF0123FB61CC
:103C800001233B6200237B620123BB6207F11C031B
:103C900019461F4801F0CEFC4FF48063FB610223FC
:103CA0003B6200237B620123BB620623FB6207F1B8
:103CB0001C031946174801F0BDFC4FF48053FB610B
:103CC00002233B6200237B620123BB620623FB626B
:103CD00007F11C0319460F4801F0ACFC4FF40063D8
:103CE000FB6102233B6201237B620123BB6206234B
:103CF000FB6207F11C031946064801F09BFC00BF5C
:103D00003037BD4680BD00BF0010024000040048AF
:103D1000001000480008004880B584B000AF03469A
:103D2000FB800023FB73FB88002B45D1274B284ADF
:103D30001A602648FFF734FF244B4FF482725A6012
:103D4000224B00229A60214B4FF47062DA601F4BC5
:103D500000221A611D4B00225A611C4B4FF4007265
:103D60009A611A4B1022DA61184B00221A62174B23
:103D700000225A62154B00229A62144B0022DA622A
:103D8000124805F05CFB0346002B02D04FF0FF33D6
:103D900018E000220021072001F007F9072001F0B8
:103DA00020F900220021332001F0FFF8332001F038
:103DB00018F90A2000F008FA00F00CF80346FB732B
:103DC00097F90F3018461037BD4680BD780C00209B
:103DD000003C004080B584B000AF00F0DBFFB8606D
:103DE0000023FB7300224FF48071354801F0BEFEC2
:103DF0000A2000F0DBFF01224FF48071304801F00F
:103E0000B5FE4FF4FA7000F0D1FF002201212C48DA
:103E100001F0ACFE0F2000F0D7F92BE0FB7B042B68
:103E200007D901220121264801F0A0FE4FF0FF33FF
:103E300042E0FB7B3A46D1184FF6FF73012221483E
:103E400005F0DCFB0346FB71FB7B0233FB7300F0E8
:103E5000A1FF0246BB68D31AB3F5803F02D2FB79BB
:103E6000002B07D001220121154801F07FFE4FF001
:103E7000FF3321E00221124801F060FE0346012BCE
:103E8000CCD0012201210E4801F070FE3B78152BA9
:103E90000ED17B78152B0BD1BB780D2B08D1FB787D
:103EA0000A2B05D13B793E2B02D17B79202B02D006
:103EB0004FF0FF3300E0002318461037BD4680BDA9
:103EC00000100048780C002080B500AF024805F0D3
:103ED00059FB0023184680BD780C002080B584B0C3
:103EE00000AF786000F056FF0346FB600AE000F088
:103EF00051FF0246FB68D21A7B689A4202D94FF002
:103F0000FF3307E00221054801F018FE0346012BAC
:103F1000EDD1002318461037BD4680BD0010004883
:103F200080B584B000AF786000F034FF0346FB60DA
:103F30000AE000F02FFF0246FB68D21A7B689A4223
:103F400002D94FF0FF3304E0044B1B68012BF0D083
:103F5000002318461037BD4680BD00BFE40C00208A
:103F600080B584B000AF786000F014FF0346FB60BA
:103F70000AE000F00FFF0246FB68D21A7B689A4203
:103F800002D94FF0FF3304E0044B1B68012BF0D043
:103F9000002318461037BD4680BD00BFDC0C002052
:103FA00080B584B000AF786000F0F4FE0346FB609B
:103FB0000AE000F0EFFE0246FB68D21A7B689A42E4
:103FC00002D94FF0FF3304E0044B1B68012BF0D003
:103FD000002318461037BD4680BD00BFE00C00200E
:103FE00080B586B000AFF8600B467A607B81002315
:103FF000FB8201220121344801F0B8FD032000F0CA
:10400000E3F87B681846FFF78BFF0346002B02DAC4
:104010006FF0020354E0002201212B4801F0A6FDBD
:104020000F2000F0D1F83DE0B7F916207B899A42C5
:1040300002DB7B89002B3CD1244B01221A6007F163
:10404000140301221946224805F0B8FE0346002B4E
:1040500007D0012201211C4801F088FD4FF0FF33F9
:104060002EE07B681846FFF77BFF3A7DFB681A70ED
:10407000FB6801337A7D1A70FB8A02339BB2FB82A4
:10408000FB680233FB60B7F91630B3F5FA6F09DB52
:10409000012201210C4801F069FDFFF79BFE6FF042
:1040A00003030DE00221084801F048FD0346012BFF
:1040B000BAD001220121044801F058FDB7F91630A9
:1040C00018461837BD4680BD00100048DC0C0020A3
:1040D000780C002080B586B000AFF8600B467A609F
:1040E0007B817B681846FFF7F9FE0346002B02DA56
:1040F0004FF0FF334FE02A4B01221A6000220121CA
:10410000284801F033FD0F2000F05EF87B89012B79
:1041100019D9254B01221A607B895B089BB21A468C
:10412000F968224805F0C2FD0346002B07D00122A2
:1041300001211C4801F01AFD4FF0FF332BE07B6892
:104140001846FFF72DFF7B8903F00103002B20D0D9
:104150007B89013BFA6813441B783B750A237B7506
:10416000114B01221A6007F11403012219460F486E
:1041700005F09CFD0346002B07D0012201210948D0
:1041800001F0F4FC4FF0FF3305E07B681846FFF7C1
:1041900007FFB7F90A3018461837BD4680BD00BF83
:1041A000E40C002000100048E00C0020780C0020F7
:1041B00080B582B000AF7860786800F0F7FD00BF8E
:1041C0000837BD4680BD000080B586B000AF78607E
:1041D0000023BB6000237B61204B1B68002B22D196
:1041E0001F4B1B681F4AA2FB03239B093B61002353
:1041F000FB603B69BB6000F0CDFDF86002E0BB688E
:10420000013BBB60BB68002BF9D100F0C3FD024647
:10421000FB68D31A114A1360104B1B68002B02D1A4
:104220000E4B01221A600E4B1B680F4AA2FB0323A0
:104230009A0C0A4B1B68B2FBF3F37B617B687A69CB
:1042400002FB03F3BB6002E0BB68013BBB60BB68E1
:10425000002BF9D100BF1837BD4680BDE80C002007
:1042600004000020D34D621083DE1B4380B483B072
:1042700000AF7860064B1B68002B02D0044B002275
:104280001A6000BF0C37BD465DF8047B704700BF65
:10429000DC0C002080B483B000AF7860064B1B6854
:1042A000002B02D0044B00221A6000BF0C37BD4621
:1042B0005DF8047B704700BFE00C002080B400AFC5
:1042C000054B1B68012B02D1034B00221A6000BF73
:1042D000BD465DF8047B7047E40C002080B584B0D7
:1042E00002AF0123FB710D4B01930D4B00930D4B5E
:1042F0000D4A0E490E48FFF7E3F80346002B07D19D
:104300000B48FFF7A9F80346002B01D10023FB71EE
:10431000FB7918460837BD4680BD00BFE13F000865
:10432000D5400008B1410008C93E0008193D000809
:10433000EC0C002080B586B000AFF860B960134681
:10434000FB710123FB75FB79BA68F9680948FFF72F
:10435000EBF80346002B07D10648FFF78DF903461B
:10436000002B01D10023FB75FB7D18461837BD4695
:1043700080BD00BFEC0C002080B584B000AF786039
:104380000B46FB700123FB737B68002B0DD0FB7881
:10439000002B0AD0FB781A4679680648FFF796F991
:1043A0000346002B01D10023FB73FB7B184610371B
:1043B000BD4680BDEC0C002080B584B000AF7860B5
:1043C0000B46FB700123FB737B68002B10D0FB783E
:1043D000032B0DD90948FFF71FF90346012B07D11D
:1043E000064BD3F8D5301A467B681A600023FB735E
:1043F000FB7B18461037BD4680BD00BFEC0C00208B
:1044000080B58AB000AFF8607A603B600B46FB7203
:10441000012387F82730FB68DBB2BB743B8EBB827D
:10442000BB8EFB82FB7A002B14BF01230023DBB27F
:104430003B743B681B783B763B6801331B787B768B
:104440003B6802331B78BB763B6803331B78FB76F3
:1044500007F1100319460748FFF76EF90346002BD2
:1044600002D1002387F8273097F8273018462837DD
:10447000BD4680BDEC0C002080B588B000AF7860F0
:104480000123FB777B68DBB2BB7207F10803194697
:104490000648FFF73BFA0346002B01D10023FB77C8
:1044A000FB7F18462037BD4680BD00BFEC0C0020C6
:1044B00080B588B002AFF860B9603B601346FB80FE
:1044C0000123FB75FB68D9B2FA883B6A01933B680C
:1044D00000931346BA680648FFF752FA0346002BCA
:1044E00001D10023FB75FB7D18461837BD4680BD02
:1044F000EC0C002080B588B002AFF860B9603B607A
:104500001346FB800123FB75FB68D9B2FA883B6A2E
:1045100001933B6800931346BA680648FFF7B6FA62
:104520000346002B01D10023FB75FB7D184618378D
:10453000BD4680BDEC0C002080B584B000AF0346C2
:10454000FB80FB88DBB22021184600F055FB0346B8
:10455000FB73FB7B23F00403FB73FB7B43F004033F
:10456000FB73FB7B23F00303FB73FB7B43F0010333
:10457000FB73FB7B63F07F03FB73FB88DBB2FA7B8F
:104580002021184600F01EFB00BF1037BD4680BD3D
:1045900080B584B000AF0346FB800023FB7300F0BE
:1045A00007FBFB88DBB20F21184600F025FB034612
:1045B000FB73FB7B18461037BD4680BD80B588B0C5
:1045C00000AF0346FB80FB88D8B207F10C02022340
:1045D000B02100F02FFB3B7B5B08DBB2FB837B7BD6
:1045E0005B08DBB2BB83FB88D8B207F10C02022365
:1045F000B62100F01FFB7B7B1BB21B021AB23B7B78
:104600001BB213437B83FB88D8B207F10C02022351
:10461000BA2100F00FFB7B7B1BB21B021AB23B7B63
:104620001BB213433B83FB88D8B207F10C02022371
:10463000A82100F0FFFA7B7B1BB21B021AB23B7B66
:104640001BB21343FB82B7F91620B7F91A30D31AFD
:1046500007EE903AB8EEE77AB7F91C20B7F91E30AA
:10466000D31A07EE903AF8EEE77A67EE276AB7F9C1
:104670001820B7F91A30D31A07EE903AF8EEE77A15
:1046800086EEA77AB7F91E3007EE903AF8EEE77A91
:1046900077EE277AC7ED047AD7ED047AB2EE047A82
:1046A00067EE877AC7ED047AD7ED047A9FED107A2A
:1046B000F4EEC77AF1EE10FA01DD0E4B0AE0D7ED09
:1046C000047AF5EEC07AF1EE10FA02D54FF000034D
:1046D00000E03B693B61D7ED047AB2EE047AC7EEA5
:1046E000876AF0EE667AB0EE670A2037BD4680BD75
:1046F00000007A4400007A4480B584B000AF0346DD
:104700003960FB80FB88DBB22021184600F074FA88
:104710000346FB73FB7B23F00403FB73FB7B43F03B
:104720000403FB73FB7B23F00303FB73FB7B43F06E
:104730000103FB73FB7B63F07F03FB73FB88DBB23E
:10474000FA7B2021184600F03DFA00BF1037BD4625
:1047500080BD80B588B000AF0346FB80FB88D8B22F
:1047600007F108020223B22100F064FAFB88DBB2F1
:104770003521184600F040FA0346FB77FB7F1BB259
:104780001B021BB203F440731AB23B7A1BB21343F1
:10479000BB83FB7F1BB29B011BB203F440731AB2B5
:1047A0007B7A1BB213437B83B7F91C30DB103B834E
:1047B000B7F91A30DB10FB82FB88D8B207F1080288
:1047C0000423BC2100F036FA7B7A1BB21B021AB21A
:1047D0003B7A1BB21343BB82FB7A1BB21B021AB299
:1047E000BB7A1BB213437B82FB88D8B207F1080265
:1047F0000223AA2100F01EFA7B7A1BB21B021AB216
:104800003B7A1BB213433B82B7F91020B7F914303F
:10481000D31A07EE903AB8EEE77AB7F91620B7F94F
:104820001830D31A07EE903AF8EEE77A67EE276A67
:10483000B7F91220B7F91430D31A07EE903AF8EE10
:10484000E77A86EEA77AB7F9183007EE903AF8EED5
:10485000E77A77EE277AC7ED037AFB6807EE903A9E
:10486000B0EE670A2037BD4680BD000080B588B035
:1048700000AF0346FB71FB79002B0BD1114BDB6CB6
:10488000104A43F00203D3640E4BDB6C03F00203C7
:10489000BB60BB684FF48043FB6001233B61002396
:1048A0007B610223BB61FB79074A52F8233007F191
:1048B0000C021146184600F0BDFE00BF2037BD4671
:1048C00080BD00BF001002402400002080B582B0EF
:1048D00000AF0346FB71FB79064A52F823304FF4D0
:1048E000804291B20122184601F040F900BF08371A
:1048F000BD4680BD2400002080B58AB000AF0346CD
:104900003960FB71FB79002B0BD12D4BDB6C2C4AF2
:1049100043F00203D3642A4BDB6C03F002033B61D8
:104920003B69FB79002B0BD1254BDB6C244A43F010
:104930000203D364224BDB6C03F00203FB60FB68D1
:10494000FB79002B0BD11E4B1B6E1D4A43F4804399
:1049500013661B4B1B6E03F48043BB60BB68402394
:104960007B610223BB6102233B620023FB610723BF
:104970007B62FB79134A52F8233007F11402114687
:10498000184600F057FE80237B610223BB6107239A
:104990007B62FB790C4A52F8233007F1140211466E
:1049A000184600F047FEFB79084A52F823203B687E
:1049B0001A60386806F0FCFB00BF2837BD4680BD92
:1049C000001002402C0000203000002028000020B1
:1049D00080B58AB000AF7860274BDB6C264A43F085
:1049E0000203D364244BDB6C03F002033B613B699D
:1049F0004FF440637B611223BB610123FB610323FE
:104A00003B6204237B6207F1140319461B4800F044
:104A100011FE07F114031946184800F00BFE164B5F
:104A20009B6D154A43F480039365134B9B6D03F410
:104A30008003FB60FB68104B9B6B0F4A43F48003C1
:104A400093630D4B9B6B0C4A23F48003936300220A
:104A50000F21212000F0A9FA212000F0C2FA002243
:104A60000F21222000F0A1FA222000F0BAFA00BFA4
:104A70002837BD4680BD00BF00100240000400483A
:104A800080B582B000AF78607B68124A1A607B689C
:104A9000114A5A607B6800229A607B680122DA60C2
:104AA0007B6800221A617B6800225A617B680022C1
:104AB000DA617B6800221A627868FFF789FF7868FC
:104AC00001F084F80021786801F03AFE00BF083751
:104AD000BD4680BD005800408126700080B58AB078
:104AE00004AFF860084611461A460346FB720B46AF
:104AF0003B811346FB800023FB75FB7A99B2F88853
:104B00003A894FF47A730293BB8C01933B6A00930A
:104B10000346F86801F038FA0346FB75FB7D002B6D
:104B200004D0FB7A1946F86800F032F8FB7D18468D
:104B30001837BD4680BD80B58AB004AFF86008461E
:104B400011461A460346FB720B463B811346FB8017
:104B50000023FB75FB7A99B2F8883A894FF47A738F
:104B60000293BB8C01933B6A00930346F86801F003
:104B7000F7F80346FB75FB7D002B04D0FB7A194642
:104B8000F86800F005F8FB7D18461837BD4680BD73
:104B900080B582B000AF78600B46FB70786801F09A
:104BA000B0F87868FFF76CFF00BF0837BD4680BDDE
:104BB00080B500AF0248FFF763FF00BF80BD00BFB4
:104BC000EC15002080B584B002AF0346FB710B46A4
:104BD000BB7113467B71BB799AB2F97901230193BA
:104BE0007B1D009301230348FFF7A5FF00BF083793
:104BF000BD4680BDEC15002080B586B002AF0346EF
:104C00000A46FB711346BB710023FB73BB799AB252
:104C1000F9790123019307F10F030093012304485D
:104C2000FFF75CFFFB7B18461037BD4680BD00BF19
:104C3000EC15002080B584B002AF3A601A460346F6
:104C4000FB710B46BB711346BB80BB799AB2F979F5
:104C5000BB8801933B68009301230448FFF73EFFA4
:104C6000034618460837BD4680BD00BFEC1500203E
:104C700080B582B000AF0123FB71094B094A1A606D
:104C8000FFF796FF064B1B681B680021BE20984764
:104C90000023FB71FB7918460837BD4680BD00BF75
:104CA000D41600201400002080B500AF044B1B6810
:104CB000DB68BE209847F0EE407AB0EE670A80BD10
:104CC000D416002080B582B000AF0023FB71032012
:104CD00000F060F9002000F00DF80346002B02D030
:104CE0000123FB7101E0FCF719FAFB79184608373C
:104CF000BD4680BD80B584B000AF78600023FB73F3
:104D0000174B1B78002B23D0164B1A68144B1B78BB
:104D100019464FF47A73B3FBF1F3B2FBF3F3184681
:104D200000F06DF90346002B0FD17B680F2B09D8DB
:104D3000002279684FF0FF3000F037F90A4A7B68AB
:104D4000136007E00123FB7304E00123FB7301E020
:104D50000123FB73FB7B18461037BD4680BD00BFA7
:104D600038000020040000203400002080B400AF90
:104D7000064B1B781A46064B1B681344044A136003
:104D800000BFBD465DF8047B704700BF38000020BF
:104D9000D816002080B400AF034B1B681846BD46F0
:104DA0005DF8047B704700BFD816002080B584B042
:104DB00000AF7860FFF7EEFFB8607B68FB60FB68D0
:104DC000B3F1FF3F05D00A4B1B781A46FB6813442A
:104DD000FB6000BFFFF7DEFF0246BB68D31AFA682C
:104DE0009A42F7D800BF00BF1037BD4680BD00BF54
:104DF0003800002080B485B000AF78607B6803F095
:104E00000703FB600C4BDB68BB60BA684FF6FF031F
:104E10001340BB60FB681A02BB68134343F0BF63D7
:104E200043F40033BB60044ABB68D36000BF14374F
:104E3000BD465DF8047B704700ED00E080B400AF34
:104E4000044BDB681B0A03F007031846BD465DF8F8
:104E5000047B704700ED00E080B483B000AF0346F0
:104E6000FB7197F90730002B0BDBFB7903F01F0276
:104E7000074997F907305B09012000FA02F241F86F
:104E8000232000BF0C37BD465DF8047B704700BF90
:104E900000E100E080B483B000AF03463960FB71ED
:104EA00097F90730002B0ADB3B68DAB20C4997F917
:104EB00007301201D2B20B4483F800230AE03B68AA
:104EC000DAB20849FB7903F00F03043B1201D2B2B6
:104ED0000B441A7600BF0C37BD465DF8047B704763
:104EE00000E100E000ED00E080B489B000AFF860C0
:104EF000B9607A60FB6803F00703FB61FB69C3F1EB
:104F00000703042B28BF0423BB61FB690433062B72
:104F100002D9FB69033B00E000237B614FF0FF32C5
:104F2000BB6902FA03F3DA43BB681A407B699A4013
:104F30004FF0FF317B6901FA03F3D9437B680B40E3
:104F4000134318462437BD465DF8047B70470000C4
:104F500080B582B000AF78607B68013BB3F1807FA1
:104F600001D301230FE00A4A7B68013B53600F2104
:104F70004FF0FF30FFF78EFF054B00229A60044B85
:104F800007221A60002318460837BD4680BD00BFBF
:104F900010E000E080B582B000AF78607868FFF77D
:104FA00029FF00BF0837BD4680BD80B586B000AF81
:104FB0000346B9607A60FB7300237B61FFF73EFF15
:104FC00078617A68B9687869FFF78EFF024697F9C9
:104FD0000F3011461846FFF75DFF00BF1837BD467A
:104FE00080BD80B582B000AF0346FB7197F90730F2
:104FF0001846FFF731FF00BF0837BD4680BD80B5BA
:1050000082B000AF78607868FFF7A2FF03461846C9
:105010000837BD4680BD80B582B000AF78607B6840
:10502000002B01D1012314E07B681B79DBB2002B3C
:1050300005D17B6800225A717868FCF793F87B6889
:1050400002221A717B6800221A617B6801221A71A0
:10505000002318460837BD4680BD80B483B000AF3A
:10506000786039607B685B79012B01D1022340E0D5
:105070007B6801225A717B6802221A717B681B6867
:1050800019683B6803F0100301229A407B681B6893
:105090000A431A603B68002B0FD17B681B681B68B2
:1050A00003F03E03022B1DD17B681B685A687B68A6
:1050B0001B6842F001025A6014E07B681B681B68A1
:1050C00003F478123B6803F01003022101FA03F3A2
:1050D0009A4207D17B681B685A687B681B6842F05C
:1050E00002025A607B6801221A717B6800225A71A1
:1050F000002318460C37BD465DF8047B704780B529
:1051000082B000AF78607B681B681B6803F40053B3
:10511000B3F5005F20D17B681B685B6B03F4005321
:10512000B3F5005F18D17B6804221A717B681B6994
:1051300043F001027B681A617B681B684FF40052E0
:105140005A637B681B681A687B681B6822F480526C
:105150001A60786800F052F87B681B681B6803F0DF
:105160000053B3F1005F20D17B681B685B6B03F0D9
:105170000053B3F1005F18D17B6804221A717B6879
:105180001B6943F002027B681A617B681B684FF061
:1051900000525A637B681B681A687B681B6822F0A0
:1051A00080521A60786800F07FF900BF0837BD466A
:1051B00080BD80B487B000AFF860B9607A603B60B2
:1051C00000237B61FB681B687B61BB68002B05D1FA
:1051D0007A697B68134408337B6104E07A697B68F1
:1051E000134414337B617B691A463B6813600023C8
:1051F00018461C37BD465DF8047B704780B483B009
:1052000000AF786000BF0C37BD465DF8047B704787
:1052100080B588B000AFF860B9607A600023BB61E8
:10522000FB685B79012B01D1022337E1FB68012286
:105230005A71FB6802221A71BB685B68042B40F04C
:105240008180FFF7A7FDB8617B68002B40D118E093
:10525000FFF7A0FD0246BB69D31A012B11D9FB68E9
:105260001B685B6B03F40043002B0AD0FB681B69CF
:1052700043F00802FB681A61FB6803221A710323DA
:105280000CE1FB681B685B6B03F40043002BDFD170
:105290000120FFF78BFDFB681B68BA68D2691A64AE
:1052A00023E0FFF777FD0246BB69D31A012B0FD924
:1052B000FB681B685B6B002B0ADAFB681B6943F019
:1052C0000802FB681A61FB6803221A710323E5E0F8
:1052D000FB681B685B6B002BE3DB0120FFF766FDBF
:1052E000FB681B68BA68D2695A64FB681B689A6CD1
:1052F0007B6803F0100340F2FF3101FA03F3DB4354
:1053000002EA0301BB681A6A7B6803F010039A4043
:10531000FB681B680A439A64FB681B68DA6C7B684D
:1053200003F01003FF2101FA03F3DB4302EA030158
:10533000BB685A6A7B6803F010039A40FB681B68DD
:105340000A43DA64BB685B69012B1DD1FB681B68EB
:105350009B6BFB617B6803F010031F2202FA03F3CF
:10536000DB43FA691340FB61BB689B697B617B6827
:1053700003F010037A6902FA03F3FA691343FB613D
:10538000FB681B68FA699A63FB681B68DB6BFB614F
:105390007B6803F01003072202FA03F3DB43FA6988
:1053A0001340FB61BB685A68BB68DB681A43BB6883
:1053B0001B6913437B617B6803F010037A6902FA6F
:1053C00003F3FA691343FB61FB681B68FA69DA634C
:1053D000FB681B6819687B6803F010034FF4804278
:1053E00002FA03F3DA43FB681B680A401A60FB68A1
:1053F0001B681B68FB617B6803F0100340F6FE72BC
:1054000002FA03F3DB43FA691340FB61BB689B6854
:105410007B617B6803F010037A6902FA03F3FA698F
:105420001343FB61BB681B68B3F5004F04D1FB69F4
:1054300043F40043FB6118E0BB681B68002B04D1F8
:10544000FB6923F40043FB610FE002F0A9FC386123
:105450003B69144A934204D9FB6943F40043FB615E
:1054600003E0FB6923F40043FB61FB681B68FA69F6
:105470001A60FB681B6819687B6803F01003C02280
:1054800002FA03F3DA43FB681B680A401A60FB6800
:1054900001221A71FB6800225A7100231846203736
:1054A000BD4680BD00B4C40480B483B000AF786052
:1054B00000BF0C37BD465DF8047B704780B485B0F3
:1054C00000AF78600023FB737B6893F82530DBB274
:1054D000022B08D07B680422DA637B68002283F801
:1054E0002420012340E07B681B681A687B681B68E6
:1054F00022F00E021A607B689B6C1A687B689B6CBA
:1055000022F480721A607B681B681A687B681B68CB
:1055100022F001021A607B685B6C03F01C027B685E
:105520001B6C012101FA02F25A607B68DB6C7A681D
:10553000126D5A607B685B6D002B0CD07B685B6DD5
:105540001A687B685B6D22F480721A607B689B6DC1
:105550007A68D26D5A607B68012283F825207B68C7
:10556000002283F82420FB7B18461437BD465DF8E3
:10557000047B704780B584B000AF78600023FB7374
:105580007B6893F82530DBB2022B05D07B680422C0
:10559000DA630123FB7347E07B681B681A687B684A
:1055A0001B6822F00E021A607B681B681A687B6811
:1055B0001B6822F001021A607B689B6C1A687B688A
:1055C0009B6C22F480721A607B685B6C03F01C0297
:1055D0007B681B6C012101FA02F25A607B68DB6C6C
:1055E0007A68126D5A607B685B6D002B0CD07B680B
:1055F0005B6D1A687B685B6D22F480721A607B6851
:105600009B6D7A68D26D5A607B68012283F82520F1
:105610007B68002283F824207B689B6B002B03D0DF
:105620007B689B6B78689847FB7B18461037BD46B4
:1056300080BD000080B487B000AF7860396000237F
:105640007B6166E13B681A6801217B6901FA03F31B
:105650001340FB60FB68002B00F058813B685B68DF
:1056600003F00303012B05D03B685B6803F00303E1
:10567000022B30D17B689B683B617B695B00032216
:1056800002FA03F3DB433A6913403B613B68DA6893
:105690007B695B0002FA03F33A6913433B617B6861
:1056A0003A699A607B685B683B6101227B6902FA18
:1056B00003F3DB433A6913403B613B685B681B09BA
:1056C00003F001027B6902FA03F33A6913433B6179
:1056D0007B683A695A603B685B6803F00303032BFD
:1056E00017D07B68DB683B617B695B00032202FAB1
:1056F00003F3DB433A6913403B613B689A687B697B
:105700005B0002FA03F33A6913433B617B683A6931
:10571000DA603B685B6803F00303022B23D17B69EB
:10572000DA087B68083253F822303B617B6903F06A
:1057300007039B000F2202FA03F3DB433A6913408D
:105740003B613B681A697B6903F007039B0002FA1F
:1057500003F33A6913433B617B69DA087B680832DB
:10576000396943F822107B681B683B617B695B00E9
:10577000032202FA03F3DB433A6913403B613B68BF
:105780005B6803F003027B695B0002FA03F33A698A
:1057900013433B617B683A691A603B685B6803F4BA
:1057A0004033002B00F0B280614B1B6E604A43F027
:1057B000010313665E4B1B6E03F00103BB60BB6805
:1057C0005C4A7B699B08023352F823303B617B695A
:1057D00003F003039B000F2202FA03F3DB433A6951
:1057E00013403B617B68B3F1904F2BD07B68524AEA
:1057F000934225D07B68514A93421FD07B68504A20
:10580000934219D07B684F4A934213D07B684E4A2B
:1058100093420DD07B684D4A934207D07B684C4A37
:10582000934201D107230EE008230CE006230AE08F
:10583000052308E0042306E0032304E0022302E03A
:10584000012300E000237A6902F0030292009340F2
:105850003A6913433B6137497B699B0802333A69D4
:1058600041F823203B4B9B683B61FB68DB433A6973
:1058700013403B613B685B6803F48013002B03D04B
:105880003A69FB6813433B61324A3B699360314B91
:10589000DB683B61FB68DB433A6913403B613B6873
:1058A0005B6803F40013002B03D03A69FB681343D1
:1058B0003B61284A3B69D360264B5B683B61FB68D0
:1058C000DB433A6913403B613B685B6803F4003398
:1058D000002B03D03A69FB6813433B611D4A3B69C7
:1058E00053601C4B1B683B61FB68DB433A69134008
:1058F0003B613B685B6803F48033002B03D03A695B
:10590000FB6813433B61134A3B6913607B690133B6
:105910007B613B681A687B6922FA03F3002B7FF4F2
:1059200091AE00BF00BF1C37BD465DF8047B7047D9
:105930000010024000000140000400480008004838
:10594000000C0048001000480014004800180048EF
:10595000001C00480004014080B487B000AF7860AC
:10596000396000237B61C9E001227B6902FA03F3FD
:105970003A6813403B613B69002B00F0BC80664AEB
:105980007B699B08023352F82330FB607B6903F08C
:1059900003039B000F2202FA03F3FA681340FB6033
:1059A0007B68B3F1904F2BD07B685C4A934225D043
:1059B0007B685B4A93421FD07B685A4A934219D056
:1059C0007B68594A934213D07B68584A93420DD062
:1059D0007B68574A934207D07B68564A934201D16D
:1059E00007230EE008230CE006230AE0052308E065
:1059F000042306E0032304E0022302E0012300E085
:105A000000237A6902F0030292009340FA689A42F6
:105A100032D1494B1A683B69DB43474913400B605D
:105A2000454B5A683B69DB43434913404B60424B4B
:105A3000DA683B69DB4340491340CB603E4B9A68D0
:105A40003B69DB433C4913408B607B6903F00303F4
:105A50009B000F2202FA03F3FB602F4A7B699B082D
:105A6000023352F82310FB68DA432B487B699B080A
:105A70000A40023340F823207B681A687B695B0088
:105A8000032101FA03F31A437B681A607B69DA0881
:105A90007B68083253F822107B6903F007039B00F0
:105AA0000F2202FA03F3DB437A69D20819407B68BC
:105AB000083243F822107B689A687B695B000321F7
:105AC00001FA03F3DB431A407B689A607B685A68EB
:105AD00001217B6901FA03F3DB431A407B685A60BA
